S0160000626C7565746F6F74685F727874782E7372656303
S1134000E03F0010F19100005D9200005D9200001D
S11340105D9200005D9200005D92000000000000CF
S11340200000000000000000000000005D9200009D
S11340305D920000000000005D9200005D920000AF
S11340405D920000255300005D9200005D92000027
S11340505D9200005D9200005D9200005D920000A0
S11340605D9200005D9200005D9200005D92000090
S11340705D9200005D9200005D9200005D92000080
S11340805D9200005D9200005D9200005D92000070
S11340905D920000755400005D9200005D92000086
S11340A0E59100005D9200007D5800005D920000E3
S11340B05D9200005D9200005D9200005D92000040
S11340C05D9200005D9200005D92000010B5054C09
S11340D0237833B9044B13B10448AFF300800123B0
S11340E0237010BD6809001000000000B0B5000086
S11340F0084B10B51BB108480849AFF300800848C5
S1134100036803B910BD074B002BFBD0BDE810407A
S1134110184700BF00000000B0B500006C09001093
S1134120640900100000000070B50F4E0F4D761B9F
S1134130B61018BF002405D0013455F8043B984745
S1134140A642F9D10A4E0B4D07F032FA761BB6108F
S113415018BF002406D0013455F8043B9847A64202
S1134160F9D170BD70BD00BFBCB50000BCB5000086
S1134170C4B50000BCB5000070B4840746D0541E1A
S1134180002A41D0CDB2034602E0621EE4B31446D5
S113419003F8015B9A07F8D1032C2ED9CDB245EA76
S11341A005250F2C45EA054519D9264603F11002C9
S11341B0103E0F2E42F8105C42F80C5C42F8085C8A
S11341C042F8045C02F11002F2D8A4F1100222F0C9
S11341D00F0204F00F041032032C13440DD91E46B1
S11341E02246043A032A46F8045BFAD8221F22F036
S11341F003020432134404F003042CB1C9B21C4476
S113420003F8011BA342FBD170BC7047144603465C
S1134210C2E700BF024B13B1024800F005B8704773
S1134220000000003542000001460020024603461B
S113423000F016B838B5084B084DED1AAC1018BF8D
S1134240ED1805D0013C55F8043D9847002CF9D1F0
S1134250BDE8384007F0B6B9D0B50000D4B50000C9
S11342602DE9F047254C064625688846D5F848418F
S113427092469946C4B360681F2817DC411C76B186
S113428004EB8003C3F888A0D4F88851012282404B
S11342901543022EC4F88851C3F808911ED0831C1C
S11342A06160002044F82380BDE8F087144B03B319
S11342B04FF4C870AFF300800446D0B1D5F848314C
S11342C0002784E888003846C5F848410121C4F82D
S11342D08871C4F88C71002EE1D0D1E7D4F88C3108
S11342E01A43C4F88C21DAE705F5A674C5F84841E9
S11342F0C1E74FF0FF30BDE8F08700BF4CAB0000D2
S11343000000000080B400AF074B00221A70074B76
S113431000221A60064B80221A70064B7F221A7004
S1134320BD465DF8047B7047590A00105C0A001012
S1134330A3040010A404001080B483B000AF0346AB
S1134340FB71144B1B785AB297F907309342B8BFEC
S11343501346DAB20F4B1A700F4B1B785AB297F907
S113436007309342A8BF1346DAB20B4B1A7097F981
S113437007301A02094B1B681344084A1360084BA0
S11343801B780133DAB2064B1A700C37BD465DF860
S1134390047B7047A3040010A40400105C0A0010FE
S11343A0590A001080B485B000AF1F4B1B78DBB2F4
S11343B0002B06D01D4B1B889BB2A3F66213FB6037
S11343C001E00023FB601A4B1B78002B08D0194B2B
S11343D01B688033164A127893FBF2F3BB6001E04A
S11343E00023BB60144AFB6832F813301AB2134638
S11343F09B019B1A9B0013447B60BA6813465B00C5
S113440013447A6813447B607B688033002B00DAA2
S1134410FF331B1299B2084AFB6822F813101437B1
S1134420BD465DF8047B7047920900109C0400109F
S1134430590A00105C0A0010B009001080B582B05F
S113444000AF03460A46FB711346BB7197F9073068
S113445013F1140F0DD097F9073013F1130F08DA85
S113446097F907306FF077029342B8BF1346DBB277
S113447000E0EC23FB71FB793833DBB29BB203F031
S1134480FC039AB2BB799BB203F003039BB21343C0
S11344909BB29BB20620194605F0C8F8084AFB797E
S11344A0137097F9073013F1770FB4BF012300237A
S11344B0DBB21A46034B1A700837BD4680BD00BFF5
S11344C04D0400109509001080B584B000AF034678
S11344D03960FB7103F006FFF860FB68002B09D11B
S11344E03C4B1B78DBB243F00403DAB2394B1A704D
S11344F000236AE0FB68FA791A70FB79042B13D164
S1134500354B1B681B0DDAB2FB68DA70324B1B6843
S1134510C3F3130340F6354202FB03F22F4B1B682F
S11345201A44FB685A6040E02D4B1B78DAB2FB68F2
S1134530DA702C4B1A68FB685A602B4B1B889BB2B1
S1134540DBB2623BDAB2FB689A70284B1B78DAB2B2
S1134550FB685A72264B1B78DAB2FB681A72254B39
S11345601B78DBB2002B11D01F4B1B889BB2A3F628
S11345706213214A32F813301BB28033002B00DA65
S1134580FF331B12DAB2FB689A720AE01A4B1B88DB
S11345901BB28033002B00DAFF331B12DAB2FB6844
S11345A09A72164B1A78FB68DA72FB680E33184657
S11345B03968322206F024FA064B1B78DAB2FB681B
S11345C05A70044B00221A70012318461037BD4656
S11345D080BD00BF580A0010840900100840004044
S11345E019100010D00B001098090010A40400103A
S11345F0A304001092090010B0090010590A001019
S113460080B586B000AF0346B9607A60FB7303F0EF
S113461069FE78617B69002B09D1194B1B78DBB2E9
S113462043F00403DAB2164B1A70002323E07B69CB
S11346300022DA707B697A685A60124B1B889BB23D
S1134640DBB2623BDAB27B699A707B6900229A72B0
S11346507B690022DA727B690E331846B96832220C
S113466006F0CEF9064B1B78DAB27B695A70044B1C
S113467000221A70012318461837BD4680BD00BFBA
S1134680580A00109C04001080B582B000AF174B8C
S11346901B78DBB2002B1DD0154B1B785BB2002BB3
S11346A018DD144B1B889BB2A3F66213124A32F82E
S11346B013301BB28033002B00DAFF331B12BB71A3
S11346C0BA790B4B1B78DBB21344DBB2363BDBB25B
S11346D0FB7102E0064B1B78FB7197F90730184613
S11346E00321FFF7ABFE0837BD4680BD92090010D9
S11346F04C0400109C040010B009001080B400AFFA
S1134700094B00221A70094B4FF400121A60084B2F
S113471004221A60074A074B1B6843F00403136022
S1134720BD465DF8047B7047A010001000E100E076
S1134730AC800240B480024080B400AF094A094B07
S11347401B6823F004031360074B04221A60074B11
S11347504FF400121A60064B00221A70BD465DF831
S1134760047B7047B4800240AC80024080E100E0EA
S1134770A01000102DE9F04F9BB000AFB9607A6033
S11347803B600346FB730023BB64FB7B3F2B00F2BF
S1134790878501A252F823F099480000A34800003D
S11347A0A1520000B3480000D5480000F1480000C1
S11347B0134900002F4900005149000071490000CD
S11347C093490000374C00005D4C0000094A00008A
S11347D0134A0000B3490000F14A0000114B0000E5
S11347E0494B0000694B0000854B0000114C000050
S11347F0194C00002B4C0000E74C0000054D000054
S1134800A1520000114D00008D4B0000A94B000087
S1134810D14B0000C94B0000D94B0000D54D00001E
S11348206D4D0000494E0000574E0000674E0000D9
S1134830794E0000494F0000BF4F00004D5000006A
S1134840D5500000F750000027510000A552000089
S1134850595100006F5100008B510000A15100001C
S1134860CD510000F14F000023500000E951000039
S11348702D520000174E00003F520000A1520000CC
S113488017520000835200008F520000A152000012
S1134890B74F0000B95000003B6800221A6000F0D6
S11348A002BDA14B01221A703B6800221A6000F07D
S11348B0FABC9E4B1B6803F00203002B14BF0123B8
S11348C00023DBB21A467B681A703B6801221A6027
S11348D000F0E9BCBB681B88002B04D0944B022277
S11348E01A6000F0E0BC934B02221A6000F0DBBCBB
S11348F08E4B1B6803F01003002B14BF012300230D
S1134900DBB21A467B681A703B6801221A6000F019
S1134910CABCBB681B88002B04D0854B10221A60CC
S113492000F0C1BC834B10221A6000F0BCBC7F4B6A
S11349301B6803F48073002B14BF01230023DBB234
S11349401A467B681A703B6801221A6000F0ABBCFF
S1134950BB681B88002B05D0754B4FF480721A601E
S113496000F0A1BC734B4FF480721A6000F09BBC42
S11349706E4B1B6803F40073002B14BF0123002348
S1134980DBB21A467B681A703B6801221A6000F099
S11349908ABCBB681B88002B05D0654B4FF40072A2
S11349A01A6000F080BC634B4FF400721A6000F090
S11349B07ABC3623BB62604B1B6807F1280107F100
S11349C014020846114698477B69DAB27B681A706C
S11349D07B680133BA69D2B21A707B680233BA6950
S11349E0120AD2B21A707B680333BA69120CD2B2BB
S11349F01A707B680433BA69120ED2B21A703B681B
S1134A0005221A6000F04FBC474B0B221A7000F0CD
S1134A104ABC3A23BB62484B1B6807F1280107F1E3
S1134A2014020846114698477B69DAB27B681A700B
S1134A307B680133BA69D2B21A707B680233BA69EF
S1134A40120AD2B21A707B680333BA69120CD2B25A
S1134A501A707B680433BA69120ED2B21A707B687A
S1134A600533FA69D2B21A707B680633FA69120AFE
S1134A70D2B21A707B680733FA69120CD2B21A7078
S1134A807B680833FA69120ED2B21A707B68093354
S1134A903A6AD2B21A707B680A333A6A120AD2B2FC
S1134AA01A707B680B333A6A120CD2B21A707B68A4
S1134AB00C333A6A120ED2B21A707B680D337A6ADA
S1134AC0D2B21A707B680E337A6A120AD2B21A70A2
S1134AD07B680F337A6A120CD2B21A707B68103377
S1134AE07A6A120ED2B21A703B6811221A60DAE3A3
S1134AF0124B1B6803F08003002B14BF0123002317
S1134B00DBB21A467B681A703B6801221A60CAE35A
S1134B10BB681B88002B03D0094B80221A60C2E3B8
S1134B20084B80221A60BEE34F0A001034C00920EB
S1134B3038C009203CC009204804001054C0092092
S1134B4058C009205CC00920924B1B6803F4807391
S1134B50002B14BF01230023DBB21A467B681A70B2
S1134B603B6801221A609EE3BB681B88002B04D0BB
S1134B70894B4FF480721A6095E3884B4FF480722E
S1134B801A6090E3864B03221A708CE3052004F02C
S1134B9037FD0346DBB203F00703DAB27B681A7011
S1134BA03B6801221A607EE3BB681B88072B09D887
S1134BB0BB681B8843F008039BB20520194604F028
S1134BC035FD70E300236FE3754B05221A706AE329
S1134BD0734B06221A7066E3724B1A787B681A705C
S1134BE07B6801336F4A52781A707B6802336D4ACE
S1134BF092781A707B6803336A4AD2781A707B6899
S1134C000433684A12791A703B6805221A604AE331
S1134C10634B00221A7046E3634B1B78DAB27B685D
S1134C201A703B6801221A603DE3BB681B88DAB244
S1134C305D4B1A7037E35D4B1B889BB2DAB27B681D
S1134C401A707B680133594A128892B2120A92B2DE
S1134C50D2B21A703B6802221A6024E3BB681A8835
S1134C60534B1A80524B1B889BB240F6EA22934264
S1134C7007D9504B01221A704D4B40F662121A802C
S1134C8020E04C4B00221A70494B1B889BB240F623
S1134C90DC02934203D9464B1B889BB201E040F6E9
S1134CA0DC03434A1380424B1B889BB240F6E92243
S1134CB0934203D83E4B1B889BB201E040F6EA23A3
S1134CC03B4A13803C4B1B78DBB2092B0AD0384B90
S1134CD01B889AB2354B1A80354B00221A80FFF795
S1134CE0D3FCE0E2DFE23923BB62344B1B6807F1FB
S1134CF0280107F114020846114698473B68002230
S1134D001A60D0E22E4B2F4A1A6004F05BFECAE20E
S1134D10BB681B88B3F5006F17D9BB681B88B3F554
S1134D20406F12D8BB6802331B88B3F5006F0CD9EF
S1134D30BB6802331B88B3F5406F06D8BB680233E7
S1134D401A88BB681B889A4201D20023ACE2BB6874
S1134D501A881D4B1A80BB685A881C4B1A80104B4A
S1134D6004221A703B6800221A609CE2BB681B880C
S1134D70B3F5807F01D9002396E2BB681B88DAB2C1
S1134D80134B1A70064B07221A703B6800221A60F4
S1134D9089E200BF54C0092058C009205CC0092022
S1134DA04F0A001060100010520A00109C040010FA
S1134DB0540A0010920900104E0A00104804001012
S1134DC01C00001021BB05439E040010A004001029
S1134DD0A20400107B6800221A707B680133002251
S1134DE01A70A74805F082FE034687F847307B68AF
S1134DF0023397F847201A707B68DA1C97F847301B
S1134E0010469F491A4605F0FBFD97F84730DA1C17
S1134E103B681A6047E29B4805F068FE034687F842
S1134E2047307B6897F847201A707B685A1C97F8BC
S1134E304730104693491A4605F0E2FD97F847308B
S1134E405A1C3B681A602EE27B6801221A703B6888
S1134E5001221A6027E2BB681B88DAB28A4B1A70F7
S1134E60FFF712FC1FE2884B1B78DAB27B681A70DA
S1134E703B6801221A6016E284494FF000024FF0A9
S1134E800003C1E9002381494FF000024FF0000301
S1134E90C1E9022300237B6625E07C4BD3E900AB08
S1134EA07B6E7A6813441B78DAB24FF00003796E94
S1134EB0C900A1F12006C1F1200003FA01F902FAA8
S1134EC006F649EA060922FA00F049EA000902FA5C
S1134ED001F84AEA08024BEA09036C49C1E90023D4
S1134EE07B6E01337B667B6E072BD6DD00233B662E
S1134EF024E0664BD3E902893B6E08337A68134495
S1134F001B78DAB24FF00003396EC900A1F1200614
S1134F10C1F1200003FA01F502FA06F6354322FA3C
S1134F2000F0054302FA01F448EA040249EA0503E1
S1134F305649C1E902233B6E01333B663B6E072BA6
S1134F40D7DD02F05BFFAEE1514B00221A60002373
S1134F50FB6511E04E4B1B681B024D4A1360FB6D51
S1134F607A6813441B781A46494B1B681343484A12
S1134F701360FB6D0133FB65FB6D032BEADD454BD1
S1134F8002221A70444B01221A70444B4FF0805293
S1134F901A607B6804331B781B029AB27B68053362
S1134FA01B789BB213439BB29AB23D4B1A803D4B84
S1134FB008221A7077E13C4B01221A7073E17B6876
S1134FC01B781A467B6801331B781B021A437B68E3
S1134FD002331B781B041A437B6803331B781B06BC
S1134FE013433B64314A3B6C1360FFF74DFB5AE1BA
S1134FF00023BB650BE0BB6D7A68134419782C4A17
S1135000BB6D13440A461A70BB6D0133BB65BB6D9F
S1135010092BF0DD274B01221A703B680A221A6023
S113502041E100237B6507E0214A7B6D13440022A4
S11350301A707B6D01337B657B6D092BF4DD1D4B91
S113504000221A703B680A221A602CE1174B1B6875
S11350503B6400233B650CE03B6D7A6813443A6D76
S1135060D200396C21FA02F2D2B21A703B6D0133CC
S11350703B653B6D032BEFDD3B6804221A6012E1B4
S113508010B40000CCB300004C040010A8100010B1
S11350908C090010920900109409001098C009208E
S11350A0900900104F0A00109309001084090010A1
S11350B0C40B0010181000107B681B781B029AB2F6
S11350C07B6801331B789BB213439BB29AB2794B32
S11350D01A80E8E03B6800221A60774B00221A70BD
S11350E0764B03221A70764B09221A7003F0E4F807
S11350F0FFF7CAFAD7E00023FB640DE0FB6C7A6883
S11351001344704A1168FA6CD20021FA02F2D2B246
S11351101A70FB6C0133FB64FB6C032BEEDD3B6804
S113512004221A60BFE07B681B781A467B6801334F
S11351301B781B021A437B6802331B781B041A4337
S11351407B6803331B781B061343184601F098F859
S11351505C4B0122DA63A6E07B6813221A707B6839
S1135160013337221A703B6802221A609BE0554BC8
S11351701B69002B14BF01230023DBB21A467B6892
S11351801A703B6801221A608DE0BB681B88002BF3
S113519014BF01230023DBB21A464A4B1A6182E092
S11351A003F0D0F8B864BB6C002B08D07868B96CF5
S11351B0402205F025FC3B6840221A6073E07B68BE
S11351C000221A703B6801221A606CE03B680022DE
S11351D01A603A4B00221A70394B0A221A7003F0F3
S11351E06BF8FFF751FA5EE0BB681B88DBB2184628
S11351F004F006FA0346FB87FB8F1B0A9BB2DAB264
S11352007B681A707B680133FA8FD2B21A703B68DC
S113521002221A6047E0BB681B88DAB2BB6802331B
S11352201B881046194604F001FA3CE026487968C8
S1135230062205F0E5FB224B0C221A7033E07B6852
S11352405A79204B83F834207B681A791D4B83F8F4
S113525035207B68DA781B4B83F836207B689A7894
S1135260184B83F837207B685A78164B83F838201C
S11352707B681A78134B83F83920124B0122DA63C6
S113528011E0BB681B88DAB2104B1A700BE00C4BB0
S11352900D221A70BB681B88DAB20D4B1A7002E03B
S11352A0002301E000BF012318466C37BD46BDE86A
S11352B0F08F00BF900900109309001092090010AC
S11352C04F0A0010580400109C090010500A0010E6
S11352D0510A001080B400AF0C4B02221A600C4B30
S11352E000221A600B4B04221A600B4B40F6344226
S11352F01A600A4B03221A60094B02221A60034BFC
S113530001221A60BD465DF8047B704704400040EA
S1135310840900100C400040184000401440004034
S113532000E100E080B483B000AF4FF040231B687D
S113533003F00103002B00F08480444B1B685A1CCB
S1135340434B1B681344424A1360404B00221A60CB
S11353503F4B1A683F4B9B69D31A03F003037B60EE
S11353603D4B1B78DBB2002B04D03B4B1B78DBB2EC
S1135370012B0AD1364B1B6803F07F03002B03D1AA
S1135380364B01221A704EE04DE0334B1B78DBB2F2
S1135390022B09D12E4B1B6803F00103002B42D1D1
S11353A02E4B01221A703EE02B4B1B78DBB2032BF1
S11353B026D1284B1B7D032B35D17B68002B32D1A2
S11353C0244B9B8B9BB2013B9AB2224B9A83214B79
S11353D09B8B9BB2002B0ED1204B01221A701D4BCC
S11353E01B8C9BB201339AB21A4B1A84194BDA8B79
S11353F0184B9A8317E01A4B4FF480721A6012E02C
S1135400154B1B78DBB2052B0DD1164B1B889BB2B9
S11354101A46154B1B681A440D4B1B689A4202D15D
S11354200E4B01221A70114B114A128892B202F6E5
S113543034421A600E4B00221A804FF0402301229E
S11354401A600C37BD465DF8047B70478C09001068
S113545084090010580400109209001093090010E8
S11354603CC009204E040010880900101840004078
S11354709009001080B400AF0A4B04221A600A4B52
S11354804FF080521A60094B01221A70084B1B78A6
S1135490DBB2022B02D1074B00221A70BD465DF825
S11354A0047B7047AC8002409CC00920A01000100F
S11354B0920900109409001080B485B000AF7860A0
S11354C07B6840F6354202FB03F3094AA2FB03233F
S11354D09A09084B1B681344FB60064B1A68FB6867
S11354E09A42FAD31437BD465DF8047B704700BF77
S11354F0D34D62108409001080B400AF334A334B9B
S11355001B6843F000531360314B00221A60314B87
S113551000221A60304B00221A60304B00221A60BD
S11355202F4B00221A602F4B00221A602E4B0022B0
S11355301A602E4B00221A602D4BFF221A602D4B4D
S1135540FF221A602C4B2D4A1A602D4A2A4B5A60AE
S11355502C4A294B9A60284B2B4ADA60294B274A5C
S11355601A602A4A274B5A60234A264B9A60254BD5
S1135570254ADA60264B4FF080621A60254B0122DF
S11355801A6000BF234B1B6803F00103002BF9D002
S1135590214A194B1B681360204A174B5B68136040
S11355A01F4A154B9B6813601E4A134BDB6813603C
S11355B0074B4DF206021A601B4B00221A601B4B6C
S11355C000221A60BD465DF8047B7047C4C00F40DA
S11355D01041005030410050504100507041005083
S11355E090410050B0410050D0410050F041005073
S11355F008400050104000505010001008000340B4
S113560068100010D40B0010329000881C10001099
S113561080E100E03040005000410050044100505F
S1135620084100500C410050100B00109C10001059
S113563080B483B000AF3F4A3E4B1B6843F0005335
S113564013603D4B00221A603C4B00221A603C4B15
S113565000221A603B4B00221A603B4B00221A6066
S11356603A4B00221A603A4B00221A60394B00224E
S11356701A60394BFF221A60384BFF221A60384BEC
S113568001221A6000BF364B1B6803F00103002B94
S1135690F9D000237B602AE0324A7B681B01134463
S11356A0314A1A607B689B00304A134419462D4ADC
S11356B07B681B01134459607B68092B06DC7B68FB
S11356C001331B01274A13441A4600E000222549EE
S11356D07B681B010B4408331A60224A7B681B0158
S11356E013440833224A5A607B6801337B607B6829
S11356F00A2BD1DD1F4A1B4B1B6813601E4A194B32
S11357005B6813601D4A174B9B6813601C4A154B5A
S1135710DB681360084B4DF206021A60194B002235
S11357201A60194B00221A600C37BD465DF8047BE1
S1135730704700BFC4C00F401041005030410050BA
S1135740504100507041005090410050B041005011
S1135750D0410050F041005008400050104000502B
S113576030400050140B0010080003406810001073
S113577004100088004100500441005008410050CA
S11357800C410050100B00109C10001080B483B02A
S113579000AF294B1B6803F00103002B46D0274BB5
S11357A01B6803F00103002B32D0254B01221A6041
S11357B0244B1B78DBB2022B03D1234B4FF08052D6
S11357C01A60224B1B68C3F3130340F6354202FBF5
S11357D003F21F4B1B6813441E4A13601B4B1B68C8
S11357E01B0DDAB21C4B1A701C4B1B889AB21C4B53
S11357F01A801C4B1B687B601B4B1B68194A136087
S1135800194A7B681360194B1B680133174A1360EC
S1135810174B1B6803F00103002B07D0154B012223
S11358201A60154B1B680133134A13600C37BD46CD
S11358305DF8047B704700BF0040005004400050F6
S1135840084000509209001098C0092084090010F3
S113585008400040D00B0010191000109C040010E8
S1135860980900105004001054040010100B00108C
S11358700C400050104000509C10001080B500AF48
S1135880124B1B78DBB2013B0B2B1ED801A252F842
S113589023F000BFC5580000CB580000CB580000CF
S11358A0C5580000CB580000CB580000CB5800006E
S11358B0C5580000C5580000C5580000CB5800006A
S11358C0C5580000FFF762FF00BF80BD4E0A0010FC
S11358D080B400AF104B4FF080521A600F4A0F4B48
S11358E01B6843F0010313600D4A0D4B1B6843F022
S11358F0020313600B4A0B4B1B6843F00103136054
S1135900094B4FF080621A60084B4FF080521A60C6
S1135910BD465DF8047B704798C00920240003400D
S1135920040003401041005000E100E09CC0092045
S113593080B400AF214B4FF080521A60204A204BB4
S11359401B6823F0010313601E4A1E4B1B6823F0DF
S1135950020313601C4B4FF080621A601B4B002241
S11359601A601B4B00221A601A4B00221A601A4B51
S113597000221A60194B00221A60194B00221A6087
S1135980184B00221A60184B00221A60174BFF2292
S11359901A60174BFF221A60164A164B1B6823F035
S11359A00103136000BF134B1B6803F00103002BBA
S11359B0F9D1BD465DF8047B704700BF98C009204B
S11359C0240003400400034080E100E01041005043
S11359D030410050504100507041005090410050FF
S11359E0B0410050D0410050F041005008400050F8
S11359F0104000503040005080B500AF642003F0E8
S1135A00D7FE00BF03F0CAFE034603F00403002BD5
S1135A10F8D10A4B80221A60084B4FF480721A6046
S1135A20074B10221A60064B4FF480721A60044B25
S1135A3002221A60034B00221A7080BD5CC0092048
S1135A403CC009204E0A001080B582B000AF284B3C
S1135A501B78DBB2002B02D12923FB8008E0244B06
S1135A601B78DBB2012B02D14023FB8000E03CE039
S1135A700D2047F6FF7103F0D9FD122042F62231C2
S1135A8003F0D4FD142041F24B3103F0CFFD20206C
S1135A9040F2011103F0CAFD022040F67A1103F02E
S1135AA0C5FDFB880320194603F0C0FDFEF7ECFD9D
S1135AB000BF03F073FE034603F04003002BF8D04D
S1135AC0612003F075FE00BF03F068FE034603F097
S1135AD00403002BF8D0622003F06AFE054B8022F9
S1135AE01A60044B4FF480721A600837BD4680BDBB
S1135AF0520A001058C0092080B584B000AF786005
S1135B00334B1B78DBB2002B05D12923BB8140F238
S1135B106143FB810BE02E4B1B78DBB2012B05D1DB
S1135B204023BB8140F26153FB8100E04DE00D2036
S1135B3047F6FF7103F07AFD122042F6223103F09A
S1135B4075FD142041F24B2103F070FDFB892020E8
S1135B50194603F06BFD7B689BB22C20194603F0B9
S1135B6065FD7B681B0C9BB22D20194603F05EFD7E
S1135B70184B1B889BB2013B9BB20220194603F0D1
S1135B8055FDBB890320194603F050FDFEF77CFD4B
S1135B9000BF03F003FE034603F04003002BF8D0DC
S1135BA0612003F005FE00BF03F0F8FD034603F097
S1135BB00403002BF8D0622003F0FAFD064B802288
S1135BC01A60054B4FF480721A601037BD4680BDD1
S1135BD0520A00109C04001058C0092080B59AB0E5
S1135BE000AFF8600B467A60FB7200237B6635E0F9
S1135BF0FB6887F85E30FB681B0AFB6007F1100244
S1135C007B6E134400221A7000233B6620E007F1E8
S1135C1010027B6E13441B78D9B297F85E3003F000
S1135C2001033A6EC2F107029340DBB20A46134302
S1135C30DBB2D9B207F110027B6E13440A461A7024
S1135C4097F85E305B0887F85E303B6E01333B6645
S1135C503B6E072BDBD97B6E01337B667B6E032B9C
S1135C60C6D9934B1B889BB2DBB2623BDBB21846AE
S1135C7002F0D4F903461A468E4B9B5CBB650023A5
S1135C807B6650E07A687B6E13441B7887F85E303D
S1135C907B6E043307F168021344002203F8582C86
S1135CA000233B6639E097F85E3003F00103824934
S1135CB0BA6D0A44127853407B65BB6D01331946B3
S1135CC07E4BA1FB0323C81A400803449A091346D8
S1135CD0DB019B1ACA1ABA6597F85E305B0887F82D
S1135CE05E307B6E04337A6E043207F168010A4435
S1135CF012F8582CD1B23A6EC2F1070210467A6DEE
S1135D008240D2B20A43D2B2D2B207F168010B4444
S1135D1003F8582C3B6E01333B663B6E072BC2D90C
S1135D207B6E01337B66FA7A7B6E9A42AAD8FB7A41
S1135D300433FB720D2047F6FF7103F077FC122049
S1135D4042F6223103F072FC142041F24B3103F08D
S1135D506DFC202040F6014103F068FC544B1B8885
S1135D609BB20220194603F061FC05200B2103F0CD
S1135D705DFC0320402103F059FC2320142103F08F
S1135D8055FCFB6803F00103002B05D02D204AF6D7
S1135D90AA2103F04BFC04E02D2045F2555103F0F9
S1135DA045FC082003F02CFC0346A7F85230B7F852
S1135DB05230C3F308039BB243F49C439BB29BB29F
S1135DC00820194603F032FC00BF03F0E7FC034649
S1135DD003F04003002BF8D0612003F0E9FC00BF7E
S1135DE003F0DCFC034603F00403002BF8D0344B2F
S1135DF04FF480721A60334B80221A6000BF0E2069
S1135E0003F0FEFB034603F01F030F2BF7D16320BF
S1135E1003F0CEFC00237B6621E000BF2A4B1B6805
S1135E2003F00403002BF9D17B6EDBB2FA7AD31AA8
S1135E3087F85F3097F85F30102B02D9102387F86A
S1135E405F3007F110027B6E134497F85F207020D7
S1135E5011461A4603F02CFC7B6E10337B66FA7AEB
S1135E607B6E9A42D9D800BF0E2003F0C9FB0346CB
S1135E7003F01F030F2BF7D1144B4FF480721A60F9
S1135E80642003F095FC00BF03F088FC034603F094
S1135E900403002BF8D10E4B80221A60B7F852305D
S1135EA00820194603F0C2FB6837BD4680BD00BF19
S1135EB09C040010FCAB00007CAB00001108040241
S1135EC038C0092058C0092054C009203CC009200A
S1135ED05CC0092080B500AF0D2047F6FF7103F0C8
S1135EE0A5FB122042F6223103F0A0FB142042F25B
S1135EF04B3103F09BFB202040F6014103F096FB5D
S1135F0005200B2103F092FB0320402103F08EFBBC
S1135F1000BF03F043FC034603F04003002BF8D01A
S1135F20612003F045FC00BF03F038FC034603F096
S1135F300403002BF8D00A4B4FF480721A60094B0B
S1135F4080221A6000BF0E2003F05AFB034603F0C0
S1135F501F030F2BF7D1632003F02AFC80BD00BF81
S1135F6038C0092058C0092080B500AF224B002258
S1135F701A70224B1B68224A1360224B1B78DBB237
S1135F80002B0BD1022003F03BFB03461A461E4BA9
S1135F901B889BB2013B9A4200D12BE0642003F0A2
S1135FA007FC00BF03F0FAFB034603F00403002BD5
S1135FB0F8D1154B1B889BB2013B9BB202201946BA
S1135FC003F034FB0F4B1B78DBB2002B01D0FEF740
S1135FD05BFB612003F0ECFB00BF03F0DFFB034637
S1135FE003F00403002BF8D0084B01221A7062203E
S1135FF003F0DEFB80BD00BF93090010840900108C
S113600088090010920900109C04001094090010E3
S113601080B582B000AF0D2047F6FF7103F006FB98
S1136020122042F6223103F001FB142041F24B61AD
S113603003F0FCFA022040F6881103F0F7FA2D2051
S11360404FF6AE1103F0F2FA2C2041F2845103F022
S1136050EDFA0320402103F0E9FA20204FF47661A1
S113606003F0E4FA00BF03F099FB034603F0400396
S1136070002BF8D0612003F09BFB00BF03F08EFBE4
S1136080034603F00403002BF8D06D4B80221A6002
S11360906B4B4FF480721A60622003F089FB00BFDF
S11360A003F07CFB034603F01003002BF8D0FFF74A
S11360B011F9644B40F6CA021A6002F0FDF803F0CD
S11360C0E3F9FFF719FAFFF703FCFFF7BDFCFEF74E
S11360D015FBA2E05C4B10221A60FEF713F9802333
S11360E0BB7133E0062003F08BFA03461B0A9BB214
S11360F0FB71564B1B78DBB2002B11D097F906309D
S113610013F1800F0CD1524B1B785BB203F13602B2
S113611097F907309342B8BF1346FB71FB79BB7103
S113612097F907301846FEF707F94A4B1B681846DB
S113613002F068F9484B1B78DBB2002B02D0FFF762
S113614013FF03E0404B4FF480721A60434B1B680B
S1136150002BC7D0424B10221A60424B1B68002B05
S113616007D0414B1B78DBB243F00203DAB23E4B5B
S11361701A703A4B1B68012B07D93B4B1B78DBB2D7
S113618043F00103DAB2384B1A70384B1B78DBB298
S1136190002B0AD0344B1B78DBB243F02003DAB275
S11361A0314B1A70314B00221A70FEF7FBF8274B63
S11361B01B78DBB2002B03D12D4B1B78002B0AD0AC
S11361C0294B1B78DBB243F00803DAB2264B1A7072
S11361D01E4B00221A70274B1B785AB21C4B1B789B
S11361E05BB236339A4207DB1F4B1B78DBB243F0BA
S11361F01003DAB21C4B1A701F4B1B68002019469F
S1136200FEF762F9134B1B68184602F0FBF8134BB8
S113621000221A60134B00221A60184B1B78DBB261
S1136220012B3FF457AF154B1B78DBB2082B3FF41F
S113623051AFFFF77DFBFEF77FFA0837BD4680BDFF
S113624058C00920084000403CC00920A01000109C
S11362504D0400108409001093090010100B001065
S113626038C009209C100010580A0010940900102E
S113627095090010A3040010540400104F0A0010E4
S113628080B584B000AF7860094A7B681360786891
S113629002F0FAFFF860FB689AB2054BDA80FB68FB
S11362A01B0C9AB2024B9A801037BD4680BD00BFCA
S11362B05804001080B500AF1F48FFF7E1FF1F4BE3
S11362C01F4A9A601D4B1F4ADA601C4B01221A6157
S11362D01A4B00221A64194B00221A75174B00221C
S11362E05A75164B00229A75144B00229A61134B6F
S11362F000229A83114B0022DA83104B0022DA83A6
S11363000E4B00221A840D4B002283F822200B4BE3
S113631000229A84094B00229A62084B00229A8533
S1136320064B0022DA85054B002283F83020064B09
S113633000221A7080BD00BFD6BE898E580400109A
S113634055555500AAAAAA009309001080B500AFBC
S1136350054800214FF48472FDF70EFF024B4FF005
S1136360FF32C3F8002180BDE40B001080B588B073
S113637000AF0346FB710023FB60954B01221A70AA
S1136380944AFB791370FFF795FF934B4FF080729B
S11363901A60924B10221A6001F08EFF03F074F819
S11363A0FFF7AAF8FFF794FAFFF74EFBFEF7A6F9FA
S11363B00023FB77F8E08A4B1B889BB2002B24D088
S11363C0642003F0F5F900BF03F0E8F9034603F095
S11363D00403002BF8D1834B1B889BB2013B9BB277
S11363E00220194603F022F9612003F0E1F900BF0D
S11363F003F0D4F9034603F00403002BF8D0622021
S113640003F0D6F9764B00221A80774B1B78DBB267
S1136410002B02D0FFF7A8FD03E0704B4FF480720D
S11364201A606E4B10221A60FDF76CFF8023BB7458
S113643022E0062003F0E4F803461B0A9BB2FB7437
S11364406A4B1B78DBB2002B11D097F9123013F191
S1136450800F0CD1664B1B785BB203F1360297F9BF
S113646013309342B8BF1346FB74FB7CBB7497F99B
S113647013301846FDF760FF5E4B1B68002B03D1F9
S11364805D4B1B68002BD4D05B4B1B68002B07D0E3
S11364905A4B1B78DBB243F00203DAB2574B1A7043
S11364A0544B1B68002B00D178E0524B1B68012B26
S11364B007D9524B1B78DBB243F00103DAB24F4BDE
S11364C01A70FDF76FFF494B1B78DBB2002B03D129
S11364D04B4B1B78002B0CD0484B1B78DBB243F0A2
S11364E00803DAB2454B1A700223FB773F4B0022B4
S11364F01A70444B1B785AB23D4B1B785BB236334F
S11365009A4209DB3D4B1B78DBB243F01003DAB24D
S11365103A4B1A700223FB77FB7F002B00D13DE03E
S1136520FB7F013BFB77384838494FF4C87204F0CD
S113653067FA0023BB6125E000237B611CE0BB6993
S11365403233DA007B691344314A1168BA690A4468
S11365501278D2B2D209D1B22B4AD1542C4B1B6837
S1136560BA691A44B9690B441B78DBB25B00DBB22D
S113657013707B6901337B617B69072BDFDDBB69AA
S11365800133BB61BB69312BD6DD224B1B681E482E
S11365909847B860BB68002B00D10CE0154B002273
S11365A01A60154B00221A601B4B1B78DBB2FA7978
S11365B09A423FF400AF194B4FF080721A60FFF714
S11365C01BFAFFF7B5F9FEF7B7F82037BD4680BDD3
S11365D0520A00104E0A001000E100E03CC00920FD
S11365E0540A00109C04001093090010A01000101D
S11365F04D040010100B00109C100010580A0010DD
S113660095090010A3040010F80C0010880E001067
S113661054040010A80900104F0A001080E100E0A3
S113662090B59DB000AF0346FB71914B01221A70E7
S1136630904AFB791370904B01221A758F4B4FF0DF
S113664080721A608E4B10221A6001F035FE02F03F
S11366501BFFFEF7EDFFFFF73BF9874B1B6818465E
S113666002F012FE03461846FFF746FA63E2854B32
S11366701B889BB2002B29D0642003F099F800BF3B
S113668003F08CF8034603F00403002BF8D17E4B8F
S11366901B889BB2013B9BB20220194602F0C6FF45
S11366A0612003F085F800BF03F078F8034603F097
S11366B00403002BF8D0622003F07AF8714B1B8896
S11366C09AB2724B1A806F4B00221A806C4B1022C4
S11366D01A60FDF717FE00BF6D4B1B68002B0ED12F
S11366E06C4B1B68002B0AD16B4B1B78DBB2002B65
S11366F005D16A4B1B78DBB2FA799A42ECD00620BA
S113670002F07EFF03461B0A9BB287F86730644A97
S113671097F867301370624B1A78624B1A705F4BAC
S11367201B78DBB2FA799A4200D00BE2594B1B6812
S1136730002B07D05C4B1B78DBB243F00203DAB2C8
S1136740594B1A70544B1B78DBB2002B00D037E145
S11367504F4B1B68002B00D1EDE107F10C033B66A6
S1136760454B1B68FB60484B1B889BB2DBB2623B0A
S1136770DBB2184601F052FC03461A4613465B008E
S113678013441B01494A1344FB650023FB6638E0AC
S1136790474AFB6E13441B78DBB21A06FB6E0133C7
S11367A04349CB5CDBB21B041A43FB6E0233404902
S11367B0CB5CDBB21B021343FA6E03323C498A5CA6
S11367C0D2B21343BB65FB6E002B00DA03339B107C
S11367D05C1CB86D02F058FD0146FB6E002B00DA1C
S11367E003339B109B00FA6D13441B6881EA030278
S11367F0A30007F170010B4443F8642CFB6E0433CF
S1136800FB66FB6E032BC3DD3B6E05331B7803F085
S11368103F0302337B657B6D272B00D9D0E07B6D72
S113682006339B083B653B6D0A2B0DD800BF214BFB
S11368301A683B6D9B001E490B449A420FD2154BBC
S11368401B68002BF3D00AE000BF1B4B1B6803F04E
S11368500103002B03D00F4B1B68002BF5D0174A04
S1136860164B1B6823F0010313600423FB6660E0EE
S1136870520A00104E0A00105804001000E100E013
S11368803CC00920540A00109C040010560A001051
S1136890100B00109C100010930900104F0A0010F8
S11368A0A3040010A4040010580A00104CAC00000B
S11368B068100010044100501041005024000340AF
S11368C0A74AFB6E13441B78DBB21A06FB6E013336
S11368D0A349CB5CDBB21B041A43FB6E0233A04911
S11368E0CB5CDBB21B021343FA6E03329C498A5C15
S11368F0D2B21343FB64FB6E002B00DA03339B100C
S11369005C1CF86C02F0C0FC0146FB6E002B00DA44
S113691003339B109B00FA6D13441B6881EA030246
S1136920A30007F170010B4443F8642CFB6E04339D
S1136930FB66FB6E2B2BC3DD8A4B1B69002B23D01C
S1136940884BD9683B6E1A1D7B6D084611461A4662
S113695001F036FCB8647B6D06333A6E13441B7841
S11369601A047B6D0533396E0B441B781B021343E9
S11369707A6D0432396E0A44127813437B64BA6C1C
S11369807B6C9A4200D01BE0774B10221A60774B45
S11369901B6807F10C021046984707F10C0301200D
S11369A01946FDF791FD724B1B68C3F3130340F6C0
S11369B0354202FB03F26F4B1B681344694A1364AC
S11369C0612002F0F5FE00BF02F0E8FE034603F08A
S11369D00403002BF8D0684A674B1B6823F00103BB
S11369E0136003E0654B1B6887F84330644B1B68F6
S11369F003F00403002BF5D15D4B1B68C3F31303B1
S1136A0040F6354202FB03F25A4B1B681344BB6643
S1136A10544B1A6CBB6E9A4205D9BB6E03F14343C7
S1136A2003F5A003BB664F4B1B7D032B03D04D4BDB
S1136A301B7D022B06D14B4B1B6CBA6ED31A514AE9
S1136A40934203D8504B1B68012B37D1FFF732FC1C
S1136A504D4B00221A604D4B4FF480721A604C4B20
S1136A601B78DBB2012B06D1494B00221A70494B2B
S1136A7000221A7066E0FB790A2B01D100BF61E0A5
S1136A80384B01221A75642002F092FE00BF02F016
S1136A9085FE034603F00403002BF8D13E4B1B880C
S1136AA09BB2002B03D03C4B1B889BB201E040F609
S1136AB062133A4A13803A4B01221A60294BDB884D
S1136AC02C20194602F0B2FD264B9B882D20194636
S1136AD002F0ACFD334B1B78DBB2002B01D0FFF787
S1136AE043FA294B1B68002B07DDFFF7F3F9264B0C
S1136AF01B68013B244A136017E0FEF799FDFEF77B
S1136B00E7FE274B1B68002B0CD0164B1B6818465E
S1136B1002F0BAFB03461846FEF7EEFF204B0022B4
S1136B201A6002E0622002F043FE1F4B00221A604A
S1136B301E4B00221A60174B1B78DBB2FA799A427B
S1136B403FF495AD1A4B4FF080721A60FEF754FF74
S1136B50FEF7EEFEFDF7F0FD7437BD4690BD00BFB5
S1136B60681000105804001038C00920AC09001047
S1136B70840900100840004024000340080003403A
S1136B800C00034080F0FA02A40900103CC0092064
S1136B90500A00104F0A0010560A00109C040010FE
S1136BA0600A001093090010100B00109C100010D4
S1136BB080E100E080B58CB000AF6E4B1B889BB2C7
S1136BC0DBB2623BDBB2184601F028FA03461A46F0
S1136BD0694B9B5C3B620023FB610023FB620EE07C
S1136BE0FB695B08FB61654AFB6A13441B78DB079E
S1136BF01A46FB691343FB61FB6A0133FB62FB6AC0
S1136C001E2BEDDD1F23FB62AAE0FB695B08FB6121
S1136C105A4AFB6A13441B78DB071A46FB69134381
S1136C20FB61574B1A68FB699A4240F09680002337
S1136C30BB6248E00023FB7600237B6237E0BB6A3B
S1136C40DA007B6A1A44FB6A13441F3B3B613B69CD
S1136C50B3F5487F00DB2DE0484A3B6913441B78B9
S1136C607B61BB6A032B16DD464A3B6A13441B78DF
S1136C701A467B6953407B613B6A01331946424B98
S1136C80A1FB0323C81A400803449A091346DB01F5
S1136C909B1ACA1A3A627A697B6A02FA03F3DAB275
S1136CA0FB7E1343DBB2FB767B6A01337B627B6A38
S1136CB0072BC4DD354B1A68BB6A1344FA7E1A707D
S1136CC0BB6A0133BB62BB6A2D2BB3DD2C4B1B6942
S1136CD0002B32D02D4B1B6805331B78DBB203F03D
S1136CE03F030233FB60264BDA68284B1B680433EE
S1136CF010461946FA6801F063FAB860234B1A6823
S1136D00FB68063313441B78DBB21A041F4B196863
S1136D10FB6805330B441B78DBB21B0213431B4A8D
S1136D201268F96804310A441278D2B213437B60C2
S1136D30BA687B689A4200D017E0144B1B680120A4
S1136D401946FDF7C1FB124B10221A60114B1B6848
S1136D500E4A12681046984707E0FB6A0133FB624B
S1136D60FB6AB3F5D87FFFF650AF012318463037DE
S1136D70BD4680BD9C040010FCAB0000F80C001064
S1136D80580400107CAB00001108040254040010E5
S1136D9038C00920AC09001080B58AB000AF786013
S1136DA000233B627B68FB617B681B79FB767B6815
S1136DB005337B617B6806333B617B691B78063353
S1136DC01A467B681344FB608B4B1B7D022B1CD142
S1136DD0894B03221A75894B1B68874A9361864B3A
S1136DE0DB8B013B9AB2844B9A83834B00221A8437
S1136DF0814B00229A62824B1B78DBB2002B00F09D
S1136E00F780804B28221A60F2E07B4B1B7D032B1A
S1136E106FD1FB7E03F00303FB72774B9B6A002B5D
S1136E2021D0754B1B8C9AB2734B9B8D9A421AD10D
S1136E30724B1B68704A93616F4BDA8D6E4BDA8329
S1136E406D4BDB8D013B9AB26B4B9A836A4B93F883
S1136E503020694B83F82220674B5A8E664B9A8404
S1136E60654B00229A62FB7A032B41D13B691B7864
S1136E70002B3DD17B68DA795F4B83F830207B6847
S1136E8008331B789AB27B6809331B789BB21B02C8
S1136E909BB213449AB2584B5A867B680A331B78C8
S1136EA09AB27B680B331B789BB21B029BB21344D0
S1136EB09AB2514BDA857B6810331B789AB27B689F
S1136EC011331B789BB21B029BB213449AB24A4BF8
S1136ED09A85494B9B8D1A46474B1B8C9BB2D31A00
S1136EE047F6FE72934203DC434B01229A627FE031
S1136EF07EE0414B1B7D012B7AD17B6804331B78E8
S1136F0003F00F03BB72BB7A052B71D13A4BDB6BD9
S1136F10002B14D07B6806333B481946062203F045
S1136F203DFD0346002B0AD07B680C3336481946D6
S1136F30062203F033FD0346002B00D058E02E4B0D
S1136F4002221A752C4B00221A6100237B6211E085
S1136F507B6A12331A467B6813441B781A467B6A91
S1136F60DB0002FA03F31A463B6A13433B627B6A73
S1136F7001337B627B6A032BEADD386AFFF780F911
S1136F807B6818331B781A047B6817331B781B0241
S1136F9013437A681632127813431A46164B9A60D2
S1136FA0154B9B68184602F06FF90246124BDA60E3
S1136FB07B685A7E104B83F822207B681A331B7837
S1136FC09AB20D4B9A847B681C331B789AB20A4B95
S1136FD0DA837B6827331B7803F01F03DAB2064B8E
S1136FE09A75054B9A7D044B5A75084B01221A7009
S1136FF02837BD4680BD00BF580400108409001026
S1137000500A0010A40900108C0400109309001009
S113701080B500AFFFF74EF9044B054A1A6009200A
S1137020FFF7FEFA034B00221A7080BDAC09001072
S1137030996D00004E0A001080B592B000AF03466F
S1137040B9607A60FB7307F1140300221A600433F9
S113705000221A60043300221A60043300221A60EA
S1137060043300221A60043300221A60043300221D
S11370701A60043300221A60043300221A600433B5
S113708000221A60043300221A60043300221A60BA
S1137090043300221A8002337B68312B01D9312357
S11370A07B60FB7B3B7507F1140301331846B96819
S11370B07A6803F0A5FC07F1140305201946FDF7CF
S11370C003FA4837BD4680BD80B584B000AF786010
S11370D0554B1B889BB240F66412934214D1534B18
S11370E01B68C3F3130340F6354202FB03F2504B13
S11370F01B6813444F4A13604F4B40F666121A80C4
S11371004E4B01221A708BE0474B1B889BB240F612
S1137110661293427DD1454B1B68C3F3130340F6BB
S1137120354202FB03F2424B1B681344FB60414BA4
S11371301B68FA689A4205D2FB6803F1434303F5DE
S1137140A003FB603B4B1B68FA68D21A3C4BDB8BF9
S1137150194643F2D40303FB01F3D90F0B445B102C
S11371601344374AD28B114643F2D40202FB01F294
S1137170B3FBF2F3BB60BB68242B42D8314ABB6833
S113718013441A782E4B9A752D4BDB8B5B089AB2FD
S11371902B4B9A832A4B00221A84294B00229A6192
S11371A0264B00221A70264B9B7D5A1C264B82FBD1
S11371B0030153185911D317C91A0B46DB000B44AA
S11371C09B000B44D11ACAB21D4B5A751C4B0322A7
S11371D01A751B4B00221A611C4B03221A701C4B9C
S11371E01C4A1A6003201C490122FFF725FF1B4B90
S11371F01B78DBB2002B03D0194B28221A600FE056
S11372000EE00D4B40F664121A800C4B01221A70EA
S113721006E0094B40F664121A80084B01221A70EA
S11372201037BD4680BD00BF9C04001084090010C7
S113723008400040640A00109609001093090010E9
S11372405804001024AC0000A7C867DD92090010A0
S1137250AC090010996D00006E040010500A001073
S1137260A409001080B586B000AF7860334B1B686A
S1137270C3F3130340F6354202FB03F2304B1B68A1
S113728013447B612F4B1B687A699A4203D27A6953
S11372902D4B13447B612B4B1B687A69D31A3B61DA
S11372A03B6946F2A712934200D843E0274BD3F838
S11372B000213B699A4203D9244A3B69C2F8003150
S11372C0224BD3F8003103F5613303F25233204AE1
S11372D0A2FB03239B0CFB811E4BDB8BFA899A4296
S11372E01ED11A4BD3F804310133184AC2F80431C1
S11372F0164BD3F80431052B19D1174B174A1A60D2
S1137300174B40F664121A80164B04221A70164B5F
S113731001221A70022015490222FFF78DFE06E0B1
S11373200C4AFB89D383094B0022C3F80421054A84
S11373307B6913601837BD4680BD00BF8409001007
S113734008400040680A0010C0ABC6C2E40B00103D
S1137350C1A9199158040010AC090010C9700000AB
S11373609609001092090010930900107604001089
S113737080B584B000AF7860284B1B69002B49D1DD
S11373807B6804331B78012B44D17B6805331B785D
S1137390002B3FD17B6808331B781A047B680733C2
S11373A01B781B0213437A68063212781343BB60BE
S11373B07B680433B8681946022200F09FFE024637
S11373C0164B9A60154B0022DA600023FB6013E031
S11373D0124BDA68114B9968FB6821FA03F303F046
S11373E00101FB68C3F1170301FA03F313430B4ACA
S11373F0D360FB680133FB60FB68172BE8DD074BA8
S113740001221A61064B074A1A6001200649032229
S1137410FFF712FE1037BD4680BD00BF58040010B0
S1137420AC090010657200006004001080B487B0DD
S113743000AF78604FF0FF333B614FF0FF33FB60E8
S113744000237B6115E0224A7B6952F833207B6874
S11374509A420BD11E4A7B69DB0013445B685A1CB9
S11374601B497B69DB000B445A602CE07B690133C8
S11374707B617B691F2BE6DD00237B6115E0144AE9
S11374807B69DB0013445A683B699A4202DB3B691F
S1137490002B07DA7B69FB600D4A7B69DB00134430
S11374A05B683B617B6901337B617B691F2BE6DD94
S11374B00749FB687A6841F83320054AFB68DB001A
S11374C0134401225A601C37BD465DF8047B7047A3
S11374D0E40B001090B5A1B000AF786007F11C0375
S11374E0402218460021FCF747FE01233B77012385
S11374F087F82C30012387F82F30012387F83C309C
S1137500012387F83E30012387F84C30012387F8A4
S11375104E30012387F84F300023FB6741E0A74B2F
S11375201B889BB2DBB2623BDBB2184600F076FDEF
S113753003461A46A24B9B5C3B670023BB672AE0C9
S1137540FB6F1B0107F180021A44BB6F1344643BB9
S11375501A789C493B6F0B441B785340D9B2FB6F9C
S11375601B0107F180021A44BB6F1344643B0A46B3
S11375701A703B6F01331946934BA1FB0323C81ABE
S1137580400803449A091346DB019B1ACA1A3A6756
S1137590BB6F0133BB67BB6F0F2BD1DDFB6F0133B7
S11375A0FB67FB6F032BBADD2023FB67D5E0874B1A
S11375B007F10C040FCB84E80F004FF0FF33FB6698
S11375C00023BB6726E000237B671DE0FA6F7B6F17
S11375D013441A467B6813441A78BB6F1B0107F1E6
S11375E0800119447B6F0B44643B1B789A4208D09A
S11375F0BB6F9B0007F180021344002243F8742CF4
S113760005E07B6F01337B677B6F0F2BDEDDBB6F88
S11376100133BB67BB6F032BD5DD0023BB670EE0D3
S1137620BB6F9B0007F18002134453F8743C002B9A
S113763002D0BB6FFB6605E0BB6F0133BB67BB6F5A
S1137640032BEDDDFB6E002BC0F284805B4B1B88AB
S11376509BB2DBB2623BDBB2184600F0DFFC0346B0
S11376601A46574B9B5C3B670023BB674CE00023E7
S113767087F86B3000237B6739E0BB6FDA007B6FE0
S11376801A44FB6F1344203B3B663B6EB3F5487FC3
S113769000DB2FE03B6E7A6813441B787B66BB6F7C
S11376A0032B16DD474A3B6F13441B781A467B6E47
S11376B053407B663B6F01331946434BA1FB0323C5
S11376C0C81A400803449A091346DB019B1ACA1AD4
S11376D03A677A6E7B6F02FA03F3DAB297F86B308B
S11376E01343DBB287F86B307B6F01337B677B6FAF
S11376F0072BC2DD364B1A68BB6F134497F86B2017
S11377001A70BB6F0133BB67BB6F092BAFDD304B06
S11377101B6803331B78DBB21A062D4B1B6802333C
S11377201B78DBB21B041A43294B1B6801331B78FB
S1137730DBB21B021343264A12681278D2B21343F7
S1137740FB65F86DFFF772FE214B1B68012019469B
S1137750FCF7BAFEFB6F0133FB67FB6FB3F53C7FAD
S1137760FFF625AF0023FB6720E01A4AFB6FDB001E
S113777013445B68032B16DD164AFB6F52F8333053
S11377801846FEF77DFD144B144A1A60144B154A33
S11377901A60154B00221A61002013490422FFF7D6
S11377A04BFC002306E0FB6F0133FB67FB6F1F2BD1
S11377B0DBDD012318468437BD4690BD9C040010D0
S11377C0FCAB00007CAB0000110804021CB40000F8
S11377D054040010E40B0010A8090010B56B00005D
S11377E0AC090010717300005804001080B500AF9C
S11377F02CE0FEF7ABFD184B1B889BB203F0010392
S1137800002B03D0144B40F688121A80134BDB6B09
S1137810002B07D1FCF738FF114B124A1A600A20DB
S1137820FEF7A4FD104B1B78DBB20A2B00D012E04C
S113783000200A490422FFF7FFFB0C4B0C4A1A6094
S1137840064B00221A610A20FEF7EAFE064B1B785B
S1137850DBB20A2BCDD080BD9C040010580400106C
S1137860A8090010D57400004F0A0010AC090010DC
S11378707173000090B589B000AF354A3B1D1446C2
S113788020686168A26807C3A2891A800B23FB766B
S11378900023FB610EE0FB690233FA69C2F10502C1
S11378A02C498A5C07F120010B4403F81C2CFB696A
S11378B00133FB61FB69052BEDDD274BD968FB7EAA
S11378C03A1D084611461A4600F0D4FB7861FB7E47
S11378D07A69D2B207F120010B4403F81C2CFB7E19
S11378E001337A69120AD2B207F120010B4403F87A
S11378F01C2CFB7E02337A69120CD2B207F12001F0
S11379000B4403F81C2C1BE0144B4FF080721A60DC
S1137910124B4FF080621A60FB7E0333DAB23B1DD8
S11379200F4811461A46FEF759F90E4B4FF0807274
S11379301A600C4B4FF080621A606420FDF7BCFDA6
S1137940094B1B78DBB20C2BDED02437BD4690BD2F
S11379502CB400009C0900105804001080E100E0E1
S1137960D6BE898E00E100E04F0A001090B591B0B8
S113797000AF002387F83D30594B10221A6000F005
S11379809BFC584B80221A60122042F6223101F0EF
S11379904DFE142041F24B3101F048FE202040F20C
S11379A0011101F043FE0320292101F03FFE00BF35
S11379B001F0F4FE034603F04003002BF8D000BFAF
S11379C001F0ECFE034603F00403002BF8D17AE047
S11379D0454B1B88FB876FE0FB8F013B9BB202206A
S11379E0194601F023FE612001F0E2FE00BF01F020
S11379F0D5FE034603F00403002BF8D0622001F007
S1137A00D7FE4FF4FA737B6000BF7B68013B7B6059
S1137A10002BFAD197F83D2013465B001344FA8FEC
S1137A20120A92B2D2B207F140010B4403F8382C87
S1137A3097F83D2013465B0013440133FA8FD2B20A
S1137A4007F140010B4403F8382C97F83D20134606
S1137A505B0013449C1C062001F0D2FD03461B0A64
S1137A609BB2DAB207F14003234403F8382C97F8A9
S1137A703D30013387F83D3097F83D30102B0DD160
S1137A8007F1080304201946FCF71EFD002387F8BC
S1137A903D30164B1B68184600F0B4FC642001F01E
S1137AA087FE00BF01F07AFE034603F00403002BB7
S1137AB0F8D1FB8F0133FB87FA8F0D4B1B889BB2E8
S1137AC001339A4288DB0B4B1B78DBB2042B3FF467
S1137AD07FAF094B10221A604437BD4690BD00BFEA
S1137AE038C0092058C009209E04001084090010E1
S1137AF0A00400104F0A00103CC0092080B584B0D7
S1137B0000AF0023FB735A4A07F10803106818609A
S1137B1092889A80574B80221A60122042F62231B2
S1137B2001F084FD142041F24B3101F07FFD20204F
S1137B3040F2011101F07AFD0320292101F076FDC4
S1137B400620F12101F072FD00BF01F027FE03467B
S1137B5003F04003002BF8D000BF01F01FFE0346E2
S1137B6003F00403002BF8D179E0FB7B5B0007F101
S1137B701002134433F8083C013B9BB2022019461F
S1137B8001F054FD612001F013FE00BF01F006FE78
S1137B90034603F00403002BF8D0622001F008FE32
S1137BA04FF4FA737B6000BF7B68013B7B60002B62
S1137BB0FAD1062001F024FD03461B0A9BB2BB73D5
S1137BC02D4B1B78DBB297F90E205BB29A4215DD80
S1137BD0FB7B012B09D0022B0BD0002B00D021E022
S1137BE0264B4FF480721A6007E0244B10221A606F
S1137BF003E0224B02221A6000BF13E0FB7B012B3F
S1137C0008D0022B0AD0002B0CD11D4B4FF48072EC
S1137C101A6007E01A4B10221A6003E0184B022284
S1137C201A6000BFFB7B5A1C164B83FB0231D3172F
S1137C30C91A0B465B000B44D11A0B46FB73124B5B
S1137C401B68184600F0DEFB642001F0B1FD00BFA4
S1137C5001F0A4FD034603F00403002BF8D10B4B01
S1137C601B78DBB2072B80D01037BD4680BD00BF28
S1137C703CB4000058C00920A204001038C00920F8
S1137C803CC0092056555555840900104F0A001070
S1137C9080B500AF01F0EEFBFDF71CFB3D4800F0A2
S1137CA0E3FA3D4B1B68184600F0ACFB3B4B1B78DA
S1137CB0DAB23B4B1B78DBB29A426AD0374B1B7863
S1137CC0DBB20D2B64D801A252F823F08B7D0000A7
S1137CD0117D0000917D00003F7D00006B7D000060
S1137CE04F7D0000637D0000717D0000217D000058
S1137CF02D7D0000337D0000057D0000397D0000EE
S1137D00777D0000012001F0ADFA01F05BFE40E058
S1137D10234B01221A7000F0CFFAFEF779F938E00C
S1137D201F4B08221A70FEF773F932E0FFF770F95F
S1137D302FE0FFF75BFD2CE0FFF79CFD29E0184BDB
S1137D4003221A701748184900F098FD21E0144BDB
S1137D5005221A70144800F073FB104B00221A70AD
S1137D6017E00F4B06221A7013E0FFF7FFFD10E037
S1137D70FFF7C4FE0DE00A4B0D221A700B4B1B7863
S1137D80DBB2184601F0BCF903E0FDF735FE00E074
S1137D9000BF86E775470000840900104F0A0010F1
S1137DA04E0A0010520A00109C040010510A0010E0
S1137DB080B485B000AFC7E900010023FB73002342
S1137DC0FB7310E0D7E9002312F1FF3243F1FF33D4
S1137DD0D7E9000102EA000203EA0103C7E900232C
S1137DE0FB7B0133FB73D7E900231343EAD1FB7B0D
S1137DF018461437BD465DF8047B704780B584B0DF
S1137E0000AF7A4BD3E900231346BB6078494FF0A7
S1137E1000024FF00003C1E900230023FB7314E0C8
S1137E20F87BFB7B5900734B83FB01235A11CB175F
S1137E30D21A13469B0013441B019B1ACA1AD2B2CE
S1137E406D4B1A54FB7B0133FB73FB7B4E2BE7D941
S1137E50BB68DB0DDBB203F01F03DAB2674B1A70A9
S1137E60BB68DB0CDBB203F00F03DAB2644B1A70AD
S1137E70BB681B09DBB203F01003DAB2BB68DB0892
S1137E80DBB203F00803DBB21344DAB2BB689B082D
S1137E90DBB203F00403DBB21344DAB2BB685B0861
S1137EA0DBB203F00203DBB21344DAB2BB68DBB229
S1137EB003F00103DBB21344DAB2524B1A70BB680D
S1137EC09B0A9BB2C3F308039AB24F4B1A80BB6858
S1137ED0DB09DBB203F04003DAB2BB689B09DBB217
S1137EE003F02003DBB21344DAB2BB685B09DBB2F4
S1137EF003F01003DBB21344DAB2BB681B09DBB234
S1137F0003F00803DBB21344DAB2BB68DB08DBB26C
S1137F1003F00403DBB21344DAB2BB689B08DBB2A0
S1137F2003F00203DBB21344DAB2BB685B08DBB2D2
S1137F3003F00103DBB21344DAB2344B1A70344B4E
S1137F401B78002B4FD0334B00221A700023FB7395
S1137F5014E0FB7B304AD35CDAB24FF000031046E6
S1137F601946FFF725FF03461A462A4B1B7813448C
S1137F70DAB2284B1A70FB7B0133FB73FB7B092BB2
S1137F80E7D90023FB710023FB7312E0FB7B59004C
S1137F90184B83FB01235A11CB17D21A13469B00AB
S1137FA013441B019B1ACA1A1346BB73FB7B013390
S1137FB0FB73FB7B4E2BE9D9BB7BDB08DBB21A4698
S1137FC0154B9B5C1A46BB7B03F0070342FA03F391
S1137FD003F00103002B06D0FB795A1CFA711946F1
S1137FE0054ABB7B53541037BD4680BDA810001012
S1137FF0F00C0010553AB267101100100B1100106C
S1138000B81000100C110010BA1000105F1100100D
S113801018100010B9100010C40B001080B485B003
S113802000AF0346FB71FB795B08FB71FB79002B06
S113803002D12523FB7315E0FB790B2B03D8FB79C5
S1138040013BFB730EE0FB790C2B02D12623FB735F
S113805008E0FB79262B03D8FB79023BFB7301E094
S11380602723FB73FB7B18461437BD465DF8047B5E
S1138070704700BF80B48BB000AFF860B9607A601D
S1138080FB6823F07F437B621B4B7B6100233B62D5
S113809027E03B6ABA6813441B78FB760023FB6134
S11380A019E0FA7E7B6A534003F001033B61FB7ED7
S11380B05B08FB767B6A5B087B623B69002B07D01D
S11380C07B6A43F400037B627A6A7B6953407B6278
S11380D0FB690133FB61FB69072BE2DD3B6A01337A
S11380E03B623A6A7B689A42D3DB7B6A18462C3738
S11380F0BD465DF8047B704700605A0080B48DB0C3
S113810000AFF860B9607A60FB68FB622B4BFB61DF
S11381107B68013B7B622DE07B6ABA6813441B7861
S1138120FB7600233B621FE0FB6ADB0D7B61FB6A8D
S11381305B0023F07F43FB62FA7E3B6AC3F10703D3
S113814042FA03F303F001027B6953401A46FB6AC7
S11381501343FB627B69002B03D0FA6AFB6953402B
S1138160FB623B6A01333B623B6A072BDCDD7B6AC3
S1138170013B7B627B6A002BCEDA0023BB620023C7
S11381807B6210E0FA6A7B6A22FA03F303F00102CD
S11381907B6AC3F1170302FA03F3BA6A1343BB629F
S11381A07B6A01337B627B6A172BEBDDBB6A184663
S11381B03437BD465DF8047B704700BF00C0B4008F
S11381C080B489B000AFF860B9607A60FB6823F0CE
S11381D07F43FB610023BB6112E0BB69BA681344AF
S11381E01A78FB69DBB25340FB75FB691A0AFB7D05
S11381F0094951F823305340FB61BB690133BB612A
S1138200BA697B689A42E8DBFB6918462437BD46A5
S11382105DF8047B704700BFAC04001090B587B0D4
S113822000AFF860B9607A60FB685B883B82FB68EA
S11382309B887B820B4B1C68FB6859787B681B68A6
S113824007F11002084611461A46BB68A047786138
S11382507B69012B0CBF01230023DBB218461C37BA
S1138260BD4690BD6432001080B582B000AF786026
S113827001F00EFD0B4802F06DF90B4A7B681360A8
S113828002200A490A4A01F0DFFCFF20094902F0F2
S11382900BF9012001F03EFE002318460837BD46C5
S11382A080BD00BF44B40000643200101D82000091
S11382B06031001008B5000080B500AF064B002205
S11382C01A60064B00221A60054800214FF4005240
S11382D0FBF752FF80BD00BF6C0A0010700A00104B
S11382E06011001080B483B000AF134B1B68DBB285
S11382F003F07F03FB71114B1B68DBB203F07F03B8
S1138300BB71BB790133DBB203F07F037B71FA7974
S11383107B799A4201D1002308E0084B1B680133A2
S1138320064A1360BB799B01054A134418460C376F
S1138330BD465DF8047B70476C0A0010700A00109B
S11383406011001080B483B000AF104B1B68DBB227
S113835003F07F03FB710E4B1B68DBB203F07F035A
S1138360BB71FA79BB799A4201D1002308E0074B2B
S11383701B680133054A1360FB799B01054A1344CA
S113838018460C37BD465DF8047B70476C0A001034
S1138390700A00106011001080B584B000AF7860DE
S11383A007F10C031846FFF7CDFF0346FB60FB689B
S11383B0002B0AD0114A7B681360FB68822019469F
S11383C0402201F003FE012313E00C4B1B687A6882
S11383D0D31A0B4A93420BD90323FB72074A7B68D7
S11383E0136007F10B0382201946012201F0EEFD10
S11383F0002318461037BD4680BD00BF740A001024
S1138400801A060080B584B000AF7860822001F045
S1138410A1FD0346FB73FB7B03F02003002B02D179
S11384207868FFF7B9FFFB7B03F04003002B02D110
S11384307868FFF7B1FF01F08FFE1037BD4680BDAD
S11384402DE9F04F95B000AF786069463960162188
S113845087F84610002187F8471097F846603146A0
S113846001393964F0B24FF000014FEAC10B4BEA15
S1138470507B4FEAC00AF0B24FF000014FEAC10945
S113848049EA50794FEAC00831460731C908C900A2
S1138490ADEB010D69460031F96397F8466031464A
S11384A00139B963F0B24FF00001CD0045EA5075CF
S11384B0C400F0B24FF00001CB0043EA5073C20095
S11384C033460733DB08DB00ADEB030D6B460033AB
S11384D07B6397F84630013BDAB2FB6B1A70FB6B97
S11384E000225A703A233B62B34B1B6807F1200108
S11384F007F10C02084611469847FB68DBB2002BD3
S113850001D00023ACE13B691B0EDAB2FB6B9A701D
S11385103B691B0CDAB2FB6BDA703B691B0ADAB2FB
S1138520FB6B1A713B69DAB2FB6B5A717B691B0EE8
S1138530DAB2FB6B9A717B691B0CDAB2FB6BDA71F2
S11385407B691B0ADAB2FB6B1A727B69DAB2FB6BCA
S11385505A72BB691B0EDAB2FB6B9A72BB691B0CB5
S1138560DAB2FB6BDA72BB691B0ADAB2FB6B1A7301
S1138570BB69DAB2FB6B5A73FB691B0EDAB2FB6B95
S11385809A73FB691B0CDAB2FB6BDA73FB691B0A87
S1138590DAB2FB6B1A74FB69DAB2FB6B5A74FB6BCD
S11385A097F847209A74FB6B0022DA74FB6BFF2266
S11385B01A75FB6BFF225A75122042F6223101F024
S11385C035F8142041F24B3101F030F8202040F608
S11385D0F15101F02BF87B681B889BB202201946ED
S11385E001F024F82D204FF6AE1101F01FF82C20D5
S11385F041F2845101F01AF897F8473043F0080328
S1138600DBB29BB20520194601F010F803202921A2
S113861001F00CF800BF01F0C1F8034603F0400379
S1138620002BF8D0612001F0C3F800BF01F0B6F8C8
S1138630034603F00403002BF8D0604B4FF4807220
S11386401A605F4B80221A60002387F847303EE0AF
S113865097F8473043F00803DBB29BB20520194674
S113866000F0E4FFFB6B97F847209A740023FB6447
S113867025E0FB6CDAB2FB6BDA7400BF0E2000F06D
S1138680BFFF034603F01F030F2BF7D10023BB6486
S11386900AE0FA6BBB6C13441B787020194600F097
S11386A0F3FFBB6C0133BB6497F84620BB6C9A4262
S11386B0EFDC632001F07CF8FB6C0133FB64FB6CA2
S11386C00F2BD6DD97F84730013387F8473097F8FA
S11386D04730072BBCD900BF0E2000F091FF0346A2
S11386E003F01F030F2BF7D1364B4FF480721A603F
S11386F0642001F05DF800BF01F050F8034603F078
S11387000403002BF8D17B681B889BB2013B9BB20E
S11387100220194600F08AFF00BF01F03FF803462B
S113872003F04003002BF8D0612001F041F800BFB2
S113873001F034F8034603F00403002BF8D01F4B78
S113874010221A6000BF0E2000F05AFF034603F007
S11387501F030F2BF7D1622001F02AF800BF01F0AC
S11387601DF8034603F01003002BF8D0134B02222C
S11387701A600023BB640CE0702000F06BFF03461A
S113878019467A6BBB6C13440A461A70BB6C0133EE
S1138790BB6497F84620BB6C9A42EDDC00F0FEFF08
S11387A0034603F00803002B01D000BF0CE0054B87
S11387B002221A60C6E700BFAC08001038C00920C6
S11387C058C009203CC009200E2000F019FF0346C0
S11387D003F01F030F2BF7D1642000F0E9FF00BF63
S11387E000F0DCFF034603F00403002BF8D1204B18
S11387F080221A601F4B10221A601F4B01221A702C
S11388007B6B9A7C1C4B5A707B6BDA7C1A4B9A708C
S11388107B6B1A7D184BDA707B6B5A7D164B1A7181
S1138820FB6B01225A700023FB6412E07A6BFB6C31
S113883013441A78F96BFB6C0B441B789A4205D0ED
S1138840FB6CDBB20233DAB20B4B1A70FB6C0133F4
S1138850FB64FB6C112BE9DD064B02221A60012339
S1138860D7F800D0012B5437BD46BDE8F08F00BFC8
S11388705CC009203CC009206010001080B588B09D
S113888000AF786039605B4A07F1080310685168EB
S113889003C3127A1A707B681B78DBB2002B02D1F7
S11388A02923FB8207E07B681B78DBB2012B40F0B5
S11388B09D804023FB820D2047F6FF7100F0B6FE39
S11388C0122042F6223100F0B1FE142041F24B3165
S11388D000F0ACFE20204FF4766100F0A7FE3B6868
S11388E01B889BB20220194600F0A0FE0320402101
S11388F000F09CFE23200B2100F098FE082000F0DD
S11389007FFE0346BB82BB8AC3F308039BB243F4D6
S11389109C439BB29BB20820194600F087FE00BF1F
S113892000F03CFF034603F04003002BF8D0612025
S113893000F03EFF00BF00F031FF034603F00403E4
S1138940002BF8D02C4B4FF480721A602B4B8022F2
S11389501A600023FB6125E000BF0E2000F050FEEA
S1138960034603F01F030F2BF7D142F21073BB61D0
S1138970BB69013BBB61BB69002BF9D1632000F0EB
S113898017FF00BF1E4B1B6803F00403002BF9D133
S113899007F10803702009211A4600F089FEFB69DB
S11389A00133FB61FB69B3F57A7FD5DB00BF0E2091
S11389B000F026FE034603F01F030F2BF7D1114BE3
S11389C04FF480721A60642000F0F2FE00BF00F0E1
S11389D0E5FE034603F00403002BF8D10A4B802282
S11389E01A60BB8A0820194600F020FE2037BD46D5
S11389F080BD00BF30B5000038C0092058C0092030
S1138A0054C009203CC009205CC0092080B400AFD8
S1138A10084B4FF080521A60074A074B1B6843F01B
S1138A2002031360054B4FF080521A60BD465DF897
S1138A30047B704798C00920040003409CC00920AF
S1138A4080B400AF064B4FF080521A60054A054BC4
S1138A501B6823F002031360BD465DF8047B704776
S1138A6098C009200400034080B500AF034B4FF0C9
S1138A7080721A6000F008FD80BD00BF00E100E0D4
S1138A8080B500AF642000F093FEFFF7D9FF024BDE
S1138A904FF080721A6080BD80E100E080B500AFC5
S1138AA00D2047F6FF7100F0C1FD122042F622317D
S1138AB000F0BCFD142041F24B3100F0B7FD202042
S1138AC04FF4986100F0B2FD1E4B1B889BB2013B32
S1138AD09BB20220194600F0A9FD0320262100F0D4
S1138AE0A5FD2120032100F0A1FD2D2046F20F3128
S1138AF000F09CFD2C2049F6FE7100F097FD00BFAC
S1138B0000F04CFE034603F04003002BF8D0FFF7BF
S1138B107DFF612000F04CFE00BF00F03FFE0346E5
S1138B2003F00403002BF8D000BF0E2000F068FD12
S1138B30034603F01F030F2BF7D1622000F038FE29
S1138B4080BD00BF9C04001080B485B000AF786085
S1138B500023FB6011E000BF0C4B1B6803F004030F
S1138B60002BF9D00A4B1B68D9B27A68FB6813440E
S1138B700A461A70FB680133FB60FB68232BEADDAD
S1138B801437BD465DF8047B704700BF0C000340FA
S1138B900800034080B500AF00F000FE034603F078
S1138BA01003184680BD00BF80B483B000AF786066
S1138BB039600C4B1B68C3F3130340F6354202FBC8
S1138BC003F2094B1B681A447B689A603B6842F2C3
S1138BD0107202FB03F27B68DA600C37BD465DF865
S1138BE0047B7047840900100840004080B483B0BF
S1138BF000AF786039607B689A697B689A603B68EB
S1138C0042F2107202FB03F27B68DA600C37BD4655
S1138C105DF8047B704700BF80B485B000AF786016
S1138C20134B1B68C3F3130340F6354202FB03F2F4
S1138C30104B1B681344FB607B689A68FB689A427C
S1138C4005D9FB6803F1434303F5A003FB607B688C
S1138C509B68FA68D21A7B68DB689A422CBF0123AE
S1138C600023DBB218461437BD465DF8047B704719
S1138C70840900100840004080B483B000AF7860DD
S1138C800C37BD465DF8047B704700BF80B483B0E9
S1138C9000AF78607B6800225A607B685B68064A94
S1138CA032F81320054B1A807B6801221A700C37A6
S1138CB0BD465DF8047B7047B40800109C040010A6
S1138CC080B582B000AF7860FFF7E8FE7B680222CF
S1138CD01A700837BD4680BD80B58CB000AF78608F
S1138CE007F1080300221A60043300221A600433D7
S1138CF000221A60043300221A60043300221A602E
S1138D00043300221A60043300221A600433002260
S1138D101A60043300221A60043300221A600433F8
S1138D20234B1B68C3F3130340F6354202FB03F2E3
S1138D30204B1B681344FB627868FFF76DFF034602
S1138D40002B06D078680421FFF72EFF7B680322EE
S1138D501A70FFF71FFF0346002B19D0164B102281
S1138D601A6007F108031846FFF7EEFEFB6A07F1E5
S1138D700802062011461A46FBF742FC0F4B10224C
S1138D801A6078680621FFF70FFF7B6803221A70C8
S1138D907B681B78022B07D0642000F009FDFFF7E5
S1138DA04FFE7B6801221A613037BD4680BD00BF8B
S1138DB0840900100840004038C009203CC0092044
S1138DC080B582B000AF78607868FFF725FF03466E
S1138DD0002B1ED07B685B685A1C0F4B1340002B82
S1138DE003DA013B63F0030301331A467B685A60DC
S1138DF07B685B68094A32F81320094B1A8078684B
S1138E000721FFF7D1FE7B6801221A617B680122EA
S1138E101A700837BD4680BD03000080B4080010F6
S1138E209C04001080B483B000AF78607B6801229A
S1138E301A700C37BD465DF8047B704780B58CB062
S1138E4000AF786007F1080300221A60043300229F
S1138E501A60043300221A60043300221A600433B7
S1138E6000221A60043300221A60043300221A60BC
S1138E70043300221A60043300221A6004330022EF
S1138E801A6004331E4B1B68C3F3130340F63542C8
S1138E9002FB03F21B4B1B681344FB62FFF77AFED1
S1138EA00346002B29D0184B10221A6007F108033F
S1138EB01846FFF749FEFB6A07F10802062011462F
S1138EC01A46FBF79DFB114B10221A60612000F03B
S1138ED06FFC00BF00F062FC034603F00403002BA8
S1138EE0F8D000BF0E2000F08BFB034603F01F03F5
S1138EF00F2BF7D1622000F05BFC3037BD4680BDFC
S1138F00840900100840004038C009203CC00920F2
S1138F1080B582B000AF7860FFF73CFE0346002BBB
S1138F2012D07B6804221A707B6801225A61164BA6
S1138F301B68C3F3130340F6354202FB03F2134BE1
S1138F401B681A447B689A617B681B69002B0FD0ED
S1138F507868FFF761FE0346002B09D07B68042282
S1138F601A707B6800225A6178680B21FFF71CFE97
S1138F707B681B78022B04D0642000F019FCFFF7F7
S1138F805FFD0837BD4680BD8409001008400040DD
S1138F9080B582B000AF78600D2047F6FF7100F015
S1138FA045FB122042F6223100F040FB142043F22C
S1138FB04B3100F03BFB20204FF4986100F036FB6E
S1138FC0214B1B889BB20220194600F02FFB032083
S1138FD0262100F02BFB2120032100F027FB052094
S1138FE00F2100F023FB00BF00F0D8FB034603F081
S1138FF04003002BF8D0612000F0DAFB00BF00F042
S1139000CDFB034603F00403002BF8D000BF0E2071
S113901000F0F6FA034603F01F030F2BF7D10B4BB6
S113902080221A60632000F0C3FB094B4FF4807266
S11390301A607B6805221A7078680221FFF7D6FD52
S11390400837BD4680BD00BF9C04001058C00920ED
S113905038C0092080B582B000AF78607868FFF727
S1139060DBFD0346002B25D0642000F0A1FB134B4D
S113907080221A60124B4FF480721A607B685B681E
S11390805A1C104B1340002B03DA013B63F003031B
S113909001331A467B685A607B685B680A4A32F877
S11390A013200A4B1A807B6803221A707868062101
S11390B0FFF79CFD0837BD4680BD00BF5CC009209A
S11390C03CC0092003000080B40800109C04001078
S11390D080B582B000AF78607868FFF79DFD0346E5
S11390E0002B09D07B6801221A707B6801221A6167
S11390F078680B21FFF77AFD0837BD4680BD00BFB5
S1139100B0B59EB000AF0346FB7107F158030022CF
S11391101A60043300221A60043300221A600433F4
S113912000221A60043300221A60043300221A60F9
S1139130043300221A600433264B07F13C041D4615
S11391400FCD0FC495E8070084E80700224B07F110
S113915024041D460FCD0FC495E8030084E80300E2
S11391601E4B07F10C041D460FCD0FC495E80300F8
S113917084E80300FB79012B07D0022B09D0002BD4
S11391800BD107F13C037B670BE007F124037B67FA
S113919007E007F10C037B6703E0114B00221A7010
S11391A015E0FFF761FC0E4B1B78DBB20D2B03D0EF
S11391B000BFFFF765FC0AE097F858309B007A6F10
S11391C013441B6807F1580210469847EBE77837B9
S11391D0BD46B0BD3CB5000058B5000070B50000F8
S11391E04F0A001080B500AF00F0B6FF80BD00BF8D
S11391F080B582B000AF124B7B60124B3B6007E03E
S11392003B681A1D3A607A68111D796012681A6009
S11392103B680D4A9342F3D30C4B7B6004E07B68BC
S11392201A1D7A6000221A607B68094A9342F6D3B9
S1139230FAF77AFF074B084A1A60FEF729FDFEE7A2
S1139240D8B5000020000010620900106809001061
S11392506832001008ED00E00040000080B400AF68
S1139260FEE700BF80B582B000AF0346FB71FB7917
S1139270044A02FB03F3184600F018F80837BD4609
S113928080BD00BF40420F0080B485B000AF78605D
S11392900023FB607B6893FAA3F3FB60FB6818462A
S11392A01437BD465DF8047B704700BF80B483B0BB
S11392B000AF78607B689A087B68DB081A447B6897
S11392C09B091A447B68DB091A447B689B0A1A448D
S11392D07B68DB0A1344074A136000BF054B1B6815
S11392E0013B044A1360002BF8D10C37BD465DF8EE
S11392F0047B7047780A001080B500AF00F036F8A0
S1139300104B00221A60104B4CF212721A600F4B71
S113931040F2B1121A600E4B00221A600D4B4FF04E
S113932040521A600C4B00221A600C4B00221A6047
S11393300B4B00221A600B4B00221A600A4B0022CE
S11393401A6080BD00C0092020C0092040C0092047
S113935060C0092080C0092014C0092034C009203D
S113936054C0092074C0092094C0092080B400AFFF
S1139370274B00221A60274B00221A60264B00223A
S11393801A60264B00221A60254B00221A60254BD6
S113939000221A60244B00221A60244B00221A6017
S11393A0234B00221A60234B00221A60224B002216
S11393B01A60224B00221A60214B00221A60214BB2
S11393C000221A60204B00221A60204B00221A60EF
S11393D01F4B00221A601F4B00221A601E4B0022F2
S11393E01A601E4B00221A601D4B00221A601D4B8E
S11393F000221A601C4B00221A601C4B00221A60C7
S11394001B4B00221A60BD465DF8047B704700BF09
S113941000C0024004C0024008C002400CC0024028
S113942010C002401CC0024024C0024028C00240B8
S113943000C0092020C0092040C0092060C00920C4
S113944080C0092040C0024044C0024048C00240DD
S11394504CC0024050C002405CC0024064C00240A4
S113946014C0092034C0092054C0092074C0092044
S113947094C0092080B500AFFFF73EFF00F060F80C
S113948000F0C2F980BD00BF80B400AF164A164B8D
S11394901B6823F4404343F400431360124A124B05
S11394A01B6823F4405343F4005313600E4A0E4BDD
S11394B01B6823F4403343F4003313600A4A0A4B15
S11394C01B6823F4402343F400231360074B4FF03D
S11394D080521A60064BC7221A60064B0C221A608F
S11394E0BD465DF8047B704700C0024098C0092067
S11394F0000003400400034080B400AF0D4A0D4B4C
S11395001B6823F4701313600B4A0B4B1B6823F086
S1139510C0631360094A094B1B6843F420131360AA
S1139520064A064B1B6823F4A0131360BD465DF87E
S1139530047B704704C0024000C0092044C00240BC
S113954080B500AFFFF7D8FF094B4FF400721A60E3
S11395503220FFF7ABFE074B20221A60044B4FF476
S113956080421A600D2047F6FF7100F05FF880BD5D
S113957038C0092058C0092080B485B000AF034624
S11395803960FB71FB79013B012202FA03F3FB60B2
S1139590184B20221A601EE03A68FB681340002B27
S11395A003D0154B01221A6002E0124B01221A600B
S11395B03B685B003B60104B10221A600F4B1B682A
S11395C003F00203002B03D03B6843F001033B602C
S11395D0084B10221A60FB795A1EFA71002BDBD15A
S11395E0054B20221A603B6818461437BD465DF8C7
S11395F0047B70475CC0092058C0092054C009206E
S113960080B584B000AF0346FB71FB7963F07F0340
S1139610DBB21B04FB601820F968FFF7ADFFB860EC
S1139620BB689BB218461037BD4680BD80B584B078
S113963000AF03460A46FB711346BB80FB791A044C
S1139640BB881343FB601820F968FFF795FF1037B8
S1139650BD4680BD80B584B000AF0346FB71FB7985
S113966063F07F03DBB29BB21B02FB81FB891020FA
S11396701946FFF781FF0346BB81BB89DBB218465D
S11396801037BD4680BD00BF80B584B000AF03462F
S11396900A46FB711346BB71FB791A02BB7913436B
S11396A0FB601020F968FFF767FF1037BD4680BDE7
S11396B080B485B000AF03463A60FB710B46BB71C2
S11396C080233B73334B20221A600023FB7318E082
S11396D0FA793B7B1340DBB2002B03D02E4B0122E3
S11396E01A6002E02B4B01221A60FB795B00FB71CC
S11396F0294B10221A60274B10221A60FB7B01337E
S1139700FB73FB7B072BE3D90023FB7326E0FB7B76
S11397103A6813441B787B730023BB7318E07A7B8D
S11397203B7B1340DBB2002B03D01B4B01221A609E
S113973002E0184B01221A607B7B5B007B73164BA3
S113974010221A60134B10221A60BB7B0133BB73C7
S1139750BB7B072BE3D9FB7B0133FB73FA7BBB7920
S11397609A42D4D30023FB7308E00B4B10221A60F7
S1139770084B10221A60FB7B0133FB73FB7B072B26
S1139780F3D9054B20221A601437BD465DF8047BDB
S1139790704700BF5CC0092058C0092080B500AFE5
S11397A008200021FFF7E8FE0346DBB2184680BD1F
S11397B080B582B000AF0346FB71FB7908201946DF
S11397C0FFF7DAFE0346DBB218460837BD4680BD14
S11397D080B500AF00200021FFF728FF00BF002064
S11397E0FFF70EFF0346002BF9D100204FF4004190
S11397F0FFF71CFF00BF0020FFF702FF0346B3F58D
S1139800004FF8D180BD00BF80B500AF5E4B44F27D
S11398103A021A605D4B00221A605D4A5C4B1B6879
S113982023F0020313605B4BAA221A60594B5522A2
S11398301A6000BF584B1B6803F00073002BF9D16A
S1139840534A534B1B6823F001031360514BAA2264
S11398501A60504B55221A6000BF4F4B1B6803F02F
S11398608073002BF9D14D4B00221A60FFF7B0FF33
S1139870082041F27051FFF7D9FE6020FFF798FFEE
S113988000BFFFF78BFF034603F04003002BF8D023
S1139890434B20221A6000BF414B1B6803F0400376
S11398A0002BF9D03F4B08221A603F4B00221A606C
S11398B0364B01221A603D4B3D4A1A60354BAA22B1
S11398C01A60344B55221A60314A314B1B6843F0FD
S11398D0010313602F4BAA221A602E4B55221A60E3
S11398E000BF2D4B1B6803F08073002BF9D02B4B6A
S11398F003221A60264A264B1B6843F002031360B6
S1139900244BAA221A60234B55221A6000BF224B13
S11399101B6803F00073002BF9D0264B22221A6037
S1139920254BAA221A60244B55221A60234A234B42
S11399301B6843F0010313601F4BAA221A601E4BDD
S113994055221A6000BF1E4B1B6803F48073002B62
S1139950F9D000BF1A4B1B6803F48063002BF9D0C5
S1139960164A164B1B6843F002031360124BAA22DB
S11399701A60114B55221A6000BF114B1B6803F487
S11399800073002BF9D080BD00C00F400CC10F4004
S113999080C00F408CC00F4088C00F4004C10F40EE
S11399A0A0C10F40A8C10F40ACC10F4084C00F40FC
S11399B018000100A4C00F40ACC00F40A0C00F406D
S11399C0A8C00F4080B500AFFFF7D0FC0A4B0222BD
S11399D01A604FF080424FF080431B6843F003034A
S11399E01360064BAA221A60044B55221A60012008
S11399F0FFF738FC80BD00BF3CC0092008000040D0
S1139A0080B588B000AFF860B9607A60FB681B78F5
S1139A105B09DBB203F00303FB61FB69022B0ED18C
S1139A2000237B6107F11403F8681946BA687B6860
S1139A3000F0D2FC0346002B01D07B690FE00A4AF8
S1139A40FB6952F82330BB61BB69002B01D10023B1
S1139A5005E0BB69F868B9687A6898470346184610
S1139A602037BD4680BD00BF900A001080B584B089
S1139A7000AF0346FB718020012100F083FA074BFD
S1139A80BB600023FB6002E0FB680133FB60FB6802
S1139A90072BF9DD1037BD4680BD00BF7C0A0010DE
S1139AA080B582B000AF0E4B1B68402BA8BF40238B
S1139AB07B600C4B1A687B68802011461A4600F0C4
S1139AC085FA084B1A687B681344064A1360044BF2
S1139AD01A687B68D31A024A13600837BD4680BDF2
S1139AE0880A0010840A001080B584B000AF0346D1
S1139AF00A46FB711346BB71FB79002B40F0918041
S1139B00BB7903F00403002B41D00020494908220B
S1139B1000F0AAFA474B1B785B09DBB203F003039E
S1139B20FB60454AFB6852F82330444A1360414BBA
S1139B30DB881A46424B1A603E4BDB881A46414B7F
S1139B401A603C4BDB88002B07D03A4B1B78DB09AF
S1139B50DBB203F00103002B68D036483949374A99
S1139B60FFF74EFF0346002B04D1BB791846FFF7DD
S1139B707DFF5BE02F4BDB881A46324B1B68934218
S1139B80A8BF13462E4A1360FFF78AFF4EE02C4B02
S1139B901B68002B3EDD294B1A68294B1B680020EB
S1139BA011461A4600F060FAB860BB68002B04DA6C
S1139BB0BB791846FFF75AFF38E0204B1A68BB6898
S1139BC013441E4A13601E4B1A68BB68D31A1C4AFE
S1139BD013601B4B1B68002B28D1164B1B785B09A9
S1139BE0DBB203F00303FB60134AFB6852F8233033
S1139BF0124A13600F481349104AFFF701FF034646
S1139C00002B04D1BB791846FFF730FF0EE0FFF7B5
S1139C1047FF0BE000200021002200F025FAB86085
S1139C2004E0FB79802B01D1FFF73AFF1037BD46E2
S1139C3080BD00BF7C0A0010A00A0010840A001036
S1139C40880A00108C0A001080B485B000AFF86058
S1139C50B9607A600749FB68BA6841F8232006496D
S1139C60FB687A6841F823201437BD465DF8047B0D
S1139C70704700BF900A0010A00A001080B483B09F
S1139C8000AF0346FB710C37BD465DF8047B70479B
S1139C9080B500AF00F02AFB0D4800F013F9002056
S1139CA00C4900F0DDF880200A4900F0D9F80020C2
S1139CB0402100F0B7F88020402100F0B3F80020E4
S1139CC00549064AFFF7C0FF0123184680BD00BFBF
S1139CD07D9C0000E99A000025A90000B00A00104C
S1139CE080B483B000AF786000BF074B1A687B680C
