S0160000626C7565746F6F74685F727874782E7372656303
S1134000E03F001071A50000DDA50000DDA5000063
S1134010DDA50000DDA50000DDA500000000000016
S1134020000000000000000000000000DDA500000A
S1134030DDA5000000000000DDA50000DDA50000F6
S1134040DDA500009D560000DDA50000DDA50000F3
S1134050DDA50000DDA50000DDA50000DDA5000054
S1134060DDA50000DDA50000DDA50000DDA5000044
S1134070DDA50000DDA50000DDA50000DDA5000034
S1134080DDA50000DDA50000DDA50000DDA5000024
S1134090DDA50000B9570000DDA50000DDA5000086
S11340A065A50000DDA50000815C0000DDA5000021
S11340B0DDA50000DDA50000DDA50000DDA50000F4
S11340C0DDA50000DDA50000DDA5000010B5054C50
S11340D0237833B9044B13B10448AFF300800123B0
S11340E0237010BD60090010000000002CD10000F6
S11340F0084B10B51BB108480849AFF300800848C5
S1134100036803B910BD074B002BFBD0BDE810407A
S1134110184700BF000000002CD100006409001003
S1134120600900100000000070B50F4E0F4D761BA3
S1134130B61018BF002405D0013455F8043B984745
S1134140A642F9D10A4E0B4D08F0F0FF761BB610CB
S113415018BF002406D0013455F8043B9847A64202
S1134160F9D170BD70BD00BF38D1000038D1000056
S113417040D1000038D1000070B4840746D0541EEA
S1134180002A41D0CDB2034602E0621EE4B31446D5
S113419003F8015B9A07F8D1032C2ED9CDB245EA76
S11341A005250F2C45EA054519D9264603F11002C9
S11341B0103E0F2E42F8105C42F80C5C42F8085C8A
S11341C042F8045C02F11002F2D8A4F1100222F0C9
S11341D00F0204F00F041032032C13440DD91E46B1
S11341E02246043A032A46F8045BFAD8221F22F036
S11341F003020432134404F003042CB1C9B21C4476
S113420003F8011BA342FBD170BC7047144603465C
S1134210C2E700BF024B13B1024800F005B8704773
S1134220000000003542000001460020024603461B
S113423000F016B838B5084B084DED1AAC1018BF8D
S1134240ED1805D0013C55F8043D9847002CF9D1F0
S1134250BDE8384008F074BF4CD1000050D10000D4
S11342602DE9F047254C064625688846D5F848418F
S113427092469946C4B360681F2817DC411C76B186
S113428004EB8003C3F888A0D4F88851012282404B
S11342901543022EC4F88851C3F808911ED0831C1C
S11342A06160002044F82380BDE8F087144B03B319
S11342B04FF4C870AFF300800446D0B1D5F848314C
S11342C0002784E888003846C5F848410121C4F82D
S11342D08871C4F88C71002EE1D0D1E7D4F88C3108
S11342E01A43C4F88C21DAE705F5A674C5F84841E9
S11342F0C1E74FF0FF30BDE8F08700BFA0C6000063
S11343000000000080B400AF074B00221A70074B76
S113431000221A60064B80221A70064B7F221A7004
S1134320BD465DF8047B7047490A00104C0A001032
S11343300C0B0010C00B001080B483B000AF034618
S1134340FB71144B1B785AB297F907309342B8BFEC
S11343501346DAB20F4B1A700F4B1B785AB297F907
S113436007309342A8BF1346DAB20B4B1A7097F981
S113437007301A02094B1B681344084A1360084BA0
S11343801B780133DAB2064B1A700C37BD465DF860
S1134390047B70470C0B0010C00B00104C0A00107B
S11343A0490A001080B485B000AF1F4B1B78002B66
S11343B006D01E4B1B889BB2A3F66213FB6001E080
S11343C00023FB601A4B1B78002B08D0194B1B6889
S11343D08033174A127893FBF2F3BB6001E00023A9
S11343E0BB60154AFB6832F813301AB213469B01BE
S11343F09B1A9B0013447B60BA6813465B0013440A
S11344007A6813447B607B688033002B00DAFF33C7
S11344101B1299B2084AFB6822F813101437BD46E0
S11344205DF8047B704700BF7C0900109C040010F9
S1134430490A00104C0A0010A009001080B582B08F
S113444000AF03460A46FB711346BB7197F9073068
S113445013F1140F0DD097F9073013F1130F08DA85
S113446097F907306FF077029342B8BF1346DBB277
S113447000E0EC23FB71FB793833DBB29BB203F031
S1134480FC039AB2BB799BB203F003039BB21343C0
S11344909BB29BB20620194606F088FA084AFB79BB
S11344A0137097F9073013F1770FB4BF012300237A
S11344B0DBB21A46034B1A700837BD4680BD00BFF5
S11344C04D0400107E09001080B588B000AF03468B
S11344D03960FB7105F002F8F861FB69002B09D122
S11344E0524B1B78DBB243F00403DAB24F4B1A7021
S11344F0002397E0FB69FA791A70FB79042B13D136
S11345004B4B1B681B0DDAB2FB69DA70484B1B6816
S1134510C3F3130340F6354202FB03F2454B1B6819
S11345201A44FB695A6008E0434B1B68DAB2FB6922
S1134530DA70424B1A68FB695A60414B1B889BB284
S1134540DBB2623BDAB2FB699A703E4B1B78DAB29B
S1134550FB695A723C4B1B78DAB2FB691A723B4B0B
S11345601A78FB691A733A4B1B683A4A127893FB20
S1134570F2F3DAB2FB699A72374B02221A60FB69D2
S11345800E33BB613B687B617B691A68BB691A6047
S1134590BB6904337A6952681A60BB6908337A6963
S11345A092681A60BB690C337A69D2681A60BB6975
S11345B010337A6912691A60BB6914337A695269D3
S11345C01A60BB6918337A6992691A60BB691C3333
S11345D07A69D2691A60BB6920337A69126A1A60EF
S11345E0BB6924337A69526A1A60BB6928337A69D1
S11345F0926A1A60BB692C337A69D26A1A60FB69C1
S11346000E333B613B68FB603B693033FA68128EC2
S11346101A80064B1B78DAB2FB695A70034B0022EE
S11346201A70012318462037BD4680BD480A001081
S1134630EC0B0010084000403C100010D00B0010A0
S113464088090010C00B00100C0B0010F00B0010B8
S11346504C0A0010490A001038C0092080B588B0FF
S113466000AF03463960FB7104F038FFF861FB6961
S1134670002B09D13D4B1B78DBB243F00403DAB2C3
S11346803A4B1A7000236DE0FB69FA791A70384BC3
S11346901A68FB695A60374B1B889BB2DBB2623BDA
S11346A0DAB2FB699A70344B1B68344A127893FB74
S11346B0F2F3DAB2FB699A72314B02221A60FB6997
S11346C00E33BB613B687B617B691A68BB691A6006
S11346D0BB6904337A6952681A60BB6908337A6922
S11346E092681A60BB690C337A69D2681A60BB6934
S11346F010337A6912691A60BB6914337A69526992
S11347001A60BB6918337A6992691A60BB691C33F1
S11347107A69D2691A60BB6920337A69126A1A60AD
S1134720BB6924337A69526A1A60BB6928337A698F
S1134730926A1A60BB692C337A69D26A1A60FB697F
S11347400E333B613B68FB603B693033FA68128E81
S11347501A80064B1B78DAB2FB695A70034B0022AD
S11347601A70012318462037BD4680BD480A001040
S113477034100010880900104C0A0010490A001077
S113478038C0092080B588B000AF03463960FB719A
S113479004F0A4FEF861FB69002B09D13D4B1B78A2
S11347A0DBB243F00403DAB23A4B1A7000236DE033
S11347B0FB69FA791A70384B1B68DAB2FB69DA7054
S11347C0364B1A68FB695A60354B1B889BB2DBB2C7
S11347D0623BDAB2FB699A70324B1A78FB691A733E
S11347E0314B02221A60FB690E33BB613B687B616B
S11347F07B691A68BB691A60BB6904337A695268B9
S11348001A60BB6908337A6992681A60BB690C3311
S11348107A69D2681A60BB6910337A6912691A60BE
S1134820BB6914337A6952691A60BB6918337A69AF
S113483092691A60BB691C337A69D2691A60BB69D0
S113484020337A69126A1A60BB6924337A69526A1E
S11348501A60BB6928337A69926A1A60BB692C337F
S11348607A69D26A1A60FB690E333B613B68FB606C
S11348703B693033FA68128E1A80064B1B78DAB221
S1134880FB695A70034B00221A7001231846203723
S1134890BD4680BD480A00103C100010000B0010FB
S11348A088090010F00B001038C0092080B588B0CA
S11348B000AF03463960FB7104F010FEF861FB6938
S11348C0002B09D13D4B1B78DBB243F00403DAB271
S11348D03A4B1A7000236CE0FB69FA791A70384B72
S11348E01A68FB695A60374B1B889BB2DBB2623B88
S11348F0DAB2FB699A70344B1A78FB699A72334BBB
S11349001A78FB695A73324B02221A60FB690E3320
S1134910BB613B687B617B691A68BB691A60BB69D0
S113492004337A6952681A60BB6908337A699268F9
S11349301A60BB690C337A69D2681A60BB69103398
S11349407A6912691A60BB6914337A6952691A6008
S1134950BB6918337A6992691A60BB691C337A6936
S1134960D2691A60BB6920337A69126A1A60BB691A
S113497024337A69526A1A60BB6928337A69926A65
S11349801A60BB692C337A69D26A1A60FB690E33E8
S11349903B613B68FB603B693033FA68128E1A80D6
S11349A0064B1B78DAB2FB695A70044B00221A706A
S11349B0012318462037BD4680BD00BF480A0010B9
S11349C0080B00108809001039100010F10B0010BA
S11349D038C0092080B586B000AF0346B9607A605C
S11349E0FB7304F07BFD78617B69002B09D1144BC8
S11349F01B78DBB243F00403DAB2114B1A700023C4
S1134A0019E07B69FA7B1A707B697A685A600D4BEE
S1134A101A787B699A720C4B1A787B69DA720B4BA1
S1134A2002221A60064B1B78DAB27B695A70044B77
S1134A3000221A70012318461837BD4680BD00BFF6
S1134A40480A001039100010F10B001038C009207A
S1134A5080B582B000AF174B1B78002B1DD0164BCE
S1134A601B785BB2002B18DD144B1B889BB2A3F69A
S1134A706213134A32F813301BB28033002B00DA6E
S1134A80FF331B12BB71BA790B4B1B78DBB2134497
S1134A90DBB2363BDBB2FB7102E0074B1B78FB71E8
S1134AA097F9073018460321FFF7C8FC0837BD46BD
S1134AB080BD00BF7C0900104C0400109C04001051
S1134AC0A009001080B400AF094B00221A70094BF2
S1134AD04FF400121A60084B04221A60074A074B6D
S1134AE01B6843F004031360BD465DF8047B704704
S1134AF0CC10001000E100E0AC800240B480024021
S1134B0080B400AF094A094B1B6823F00403136007
S1134B10074B04221A60074B4FF400121A60064B2D
S1134B2000221A70BD465DF8047B7047B4800240D1
S1134B30AC80024080E100E0CC1000102DE9F04F81
S1134B4095B000AFB9607A603B600346FB73002305
S1134B507B64FB7B3E2B00F2638501A252F823F0B9
S1134B605D4C0000674C000021560000974C00008B
S1134B70B94C0000D54C0000F74C0000134D000068
S1134B80354D0000554D0000774D000017500000D2
S1134B903D500000ED4D0000F74D0000974D000022
S1134BA0D54E0000F54E0000294F0000494F00008B
S1134BB0654F0000F14F0000F94F00000B5000005A
S1134BC0C7500000E550000021560000F1500000DD
S1134BD06D4F0000894F0000B14F0000A94F000045
S1134BE0B94F0000B55100004D510000295200009A
S1134BF0375200004752000059520000255300006C
S1134C006B530000F95300002D5400004F54000072
S1134C10A754000025560000D9540000EF540000AA
S1134C200B550000215500004D5500009D53000018
S1134C30CF53000069550000AD550000F751000046
S1134C40BF55000021560000975500000356000090
S1134C500F560000774C0000874C00003B68002290
S1134C601A6000F0E0BCA74B01221A703B680022D6
S1134C701A6000F0D8BCA34B0E221A703B680022C5
S1134C801A6000F0D0BC9F4B0F221A703B680022C0
S1134C901A6000F0C8BC9C4B1B6803F00203002B95
S1134CA014BF01230023DBB21A467B681A703B68E9
S1134CB001221A6000F0B7BCBB681B88002B04D02B
S1134CC0924B02221A6000F0AEBC914B02221A6091
S1134CD000F0A9BC8C4B1B6803F01003002B14BF1D
S1134CE001230023DBB21A467B681A703B68012259
S1134CF01A6000F098BCBB681B88002B04D0834B5F
S1134D0010221A6000F08FBC814B10221A6000F050
S1134D108ABC7D4B1B6803F48073002B14BF0123F2
S1134D200023DBB21A467B681A703B6801221A60C2
S1134D3000F079BCBB681B88002B05D0734B4FF483
S1134D4080721A6000F06FBC714B4FF480721A606D
S1134D5000F069BC6C4B1B6803F40073002B14BF98
S1134D6001230023DBB21A467B681A703B680122D8
S1134D701A6000F058BCBB681B88002B05D0634B3D
S1134D804FF400721A6000F04EBC614B4FF4007295
S1134D901A6000F048BC36237B625E4B1B6807F147
S1134DA0240107F110020846114698473B69DAB21C
S1134DB07B681A707B6801337A69D2B21A707B6897
S1134DC002337A69120AD2B21A707B6803337A69A1
S1134DD0120CD2B21A707B6804337A69120ED2B202
S1134DE01A703B6805221A6000F01DBC454B0B226B
S1134DF01A7000F018BC3A237B62464B1B6807F11B
S1134E00240107F110020846114698473B69DAB2BB
S1134E107B681A707B6801337A69D2B21A707B6836
S1134E2002337A69120AD2B21A707B6803337A6940
S1134E30120CD2B21A707B6804337A69120ED2B2A1
S1134E401A707B680533BA69D2B21A707B6806336C
S1134E50BA69120AD2B21A707B680733BA69120CA3
S1134E60D2B21A707B680833BA69120ED2B21A70C1
S1134E707B680933FA69D2B21A707B680A33FA691B
S1134E80120AD2B21A707B680B33FA69120CD2B2CE
S1134E901A707B680C33FA69120ED2B21A707B68EE
S1134EA00D333A6AD2B21A707B680E333A6A120A28
S1134EB0D2B21A707B680F333A6A120CD2B21A70EB
S1134EC07B6810333A6A120ED2B21A703B68112210
S1134ED01A60A8E3104B1B6803F08003002B14BF77
S1134EE001230023DBB21A467B681A703B68012257
S1134EF01A6098E3BB681B88002B11D0074B8022F3
S1134F001A6090E33F0A001034C0092038C0092019
S1134F103CC009204804001054C0092058C009208E
S1134F20944B80221A607EE3934B1B6803F48073D6
S1134F30002B14BF01230023DBB21A467B681A70CE
S1134F403B6801221A606EE3BB681B88002B04D007
S1134F508A4B4FF480721A6065E3864B4FF480727B
S1134F601A6060E3864B03221A705CE3052005F0A7
S1134F7007FD0346DBB203F00703DAB27B681A705D
S1134F803B6801221A604EE3BB681B88072B09D8D3
S1134F90BB681B8843F008039BB20520194605F043
S1134FA005FD40E300233FE3754B05221A703AE305
S1134FB0734B06221A7036E3724B1A787B681A70A8
S1134FC07B6801336F4A52781A707B6802336D4AEA
S1134FD092781A707B6803336A4AD2781A707B68B5
S1134FE00433684A12791A703B6805221A601AE37E
S1134FF0634B00221A7016E3634B1B78DAB27B68AA
S11350001A703B6801221A600DE3BB681B88DAB290
S11350105D4B1A7007E35D4B1B889BB2DAB27B6869
S11350201A707B680133594A128892B2120A92B2FA
S1135030D2B21A703B6802221A60F4E2BB681A8882
S1135040534B1A80524B1B889BB240F6EA22934280
S113505007D9504B01221A704D4B40F662121A8048
S113506020E04C4B00221A70494B1B889BB240F63F
S1135070DC02934203D9464B1B889BB201E040F605
S1135080DC03434A1380424B1B889BB240F6E9225F
S1135090934203D83E4B1B889BB201E040F6EA23BF
S11350A03B4A13803C4B1B78DBB2092B0AD0384BAC
S11350B01B889AB2354B1A80354B00221A80FFF7B1
S11350C0C7FCB0E2AFE239237B62344B1B6807F1C3
S11350D0240107F110020846114698473B68002254
S11350E01A60A0E22E4B2F4A1A6005F02BFE9AE2BA
S11350F0BB681B88B3F5006F17D9BB681B88B3F571
S1135100406F12D8BB6802331B88B3F5006F0CD90B
S1135110BB6802331B88B3F5406F06D8BB68023303
S11351201A88BB681B889A4201D200237CE2BB68C0
S11351301A881D4B1A80BB685A881C4B1A80104B66
S113514004221A703B6800221A606CE2BB681B8858
S1135150B3F5807F01D9002366E2BB681B88DAB20D
S1135160134B1A70064B07221A703B6800221A6010
S113517059E200BF5CC0092054C0092058C009206E
S11351803F0A00108C100010420A00109C0400100A
S1135190440A00107C0900103E0A00104804001064
S11351A01C00001021BB05439E040010A004001045
S11351B0A20400107B6800221A707B68013300226D
S11351C01A70A44807F03CFA034687F843307B681A
S11351D0023397F843201A707B68DA1C97F843303F
S11351E010469C491A4607F0B5F997F84330DA1C83
S11351F03B681A6017E2984807F022FA034687F8DA
S113520043307B6897F843201A707B685A1C97F8E0
S11352104330104690491A4607F09CF997F84330FA
S11352205A1C3B681A60FEE17B6801221A703B68D5
S113523001221A60F7E1BB681B88DAB2874B1A7047
S1135240FFF706FCEFE1854B1B78DAB27B681A7036
S11352503B6801221A60E6E181494FF000024FF0F9
S11352600003C1E900237E494FF000024FF0000320
S1135270C1E902230023FB6425E0794BD3E900ABA9
S1135280FB6C7A6813441B78DAB24FF00003F96CB4
S1135290C900A1F12006C1F1200003FA01F902FAC4
S11352A006F649EA060922FA00F049EA000902FA78
S11352B001F84AEA08024BEA09036949C1E90023F3
S11352C0FB6C0133FB64FB6C072BD6DD0023FB6412
S11352D024E0634BD3E90289FB6C08337A681344F6
S11352E01B78DAB24FF00003F96CC900A1F1200673
S11352F0C1F1200003FA01F502FA06F6354322FA59
S113530000F0054302FA01F448EA040249EA0503FD
S11353105349C1E90223FB6C0133FB64FB6C072B8B
S1135320D7DD80E10023BB640023FB640DE0BB6C8C
S11353301B02BB64FB6C7A6813441B781A46BB6C73
S11353401343BB64FB6C0133FB64FB6C032BEEDD8A
S1135350444B1A68BB6C1344424A1360424B02220A
S11353601A70424B08221A705DE17B681B781A465A
S11353707B6801331B781B021A437B6802331B785A
S11353801B041A437B6803331B781B061343FB631C
S1135390344AFB6B1360FFF75BFB44E10023FB64BF
S11353A00BE0FB6C7A6813441978314AFB6C1344A4
S11353B00A461A70FB6C0133FB64FB6C092BF0DDAD
S11353C02C4B01221A703B680A221A602BE100233D
S11353D0FB6407E0264AFB6C134400221A70FB6C42
S11353E00133FB64FB6C092BF4DD224B00221A70A1
S11353F03B680A221A6016E11A4B1B68FB63002300
S1135400FB640CE0FB6C7A681344FA6CD200F96B11
S113541021FA02F2D2B21A70FB6C0133FB64FB6C0A
S1135420032BEFDD3B6804221A60FCE03B6800229A
S11354301A60114B00221A700B4B03221A700B4B8B
S113544009221A7004F03AF8FFF702FBEBE000239C
S1135450FB6421E078CF000034CF00004C0400103E
S1135460D0100010EC0B00107C0900103F0A001053
S1135470C40B0010381000107D090010FB6C7A6812
S113548013446C4A1168FA6CD20021FA02F2D2B2C7
S11354901A70FB6C0133FB64FB6C032BEEDD3B6881
S11354A004221A60BFE07B681B781A467B680133CC
S11354B01B781B021A437B6802331B781B041A43B4
S11354C07B6803331B781B061343184601F0FCFE6C
S11354D0584B0122DA63A6E07B6813221A707B68BA
S11354E0013337221A703B6802221A609BE0514B49
S11354F01B69002B14BF01230023DBB21A467B680F
S11355001A703B6801221A608DE0BB681B88002B6F
S113551014BF01230023DBB21A46464B1A6182E012
S113552004F00CF878647B6C002B08D07868796CF4
S1135530402207F00FF83B6840221A6073E07B6852
S113554000221A703B6801221A606CE03B6800225A
S11355501A60394B00221A70384B0A221A7003F071
S1135560ADFFFFF775FA5EE0BB681B88DBB2184637
S113557005F006FA03467B877B8F1B0A9BB2DAB2DF
S11355807B681A707B6801337A8FD2B21A703B68D9
S113559002221A6047E0BB681B88DAB2BB68023398
S11355A01B881046194605F001FA3CE02448796846
S11355B0062206F0CFFF214B0C221A7033E07B68E1
S11355C05A791C4B83F834207B681A79194B83F879
S11355D035207B68DA78174B83F836207B689A7815
S11355E0144B83F837207B685A78124B83F83820A1
S11355F07B681A780F4B83F839200E4B0122DA634B
S113560011E0BB681B88DAB20E4B1A700BE00B4B2F
S11356100D221A70BB681B88DAB20B4B1A7002E0B9
S1135620002301E000BF012318465437BD46BDE8FE
S1135630F08F00BF580400107C0900103F0A0010CE
S11356408C090010400A0010410A001080B400AF19
S11356500C4B02221A600C4B00221A600B4B0422E2
S11356601A600B4B40F634421A600A4B03221A604C
S1135670094B02221A60034B01221A60BD465DF8F1
S1135680047B704704400040EC0B00100C400040C9
S1135690184000401440004000E100E080B483B0B2
S11356A000AF4FF040231B6803F00103002B6DD0C3
S11356B0394B1B680133384A1360374B1B687B60D6
S11356C0364B9B697A68D31A03F003033B60344B6F
S11356D01B78002B03D0324B1B78012B09D17B683C
S11356E003F07F03002B03D12E4B01221A7037E005
S11356F036E02B4B1B78022B08D17B6803F00103A7
S1135700002B2DD1274B01221A7029E0244B1B7842
S1135710032B25D1214B1B7D032B21D13B68002B6F
S11357201ED11E4B9B8B9BB2013B9AB21B4B9A839F
S11357301A4B9B8B9BB2002B0ED11A4B01221A7071
S1135740164B1B8C9BB201339AB2144B1A84134B25
S1135750DA8B124B9A8303E0134B4FF480721A6076
S11357607B68C3F30803002B02D1104B01221A708B
S11357700F4A104B1B68C3F54363043313600D4B8E
S113578000221A604FF0402301221A600C37BD46F4
S11357905DF8047B704700BFEC0B00105804001048
S11357A07C0900107D0900103CC00920E80B0010A2
S11357B0184000408409001080B400AF0B4B042251
S11357C01A600B4B01221A700A4B1B68C3F31303B4
S11357D040F6354202FB03F2074B1B681344074AA9
S11357E01360BD465DF8047B704700BFAC80024087
S11357F0CC100010EC0B001008400040E40B00102B
S1135800B0B584B000AF78601B4B1B68184606F037
S1135810C7FB04460D46786806F0C2FB02460B46F9
S11358201046194612A3D3E9002306F02FFC0246C2
S11358300B46104619464FF00002104B06F050FD7F
S113584002460B462046294606F06EFA02460B46EF
S11358501046194606F02CFE0346FB60064B1A68F8
S1135860FB689A42FAD31037BD46B0BDAFF300804F
S11358700000000000887340EC0B001000408F40D3
S113588080B400AF3F4A3F4B1B6843F000531360A2
S11358903D4B00221A603D4B00221A603C4B002213
S11358A01A603C4B00221A603B4B00221A603B4BAF
S11358B000221A603A4B00221A603A4B00221A6006
S11358C0394BFF221A60394BFF221A60384B394A90
S11358D01A60394A364B5A60384A354B9A60344B11
S11358E0374ADA60354B334A1A60364A334B5A60CA
S11358F02F4A324B9A60314B314ADA60324B4FF0C7
S113590080621A60314B01221A6000BF2F4B1B6862
S113591003F00103002BF9D02D4A254B1B681360BB
S11359202C4A234B5B6813602B4A214B9B68136002
S11359302A4A1F4BDB681360134B4DF206021A60B0
S1135940274B1B681B0DDBB2264A1360244B1B68D4
S1135950C3F3130340F6354202FB03F2224B1B68E8
S11359601344224A1360224B1B889AB2214B1A809B
S1135970214B00221A60214B00221A60BD465DF8BB
S1135980047B7047C4C00F401041005030410050A8
S1135990504100507041005090410050B0410050BF
S11359A0D0410050F04100500840005010400050D9
S11359B0781000100800034094100010D40B00105D
S11359C0329000884010001080E100E03040005028
S11359D00041005004410050084100500C41005067
S11359E0EC0B0010F40B00100840004030100010C5
S11359F09C0400108A090010040B0010C810001049
S1135A0080B483B000AF4B4A4A4B1B6843F0005349
S1135A101360494B00221A60484B00221A60484B1D
S1135A2000221A60474B00221A60474B00221A607A
S1135A30464B00221A60464B00221A60454B002256
S1135A401A60454BFF221A60444BFF221A60444BF4
S1135A5001221A6000BF424B1B6803F00103002BB4
S1135A60F9D000237B602AE03E4A7B681B01134483
S1135A703D4A1A607B689B003C4A13441946394AE4
S1135A807B681B01134459607B68092B06DC7B6827
S1135A9001331B01334A13441A4600E00022314902
S1135AA07B681B010B4408331A602E4A7B681B0178
S1135AB0134408332E4A5A607B6801337B607B6849
S1135AC00A2BD1DD2B4A274B1B6813602A4A254B2E
S1135AD05B681360294A234B9B681360284A214B57
S1135AE0DB681360144B4DF206021A60254B1B68E9
S1135AF01B0DDBB2244A1360224B1B68C3F3130350
S1135B0040F6354202FB03F2204B1B681344204A43
S1135B101360204B1B889AB21F4B1A801F4B002224
S1135B201A601F4B00221A600C37BD465DF8047BD7
S1135B30704700BFC4C00F401041005030410050B6
S1135B40504100507041005090410050B04100500D
S1135B50D0410050F0410050084000501040005027
S1135B6030400050100B0010080003409410001047
S1135B7004100088004100500441005008410050C6
S1135B800C410050EC0B0010F40B001008400040D6
S1135B90301000109C0400108A090010040B00103F
S1135BA0C810001080B400AF254B1B68254A136051
S1135BB0254B1B681B0DDBB2214A1360234B1B686A
S1135BC0234A1360204B1B68C3F3130340F635428A
S1135BD002FB03F21F4B1B6813441C4A13601E4B49
S1135BE01B889AB21D4B1A801D4B1B889AB21A4B04
S1135BF01A801C4B1B6803F00103002B1BD01A4BAB
S1135C001B6803F00103002B07D0184B01221A6014
S1135C10174B1B680133164A1360164B1B6803F0BD
S1135C200103002B07D0144B01221A60134B1B688D
S1135C300133124A1360BD465DF8047B704700BF10
S1135C40F40B00103C100010EC0B0010301000108E
S1135C50D00B0010084000408A0900108809001089
S1135C609C040010004000500440005008400050C4
S1135C70040B00100C40005010400050C8100010DD
S1135C8080B500AF154B1B78DBB2013B0E2B24D83B
S1135C9001A252F823F000BFD55C0000DB5C0000D9
S1135CA0DB5C0000D55C0000DB5C0000DB5C00001A
S1135CB0DB5C0000D55C0000D55C0000D55C000016
S1135CC0DB5C0000D55C0000DB5C0000D55C000000
S1135CD0D55C0000FFF766FF00BF80BD3E0A0010E0
S1135CE080B400AF104B4FF080521A600F4A0F4B34
S1135CF01B6843F0010313600D4A0D4B1B6843F00E
S1135D00020313600B4A0B4B1B6843F0010313603F
S1135D10094B4FF080621A60084B4FF080521A60B2
S1135D20BD465DF8047B704798C0092024000340F9
S1135D30040003401041005000E100E09CC0092031
S1135D4080B400AF214B4FF080521A60204A204BA0
S1135D501B6823F0010313601E4A1E4B1B6823F0CB
S1135D60020313601C4B4FF080621A601B4B00222D
S1135D701A601B4B00221A601A4B00221A601A4B3D
S1135D8000221A60194B00221A60194B00221A6073
S1135D90184B00221A60184B00221A60174BFF227E
S1135DA01A60174BFF221A60164A164B1B6823F021
S1135DB00103136000BF134B1B6803F00103002BA6
S1135DC0F9D1BD465DF8047B704700BF98C0092037
S1135DD0240003400400034080E100E0104100502F
S1135DE030410050504100507041005090410050EB
S1135DF0B0410050D0410050F041005008400050E4
S1135E00104000503040005080B500AF642004F0D2
S1135E108FFE00BF04F082FE034603F00403002B50
S1135E20F8D10A4B80221A60084B4FF480721A6032
S1135E30074B10221A60064B4FF480721A60044B11
S1135E4002221A60034B00221A7080BD5CC0092034
S1135E503CC009203E0A001080B582B000AF2A4B36
S1135E601B78DBB2002B02D12923FB8008E0264BF0
S1135E701B78DBB2012B02D14023FB8000E040E021
S1135E800D2047F6FF7104F091FD122042F62231F5
S1135E9004F08CFD142041F24B3104F087FD2020E6
S1135EA040F2011104F082FD184B1B889BB2013BA8
S1135EB09BB20220194604F079FDFB8803201946A1
S1135EC004F074FDFEF7C4FD00BF04F027FE034692
S1135ED003F04003002BF8D0612004F029FE00BF3A
S1135EE004F01CFE034603F00403002BF8D06220E8
S1135EF004F01EFE064B80221A60054B4FF480729C
S1135F001A600837BD4680BD420A00109C04001088
S1135F1058C0092080B584B000AF7860334B1B783B
S1135F20DBB2002B05D12923BB8140F26143FB8105
S1135F300BE02E4B1B78DBB2012B05D14023BB8138
S1135F4040F26153FB8100E04DE00D2047F6FF7104
S1135F5004F02CFD122042F6223104F027FD142017
S1135F6041F24B2104F022FDFB892020194604F064
S1135F701DFD7B689BB22C20194604F017FD7B683D
S1135F801B0C9BB22D20194604F010FD184B1B88E6
S1135F909BB2013B9BB20220194604F007FDBB896A
S1135FA00320194604F002FDFEF752FD00BF04F081
S1135FB0B5FD034603F04003002BF8D0612004F044
S1135FC0B7FD00BF04F0AAFD034603F00403002B51
S1135FD0F8D0622004F0ACFD064B80221A60054B19
S1135FE04FF480721A601037BD4680BD420A00101B
S1135FF09C04001058C0092080B59AB000AFF86026
S11360000B467A60FB7200237B6635E0FB6887F8F9
S11360105E30FB681B0AFB6007F110027B6E1344C1
S113602000221A7000233B6620E007F110027B6E09
S113603013441B78D9B297F85E3003F001033A6E2B
S1136040C2F107029340DBB20A461343DBB2D9B272
S113605007F110027B6E13440A461A7097F85E30FB
S11360605B0887F85E303B6E01333B663B6E072B63
S1136070DBD97B6E01337B667B6E032BC6D9934BD6
S11360801B889BB2DBB2623BDBB2184603F096F886
S113609003461A468E4B9B5CBB6500237B6650E02F
S11360A07A687B6E13441B7887F85E307B6E04330A
S11360B007F168021344002203F8582C00233B66BE
S11360C039E097F85E3003F001038249BA6D0A445F
S11360D0127853407B65BB6D013319467E4BA1FB9F
S11360E00323C81A400803449A091346DB019B1A88
S11360F0CA1ABA6597F85E305B0887F85E307B6E23
S113610004337A6E043207F168010A4412F8582CF9
S1136110D1B23A6EC2F1070210467A6D8240D2B211
S11361200A43D2B2D2B207F168010B4403F8582CE7
S11361303B6E01333B663B6E072BC2D97B6E01334A
S11361407B66FA7A7B6E9A42AAD8FB7A0433FB7296
S11361500D2047F6FF7104F029FC122042F622318B
S113616004F024FC142041F24B3104F01FFC2020E5
S113617040F6014104F01AFC544B1B889BB20220E8
S1136180194604F013FC05200B2104F00FFC032036
S1136190402104F00BFC2320142104F007FCFB68CD
S11361A003F00103002B05D02D204AF6AA2104F0A8
S11361B0FDFB04E02D2045F2555104F0F7FB0820C7
S11361C004F0DEFB0346A7F85230B7F85230C3F3AD
S11361D008039BB243F49C439BB29BB2082019462C
S11361E004F0E4FB00BF04F099FC034603F0400311
S11361F0002BF8D0612004F09BFC00BF04F08EFC5F
S1136200034603F00403002BF8D0344B4FF48072A0
S11362101A60334B80221A6000BF0E2004F0B0FBDA
S1136220034603F01F030F2BF7D1632004F080FC17
S113623000237B6621E000BF2A4B1B6803F00403A4
S1136240002BF9D17B6EDBB2FA7AD31A87F85F3070
S113625097F85F30102B02D9102387F85F3007F1CD
S113626010027B6E134497F85F20702011461A4683
S113627004F0DEFB7B6E10337B66FA7A7B6E9A4207
S1136280D9D800BF0E2004F07BFB034603F01F03A4
S11362900F2BF7D1144B4FF480721A60642004F072
S11362A047FC00BF04F03AFC034603F00403002B50
S11362B0F8D10E4B80221A60B7F8523008201946E4
S11362C004F074FB6837BD4680BD00BF9C04001019
S11362D064C70000E4C600001108040238C00920A5
S11362E058C0092054C009203CC009205CC00920C2
S11362F080B500AF0D2047F6FF7104F057FB122064
S113630042F6223104F052FB142042F24B3104F0E5
S11363104DFB202040F6014104F048FB05200B21F1
S113632004F044FB0320402104F040FB00BF04F0D0
S1136330F5FB034603F04003002BF8D0612004F082
S1136340F7FB00BF04F0EAFB034603F00403002B51
S1136350F8D00A4B4FF480721A60094B80221A60FD
S113636000BF0E2004F00CFB034603F01F030F2BA9
S1136370F7D1632004F0DCFB80BD00BF38C00920E6
S113638058C0092080B500AF414B00221A70414B20
S11363901B78002B0BD1022004F0F2FA03461A46B4
S11363A03D4B1B889BB2013B9A4247D16EE0394B6F
S11363B01B78012B14D1384B1B889BB220339AB223
S11363C0354B1A80344B1B889BB2B3F51B6F35D900
S11363D0314B1B889BB24F3B9AB22F4B1A802DE056
S11363E02C4B1B78022B0DD12C4B4FF480721A606E
S11363F02B4B1B68184602F0F3FD03461A46264B46
S11364001A801BE0234B1B78032B0BD1234B4FF437
S113641080721A60234802F0A9FE03461A461E4BF6
S11364201A800BE01B4B1B78042B07D11B4B4FF43A
S113643080721A601C4B1A88174B1A80642004F06F
S113644077FB00BF04F06AFB034603F00403002B50
S1136450F8D1114B1B889BB2013B9BB20220194619
S113646004F0A4FA0B4B1B78002B01D0FEF7F0FAD2
S1136470612004F05DFB00BF04F050FB034603F011
S11364800403002BF8D0622004F052FB80BD00BF4F
S11364907D0900107C0900109C04001038C00920FC
S11364A0EC0B0010580400108009001080B485B073
S11364B000AF03463960FB71FB79013B012202FA0C
S11364C003F3FB60184B20221A601EE03A68FB6855
S11364D01340002B03D0154B01221A6002E0124B2B
S11364E001221A603B685B003B60104B10221A606B
S11364F00F4B1B6803F00203002B03D03B6843F0EF
S113650001033B60084B10221A60FB795A1EFA7192
S1136510002BDBD1054B20221A603B681846143748
S1136520BD465DF8047B70475CC0092058C0092053
S113653054C0092080B584B000AF0346FB71FB79D9
S113654063F07F03DBB21B02FB601020F968FFF7E6
S1136550ADFFB860BB68DBB218461037BD4680BDDE
S113656080B485B000AF03460A46FB711346BB7185
S11365700AE0FA79BB791340FB73FA79BB7953408B
S1136580FB71FB7B5B00BB71BB79002BF1D1FB7909
S113659018461437BD465DF8047B704790B591B03A
S11365A000AF0023FB630023FB6307E03A46FB6B69
S11365B0134400221A70FB6B0133FB63FB6B312B1A
S11365C0F4DD0023BB63002387F83730002387F80A
S11365D03630002387F83530002387F83430002321
S11365E087F83330002387F8323002F067FF6E4BB0
S11365F080221A600D2047F6FF7104F0D7F91220AB
S113660042F6223104F0D2F9142041F24B2104F075
S1136610CDF9202040F2615104F0C8F90320402153
S113662004F0C4F900BF04F079FA034603F0400310
S1136630002BF8D000BF04F071FA034603F0040302
S1136640002BF8D1594B1B889BB2013B9BB2022013
S1136650194604F0ABF9612004F06AFA00BF04F0B3
S11366605DFA034603F00403002BF8D0622004F023
S11366705FFA89E00023BB63002387F837300023E7
S113668087F83630002387F8353036E00720FFF7E7
S113669051FF034687F8363097F83730DB43DBB2D7
S11366A018460121FFF75CFF03461A4697F8363077
S11366B018461146FFF754FF034687F8353097F81C
S11366C035305BB2002B0ADA97F83530DB43DBB2A6
S11366D018460121FFF744FF034687F8353097F841
S11366E03530042B03D8BB6B0133BB6301E00023BB
S11366F0BB6397F8363087F83730BB6B042BC5DDA6
S11367000620FFF717FF0346DBB25CB20620FFF753
S113671011FF0346DBB25BB22344DA0F13445B1070
S1136720DAB2234B1A70234A97F836301370224B8F
S11367301B68224A13603B4607201946FEF7B6F849
S11367401D4B1B68184602F059FF1B4B1B68C3F313
S1136750130340F6354202FB03F2194B1B68134442
S1136760184A136000BF144B1B68C3F3130340F6AD
S1136770354202FB03F2124B1B681A44114B1B688F
S1136780D31AB3F5FA7FEED30F4B1B78DBB20F2B82
S11367903FF470AF0D4B00221A70FFF7D1FAFEF7E9
S11367A0AFF94437BD4690BD58C009209C04001081
S11367B039100010F10B0010EC0B0010080B001046
S11367C008400040000D00103F0A00103E0A00106F
S11367D090B5A1B000AF994B10221A6002F06EFE82
S11367E004F012F8FFF70CF9FFF77AFA0D2047F6D8
S11367F0FF7104F0DBF8122042F6223104F0D6F8DF
S1136800142041F24B2104F0D1F8202040F26151D0
S113681004F0CCF80320402104F0C8F8884803F0C1
S1136820F3FE03469BB22C20194604F0BFF88448BB
S113683003F0EAFE03461B0C9BB22D20194604F01C
S1136840B5F8804B80221A6000BF04F067F9034654
S113685003F04003002BF8D000BF04F05FF90346B7
S113686003F00403002BF8D1774B1B889BB2013B48
S11368709BB20220194604F099F8612004F058F9FB
S113688000BF04F04BF9034603F00403002BF8D0D7
S1136890622004F04DF948E100BF04F03FF90346DB
S11368A003F01003002BF8D00023FB670DE0072052
S11368B0FFF740FE0346194607F13402FB6F134409
S11368C00A461A70FB6F0133FB67FB6F2C2BEEDD5E
S11368D05E4B1B685E4A136000BF5E4B1B68002B57
S11368E0FBD05D4B10221A605C4B1B68002B07D059
S11368F05B4B1B78DBB243F00203DAB2584B1A70DD
S1136900544B1B68012B07D9554B1B78DBB243F062
S11369100103DAB2524B1A703B46BB67514B1B68FA
S11369203B6000BF504B1B6803F00103002B03D0F6
S11369304A4B1B68002BF5D04C4A4C4B1B6823F088
S113694001031360404B1B889BB2DBB2623BDBB29A
S1136950184602F033FC03461A4613465B00134400
S11369601B01434A13447B670023FB6734E0414A1D
S1136970FB6F13441B781A06FB6F01333D49CB5C54
S11369801B041A43FB6F02333A49CB5C1B021343CB
S1136990FA6F033237498A5C13433B67FB6F002B62
S11369A000DA03339B105C1C386F03F02DFE0146A4
S11369B0FB6F002B00DA03339B109B007A6F1344A8
S11369C01B6881EA0302A30007F180010B4443F82A
S11369D0802CFB6F0433FB67FB6F2B2BC7DDBB6F76
S11369E005331B7803F03F030233FB66FB6E272B52
S11369F000D95EE01B4BD968BB6F1A1DFB6E0846BD
S1136A0011461A4602F0DEFCB866FB6E0633BA6F16
S1136A1013441B781A04FB6E0533B96F0B441B78BF
S1136A201B021343FA6E0432B96F0A4412781343FB
S1136A307B66BA6E7B6E9A421ED03AE03CC0092057
S1136A40D6BE898E58C009209C040010EC0B00109F
S1136A50000B0010040B001038C00920C8100010EF
S1136A60480A00105804001010410050240003404C
S1136A70B4C7000094100010BB6F26331B78002BA2
S1136A8014D1BB6F27331B783D2B0FD1BB6F93F809
S1136A9028202C4B1A7007F1340302201946FDF705
S1136AA071FE294B1B68184602F0A8FD274B1022E3
S1136AB01A60642004F03CF800BF04F02FF8034689
S1136AC003F00403002BF8D100BF04F027F80346B9
S1136AD003F04003002BF8D0612004F029F800BF34
S1136AE004F01CF8034603F00403002BF8D0184A02
S1136AF0174B1B6823F00103136003E0154B1B685D
S1136B0087F86330144B1B6803F00403002BF5D1A2
S1136B10FEF776FFFFF7E4F8622004F009F80F4B64
S1136B2000221A600E4B00221A600E4B1B78DBB257
S1136B300E2B3FF4B1AEFFF703F9FDF7E1FF843705
S1136B40BD4690BDF00B0010EC0B00103CC00920BA
S1136B5024000340080003400C000340040B001011
S1136B60C81000103F0A001090B5A3B000AFA94BA5
S1136B7010221A6002F0A2FC03F046FEFEF740FF6A
S1136B80FFF7AEF80D2047F6FF7103F00FFF122058
S1136B9042F6223103F00AFF142041F24B2103F0A4
S1136BA005FF202040F2615103F000FF0320402143
S1136BB003F0FCFE984803F027FD03469BB22C200B
S1136BC0194603F0F3FE944803F01EFD03461B0C24
S1136BD09BB22D20194603F0E9FE904B80221A60E7
S1136BE000BF03F09BFF034603F04003002BF8D0E3
S1136BF000BF03F093FF034603F00403002BF8D116
S1136C00874B1B889BB2013B9BB20220194603F0C1
S1136C10CDFE612003F08CFF00BF03F07FFF03462D
S1136C2003F00403002BF8D0622003F081FF5CE141
S1136C3000BF03F073FF034603F01003002BF8D0EA
S1136C40784B00221A60784B05221A700023C7F88B
S1136C50843011E0062003F093FE03461B0A9BB226
S1136C60DBB25AB26F4B1B6813446E4A1360D7F8F9
S1136C7084300133C7F884306B4B1B781A46D7F83D
S1136C8084309A42E6DC694B1B68694A136000BF92
S1136C90684B1B68002BFBD0674B10221A60674BB4
S1136CA01B68002B07D0664B1B78DBB243F0020352
S1136CB0DAB2634B1A705F4B1B68012B07D9604B28
S1136CC01B78DBB243F00103DAB25D4B1A703B1D53
S1136CD0C7F880305B4B1B687B6000BF5A4B1B6856
S1136CE003F00103002B03D0544B1B68002BF5D099
S1136CF0564A564B1B6823F001031360484B1B880C
S1136D009BB2DBB2623BDBB2184602F057FA034691
S1136D101A4613465B0013441B014D4A1344FB6798
S1136D200023C7F884303CE04A4AD7F8843013443F
S1136D301B781A06D7F8843001334649CB5C1B0410
S1136D401A43D7F8843002334249CB5C1B02134305
S1136D50D7F8842003323F498A5C1343BB67D7F8D2
S1136D608430002B00DA03339B105C1CB86F03F0F3
S1136D704BFC0146D7F88430002B00DA03339B1018
S1136D809B00FA6F13441B6881EA0302A30007F116
S1136D9088010B4443F8842CD7F884300433C7F8B3
S1136DA08430D7F884302B2BBEDDD7F88030053300
S1136DB01B7803F03F0302337B677B6F272B00D9DB
S1136DC057E0204BD968D7F880301A1D7B6F0846EE
S1136DD011461A4602F0F6FA38677B6F0633D7F885
S1136DE0802013441B781A047B6F0533D7F8801076
S1136DF00B441B781B0213437A6F0432D7F88010BC
S1136E000A4412781343FB663A6FFB6E9A4223D00E
S1136E102FE000BF3CC00920D6BE898E58C009208F
S1136E209C0400104C0A0010490A0010EC0B0010DE
S1136E3034100010040B001038C00920C8100010D2
S1136E40480A001058040010104100502400034068
S1136E50B4C70000941000103B1D00201946FDF734
S1136E60FDFB284B1B68184602F0C8FB264B10227A
S1136E701A60642003F05CFE00BF03F04FFE03467B
S1136E8003F00403002BF8D100BF03F047FE0346D0
S1136E9003F04003002BF8D0612003F049FE00BF4B
S1136EA003F03CFE034603F00403002BF8D0174A1A
S1136EB0164B1B6823F00103136003E0144B1B689B
S1136EC087F86B30134B1B6803F00403002BF5D1D8
S1136ED0FEF796FDFEF704FF622003F029FE0E4B39
S1136EE000221A600D4B00221A600D4B1B78DBB296
S1136EF0012B3FF49DAEFEF723FFFDF701FE8C3717
S1136F00BD4690BDEC0B00103CC00920240003409A
S1136F10080003400C000340040B0010C8100010CC
S1136F203F0A001090B5A3B000AFC04B10221A6006
S1136F3002F0C4FA03F068FCFEF762FDFEF7D0FE2F
S1136F400D2047F6FF7103F031FD122042F6223185
S1136F5003F02CFD142041F24B2103F027FD2020E7
S1136F6040F2615103F022FD0320402103F01EFD95
S1136F70AF4803F049FB03469BB22C20194603F0AB
S1136F8015FDAB4803F040FB03461B0C9BB22D20C0
S1136F90194603F00BFDA74B80221A6000BF03F0D3
S1136FA0BDFD034603F04003002BF8D000BF03F0FF
S1136FB0B5FD034603F00403002BF8D19E4B1B8858
S1136FC09BB2013B9BB20220194603F0EFFC612007
S1136FD003F0AEFD00BF03F0A1FD034603F004037C
S1136FE0002BF8D0622003F0A3FD56E100BF03F0AC
S1136FF095FD034603F01003002BF8D08F4B0022BD
S11370001A608F4B05221A700023C7F8843011E0F0
S1137010062003F0B5FC03461B0A9BB2DBB25AB24E
S1137020864B1B681344854A1360D7F884300133B8
S1137030C7F88430824B1B781A46D7F884309A42BA
S1137040E6DC00BF7F4B1B68002BFBD07E4B10227D
S11370501A607E4B1B68002B07D07D4B1B78DBB27C
S113706043F00203DAB27A4B1A70764B1B68012B99
S113707007D9774B1B78DBB243F00103DAB2744BC8
S11370801A703B1DC7F88030724B1B687B6000BFD1
S1137090714B1B6803F00103002B03D06B4B1B687F
S11370A0002BF5D06D4A6D4B1B6823F00103136070
S11370B0614B1B889BB2DBB2623BDBB2184602F029
S11370C07DF803461A4613465B0013441B01644AC9
S11370D01344FB670023C7F884303CE0614AD7F8C7
S11370E0843013441B781A06D7F8843001335D4981
S11370F0CB5C1B041A43D7F8843002335949CB5C68
S11371001B021343D7F88420033256498A5C134385
S1137110BB67D7F88430002B00DA03339B105C1C68
S1137120B86F03F071FA0146D7F88430002B00DA07
S113713003339B109B00FA6F13441B6881EA03021C
S1137140A30007F188010B4443F8842CD7F884305A
S11371500433C7F88430D7F884302B2BBEDDD7F83E
S1137160803005331B7803F03F0302337B677B6F6A
S1137170272B00D934E0374BD968D7F880301A1D53
S11371807B6F084611461A4602F01CF938677B6F7C
S11371900633D7F8802013441B781A047B6F053319
S11371A0D7F880100B441B781B0213437A6F043208
S11371B0D7F880100A4412781343FB663A6FFB6ECB
S11371C09A4200D00CE03B1D00201946FDF77CF9E3
S11371D0254B1B68184602F011FA144B10221A6052
S11371E0642003F0A5FC00BF03F098FC034603F001
S11371F00403002BF8D100BF03F090FC034603F016
S11372004003002BF8D0612003F092FC00BF03F090
S113721085FC034603F00403002BF8D00F4A0F4B00
S11372201B6823F00103136024E000BF3CC0092065
S1137230D6BE898E58C009209C0400104C0A001048
S1137240490A0010040B001038C00920C8100010AF
S1137250480A001058040010104100502400034054
S1137260B4C7000094100010EC0B0010114B1B6805
S113727087F86B30104B1B6803F00403002BF5D127
S1137280FEF7BEFBFEF72CFD622003F051FC0B4B16
S113729000221A600A4B00221A600A4B1B78DBB2E8
S11372A0012B3FF4A3AEFEF74BFDFDF729FC8C3711
S11372B0BD4690BD080003400C000340040B0010C1
S11372C0C81000103F0A001080B584B000AF786089
S11372D0094A7B681360786803F096F9F860FB68E4
S11372E09AB2054BDA80FB681B0C9AB2024B9A8067
S11372F01037BD4680BD00BF5804001080B500AFF4
S11373001F48FFF7E1FF1F4B1F4A9A601D4B1F4A9E
S1137310DA601C4B01221A611A4B00221A64194BC1
S113732000221A75174B00225A75164B00229A75C3
S1137330144B00229A61134B00229A83114B0022B2
S1137340DA83104B0022DA830E4B00221A840D4B91
S1137350002283F822200B4B00229A84094B00223E
S11373609A62084B00229A85064B0022DA85054B67
S1137370002283F83020064B00221A7080BD00BF23
S1137380D6BE898E5804001055555500AAAAAA00E5
S11373907D09001080B500AF054800214FF48472C8
S11373A0FCF7EAFE024B4FF0FF32C3F8002180BD28
S11373B0F80B001080B588B000AF0346FB710023C2
S11373C0FB60A44B01221A70A34AFB791370FFF7E8
S11373D095FFA24B4FF080721A60A14B10221A60E5
S11373E002F06CF803F010FAFEF74AFAFEF778FCA4
S11373F0FEF732FDFDF766FB0023FB7715E1994BA1
S11374001B889BB2002B24D0642003F091FB00BFA7
S113741003F084FB034603F00403002BF8D1924BE2
S11374201B889BB2013B9BB20220194603F0BEFAB3
S1137430612003F07DFB00BF03F070FB034603F003
S11374400403002BF8D0622003F072FB854B00226A
S11374501A80864B1B78DBB2002B02D0FEF792FF1A
S113746003E07F4B4FF480721A607D4B10221A6048
S1137470FCF748FF8023BB7422E0062003F080FA67
S113748003461B0A9BB2FB74794B1B78DBB2002BBF
S113749011D097F9123013F1800F0CD1754B1B7872
S11374A05BB203F1360297F913309342B8BF134627
S11374B0FB74FB7CBB7497F913301846FCF73CFF54
S11374C06D4B1B68002B03D16C4B1B68002BD4D075
S11374D0694B1B6803F00103002B09D0684B1B6840
S11374E0FB60684B1B68664A1360664AFB6813605E
S11374F0624B1B68002B07D0634B1B78DBB243F055
S11375000203DAB2604B1A705B4B1B68002B00D18C
S113751085E0594B1B68012B07D95B4B1B78DBB209
S113752043F00103DAB2584B1A70FCF73BFF504B9F
S11375301B78DBB2002B03D1544B1B78002B0CD0EF
S1137540514B1B78DBB243F00803DAB24E4B1A708E
S11375500223FB77464B00221A704D4B1B785AB21C
S1137560444B1B785BB236339A4209DB464B1B789B
S1137570DBB243F01003DAB2434B1A700223FB77F9
S1137580444B1B78DBB2002B07D0FB7F002B01D1CF
S11375900123FB773F4B00221A70FB7F002B00D1A5
S11375A03DE0FB7F013BFB773B483C494FF4C8720D
S11375B004F0D0FF0023BB6125E000237B611CE0C5
S11375C0BB693233DA007B6913442E4A1168BA6905
S11375D00A441278D209D1B22F4AD154294B1A68DD
S11375E0BB691344274A1168BA690A4412785200E5
S11375F0D2B21A707B6901337B617B69072BDFDDB3
S1137600BB690133BB61BB69312BD6DD244B1B68DD
S113761021489847B860BB68002B00D10CE0164B9A
S113762000221A60154B00221A601E4B1B78DBB235
S1137630FA799A423FF4E3AE1B4B4FF080721A6022
S1137640FEF7E2FBFEF77CFBFDF75AFA2037BD4656
S113765080BD00BF420A00103E0A001000E100E0B5
S11376603CC00920440A00109C0400107D0900104D
S1137670CC1000104D040010040B0010C8100010B2
S11376805004001054040010480A00107E09001031
S11376900C0B0010E80B0010100D0010A00E0010D1
S11376A0980900103F0A001080E100E090B59BB0FB
S11376B000AF0346FB71874B01221A70864AFB799F
S11376C01370864B01221A75854B4FF080721A6035
S11376D0844B10221A6001F0F1FE03F095F8FEF7D6
S11376E08FF9FEF7FDFA7D4B1B68184602F08CFFFC
S11376F003461846FEF70EFC47E27B4B1B889BB201
S1137700002B29D0642003F013FA00BF03F006FA1B
S1137710034603F00403002BF8D1744B1B889BB27F
S1137720013B9BB20220194603F040F9612003F0AB
S1137730FFF900BF03F0F2F9034603F00403002B42
S1137740F8D0622003F0F4F9674B1B889AB2684BB7
S11377501A80654B00221A80624B10221A60FCF7D3
S1137760D1FD00BF634B1B68002B0ED1624B1B681D
S1137770002B0AD1614B1B78DBB2002B05D1604B87
S11377801B78DBB2FA799A42ECD05D4B1B78DBB202
S1137790FA799A4200D0FFE1574B1B68002B07D0BF
S11377A0584B1B78DBB243F00203DAB2554B1A7024
S11377B0524B1B78DBB2002B00D02BE14D4B1B68E6
S11377C0002B00D1E1E107F10803FB65434B1B6883
S11377D0BB60464B1B889BB2DBB2623BDBB21846F4
S11377E001F0ECFC03461A4613465B0013441B01EC
S11377F0454A1344BB6500237B6634E0434A7B6EF1
S113780013441B781A067B6E01334049CB5C1B047E
S11378101A437B6E02333D49CB5C1B0213437A6EE1
S113782003323A498A5C13437B657B6E002B00DA92
S113783003339B105C1C786D02F0E6FE01467B6E00
S1137840002B00DA03339B109B00BA6D13441B68B2
S113785081EA0302A30007F168010B4443F8602C9A
S11378607B6E04337B667B6E032BC7DDFB6D0533B8
S11378701B7803F03F0302333B653B6D272B00D994
S1137880C8E03B6D06339B08FB64FB6C0A2B0DD8E8
S113789000BF1F4B1A68FB6C9B001C490B449A42A7
S11378A00FD2154B1B68002BF3D00AE000BF194B15
S11378B01B6803F00103002B03D00F4B1B68002B44
S11378C0F5D0154A144B1B6823F0010313600423FD
S11378D07B6658E0420A00103E0A0010580400106B
S11378E000E100E03CC00920440A00109C040010A0
S11378F0460A0010040B0010C81000107D09001087
S11379003F0A0010480A0010B4C700009410001089
S1137910044100501041005024000340A54A7B6EEE
S113792013441B781A067B6E0133A249CB5C1B04FB
S11379301A437B6E02339F49CB5C1B0213437A6E5E
S113794003329C498A5C1343BB647B6E002B00DAD0
S113795003339B105C1CB86C02F056FE01467B6E30
S1137960002B00DA03339B109B00BA6D13441B6891
S113797081EA0302A30007F168010B4443F8602C79
S11379807B6E04337B667B6E2B2BC7DD8A4B1B69B6
S1137990002B23D0884BD968FB6D1A1D3B6D08461C
S11379A011461A4601F00EFD78643B6D0633FA6DFC
S11379B013441B781A043B6D0533F96D0B441B7893
S11379C01B0213433A6D0432F96D0A4412781343CF
S11379D03B647A6C3B6C9A4200D01BE0774B1022DC
S11379E01A60774B1B6807F108021046984707F1A5
S11379F0080301201946FCF767FD724B1B68C3F3AB
S1137A00130340F6354202FB03F26F4B1B68134429
S1137A10694A1364612003F08BF800BF03F07EF819
S1137A20034603F00403002BF8D0684A674B1B6835
S1137A3023F00103136003E0654B1B6887F83F30B4
S1137A40644B1B6803F00403002BF5D15D4B1B68EA
S1137A50C3F3130340F6354202FB03F25A4B1B688F
S1137A6013443B66544B1A6C3B6E9A4205D93B6EE9
S1137A7003F1434303F5A0033B664F4B1B7D032BEC
S1137A8003D04D4B1B7D022B06D14B4B1B6C3A6E26
S1137A90D31A514A934203D8504B1B68012B37D158
S1137AA0FFF72CFC4D4B00221A604D4B4FF48072B3
S1137AB01A604C4B1B78DBB2012B06D1494B0022D8
S1137AC01A70494B00221A7066E0FB790A2B01D127
S1137AD000BF61E0384B01221A75642003F028F8D6
S1137AE000BF03F01BF8034603F00403002BF8D196
S1137AF03E4B1B889BB2002B03D03C4B1B889BB294
S1137B0001E040F662133A4A13803A4B01221A60AC
S1137B10294BDB882C20194602F048FF264B9B8812
S1137B202D20194602F042FF334B1B78DBB2002BA9
S1137B3001D0FEF727FC294B1B68002B07DDFEF75D
S1137B40D7FB264B1B68013B244A136017E0FDF763
S1137B5057FFFEF7C5F8274B1B68002B0CD0164BBC
S1137B601B68184602F050FD03461846FEF7D2F98A
S1137B70204B00221A6002E0622002F0D9FF1F4B62
S1137B8000221A601E4B00221A60174B1B78DBB2CE
S1137B90FA799A423FF4B1AD1A4B4FF080721A60F1
S1137BA0FEF732F9FEF7CCF8FCF7AAFF6C37BD46B6
S1137BB090BD00BF941000105804001038C0092074
S1137BC09C090010EC0B0010084000402400034006
S1137BD0080003400C00034080F0FA0294090010EE
S1137BE03CC00920400A00103F0A0010460A001059
S1137BF09C040010500A00107D090010040B0010B2
S1137C00C810001080E100E080B58CB000AF6C4B70
S1137C101B889BB2DBB2623BDBB2184601F0CEFAA2
S1137C2003461A46674B9B5C3B620023FB610023BF
S1137C30FB620EE0FB695B08FB61634AFB6A134469
S1137C401B78DB071A46FB691343FB61FB6A0133AC
S1137C50FB62FB6A1E2BEDDD1F23FB62A6E0FB69C2
S1137C605B08FB61584AFB6A13441B78DB071A461E
S1137C70FB691343FB61554B1A68FB699A4240F058
S1137C8092800023BB6248E00023FB7600237B62E2
S1137C9037E0BB6ADA007B6A1A44FB6A13441F3B71
S1137CA03B613B69B3F5487F00DB2DE0464A3B6905
S1137CB013441B787B61BB6A032B16DD444A3B6A81
S1137CC013441B781A467B6953407B613B6A01333A
S1137CD01946404BA1FB0323C81A400803449A09E0
S1137CE01346DB019B1ACA1A3A627A697B6A02FA62
S1137CF003F3DAB2FB7E1343DBB2FB767B6A013318
S1137D007B627B6A072BC4DD334B1A68BB6A13445E
S1137D10FA7E1A70BB6A0133BB62BB6A2D2BB3DDDA
S1137D202A4B1B69002B2ED02B4B1B6805331B7869
S1137D3003F03F030233FB60244BDA68264B1B68D5
S1137D40043310461946FA6801F03CFBB860224B34
S1137D501A68FB68063313441B781A041E4B19680F
S1137D60FB6805330B441B781B0213431A4A126841
S1137D70F96804310A44127813437B60BA687B685B
S1137D809A4200D017E0144B1B6801201946FCF7F7
S1137D909BFB124B10221A60114B1B680E4A12688F
S1137DA01046984707E0FB6A0133FB62FB6AB3F5B0
S1137DB0D87FFFF654AF012318463037BD4680BD47
S1137DC09C04001064C70000100D0010580400103B
S1137DD0E4C60000110804025404001038C009204D
S1137DE09C09001080B58AB000AF786000233B6224
S1137DF07B68FB617B681B79FB767B6805337B6161
S1137E007B6806333B617B691B7806331A467B68C3
S1137E101344FB608B4B1B7D022B1CD1894B03222B
S1137E201A75894B1B68874A9361864BDB8B013B30
S1137E309AB2844B9A83834B00221A84814B00228A
S1137E409A62824B1B78DBB2002B00F0F780804BE8
S1137E5028221A60F2E07B4B1B7D032B6FD1FB7E43
S1137E6003F00303FB72774B9B6A002B21D0754B05
S1137E701B8C9AB2734B9B8D9A421AD1724B1B681E
S1137E80704A93616F4BDA8D6E4BDA836D4BDB8DE9
S1137E90013B9AB26B4B9A836A4B93F83020694B3F
S1137EA083F82220674B5A8E664B9A84654B0022D6
S1137EB09A62FB7A032B41D13B691B78002B3DD19D
S1137EC07B68DA795F4B83F830207B6808331B7852
S1137ED09AB27B6809331B789BB21B029BB2134492
S1137EE09AB2584B5A867B680A331B789AB27B68DD
S1137EF00B331B789BB21B029BB213449AB2514BB7
S1137F00DA857B6810331B789AB27B6811331B784F
S1137F109BB21B029BB213449AB24A4B9A85494BBB
S1137F209B8D1A46474B1B8C9BB2D31A47F6FE72A5
S1137F30934203DC434B01229A627FE07EE0414B93
S1137F401B7D012B7AD17B6804331B7803F00F036C
S1137F50BB72BB7A052B71D13A4BDB6B002B14D06F
S1137F607B6806333B481946062204F0C1FA0346EF
S1137F70002B0AD07B680C3336481946062204F0DD
S1137F80B7FA0346002B00D058E02E4B02221A7594
S1137F902C4B00221A6100237B6211E07B6A1233AE
S1137FA01A467B6813441B781A467B6ADB0002FA84
S1137FB003F31A463B6A13433B627B6A01337B62D9
S1137FC07B6A032BEADD386AFFF77EF97B68183396
S1137FD01B781A047B6817331B781B0213437A68D7
S1137FE01632127813431A46164B9A60154B9B6847
S1137FF0184602F009FB0246124BDA607B685A7E8F
S1138000104B83F822207B681A331B789AB20D4BED
S11380109A847B681C331B789AB20A4BDA837B6898
S113802027331B7803F01F03DAB2064B9A75054B0E
S11380309A7D044B5A75084B01221A702837BD46A5
S113804080BD00BF58040010EC0B0010400A001063
S1138050940900108C0400107D09001080B500AF55
S1138060FFF74CF9044B054A1A600920FFF71EFB81
S1138070034B00221A7080BD9C090010E57D0000AE
S11380803E0A001080B592B000AF0346B9607A6032
S1138090FB7307F1140300221A60043300221A60F0
S11380A0043300221A60043300221A6004330022CD
S11380B01A60043300221A60043300221A60043365
S11380C000221A60043300221A60043300221A606A
S11380D0043300221A60043300221A60043300229D
S11380E01A8002337B68312B01D931237B60FB7BFF
S11380F03B7507F1140301331846B9687A6804F034
S113810029FA07F1140305201946FCF7DDF948376D
S1138110BD4680BD80B584B000AF7860554B1B88E8
S11381209BB240F66412934214D1534B1B68C3F3C1
S1138130130340F6354202FB03F2504B1B68134411
S11381404F4A13604F4B40F666121A804E4B012281
S11381501A708BE0474B1B889BB240F66612934221
S11381607DD1454B1B68C3F3130340F6354202FB34
S113817003F2424B1B681344FB60414B1B68FA68D3
S11381809A4205D2FB6803F1434303F5A003FB6065
S11381903B4B1B68FA68D21A3C4BDB8B194643F203
S11381A0D40303FB01F3D90F0B445B101344374A88
S11381B0D28B114643F2D40202FB01F2B3FBF2F379
S11381C0BB60BB68242B42D8314ABB6813441A787D
S11381D02E4B9A752D4BDB8B5B089AB22B4B9A83F3
S11381E02A4B00221A84294B00229A61264B002232
S11381F01A70264B9B7D5A1C264B82FB0301531895
S11382005911D317C91A0B46DB000B449B000B44CE
S1138210D11ACAB21D4B5A751C4B03221A751B4B3B
S113822000221A611C4B03221A701C4B1C4A1A6050
S113823003201C490122FFF725FF1B4B1B78DBB2EF
S1138240002B03D0194B28221A600FE00EE00D4BCF
S113825040F664121A800C4B01221A7006E0094B96
S113826040F664121A80084B01221A701037BD467A
S113827080BD00BF9C040010EC0B001008400040BF
S1138280540A0010800900107D09001058040010E1
S11382908CC70000A7C867DD7C0900109C0900108A
S11382A0E57D00006E040010400A001094090010DF
S11382B080B586B000AF7860334B1B68C3F31303FB
S11382C040F6354202FB03F2304B1B6813447B61DA
S11382D02F4B1B687A699A4203D27A692D4B134457
S11382E07B612B4B1B687A69D31A3B613B6946F26D
S11382F0A712934200D843E0274BD3F800213B69EF
S11383009A4203D9244A3B69C2F80031224BD3F87C
S1138310003103F5613303F25233204AA2FB0323F5
S11383209B0CFB811E4BDB8BFA899A421ED11A4BA4
S1138330D3F804310133184AC2F80431164BD3F888
S11383400431052B19D1174B174A1A60174B40F605
S113835064121A80164B04221A70164B01221A70EA
S1138360022015490222FFF78DFE06E00C4AFB8924
S1138370D383094B0022C3F80421054A7B691360A7
S11383801837BD4680BD00BFEC0B0010084000400C
S1138390580A0010C0ABC6C2F80B0010C1A919914D
S11383A0580400109C090010158100008009001079
S11383B07C0900107D0900107604001080B584B09B
S11383C000AF7860284B1B69002B49D17B680433CC
S11383D01B78012B44D17B6805331B78002B3FD1DC
S11383E07B6808331B781A047B6807331B781B02ED
S11383F013437A68063212781343BB607B680433F4
S1138400B8681946022200F07BFF0246164B9A60B8
S1138410154B0022DA600023FB6013E0124BDA688C
S1138420114B9968FB6821FA03F303F00101FB681F
S1138430C3F1170301FA03F313430B4AD360FB6838
S11384400133FB60FB68172BE8DD074B01221A613F
S1138450064B074A1A60012006490322FFF712FE61
S11384601037BD4680BD00BF580400109C090010A1
S1138470B18200006004001080B487B000AF78605F
S11384804FF0FF333B614FF0FF33FB6000237B6110
S113849015E0224A7B6952F833207B689A420BD15B
S11384A01E4A7B69DB0013445B685A1C1B497B69C9
S11384B0DB000B445A602CE07B6901337B617B69F0
S11384C01F2BE6DD00237B6115E0144A7B69DB008A
S11384D013445A683B699A4202DB3B69002B07DA72
S11384E07B69FB600D4A7B69DB0013445B683B617D
S11384F07B6901337B617B691F2BE6DD0749FB68E0
S11385007A6841F83320054AFB68DB0013440122F2
S11385105A601C37BD465DF8047B7047F80B0010A9
S113852090B5A1B000AF786007F11C034022184653
S11385300021FBF721FE01233B77012387F82C3030
S1138540012387F82F30012387F83C30012387F873
S11385503E30012387F84C30012387F84E30012345
S113856087F84F300023FB6741E0A54B1B889BB283
S1138570DBB2623BDBB2184600F020FE03461A462B
S1138580A04B9B5C3B670023BB672AE0FB6F1B018E
S113859007F180021A44BB6F1344643B1A789A496A
S11385A03B6F0B441B785340D9B2FB6F1B0107F19F
S11385B080021A44BB6F1344643B0A461A703B6F33
S11385C001331946914BA1FB0323C81A4008034405
S11385D09A091346DB019B1ACA1A3A67BB6F013327
S11385E0BB67BB6F0F2BD1DDFB6F0133FB67FB6FE9
S11385F0032BBADD2023FB67D0E0854B07F10C0485
S11386000FCB84E80F004FF0FF33FB660023BB67FA
S113861026E000237B671DE0FA6F7B6F13441A4644
S11386207B6813441A78BB6F1B0107F1800119445E
S11386307B6F0B44643B1B789A4208D0BB6F9B0052
S113864007F180021344002243F8742C05E07B6F89
S113865001337B677B6F0F2BDEDDBB6F0133BB67A1
S1138660BB6F032BD5DD0023BB670EE0BB6F9B0004
S113867007F18002134453F8743C002B02D0BB6F03
S1138680FB6605E0BB6F0133BB67BB6F032BEDDDFE
S1138690FB6E002B7FDB5A4B1B889BB2DBB2623B29
S11386A0DBB2184600F08AFD03461A46554B9B5C24
S11386B03B670023BB674CE0002387F86B30002343
S11386C07B6739E0BB6FDA007B6F1A44FB6F13449E
S11386D0203B3B663B6EB3F5487F00DB2FE03B6EEF
S11386E07A6813441B787B66BB6F032B16DD464AFE
S11386F03B6F13441B781A467B6E53407B663B6F7B
S113870001331946414BA1FB0323C81A4008034413
S11387109A091346DB019B1ACA1A3A677A6E7B6F71
S113872002FA03F3DAB297F86B301343DBB287F83B
S11387306B307B6F01337B677B6F072BC2DD354B5F
S11387401A68BB6F134497F86B201A70BB6F013320
S1138750BB67BB6F092BAFDD2E4B1B6803331B7844
S11387601A062C4B1B6802331B781B041A43294B33
S11387701B6801331B781B021343264A12681278C4
S11387801343FB65F86DFFF777FE224B1B6801204E
S11387901946FBF799FEFB6F0133FB67FB6FB3F5DB
S11387A03C7FFFF62AAF0023FB6720E01A4AFB6FE9
S11387B0DB0013445B68032B16DD174AFB6F52F88A
S11387C033301846FEF780FD144B154A1A60154BDA
S11387D0154A1A60154B00221A610020134904221D
S11387E0FFF750FC002306E0FB6F0133FB67FB6FD0
S11387F01F2BDBDD012318468437BD4690BD00BF27
S11388009C04001064C70000E4C6000011080402C0
S113881084CF000054040010F80B001098090010D5
S1138820097C00009C090010BD830000580400105E
S113883080B500AF2CE0FEF7ADFD184B1B889BB252
S113884003F00103002B03D0144B40F688121A8066
S1138850134BDB6B002B07D1FCF7FAF8114B124AD0
S11388601A600A20FEF7A6FD104B1B78DBB20A2B18
S113887000D012E000200A490422FFF703FC0C4B4D
S11388800C4A1A60064B00221A610A20FEF70EFFFA
S1138890064B1B78DBB20A2BCDD080BD9C040010A4
S11388A05804001098090010218500003F0A0010A8
S11388B09C090010BD83000090B589B000AF354A13
S11388C03B1D144620686168A26807C3A2891A8008
S11388D00B23FB760023FB610EE0FB690233FA698C
S11388E0C2F105022C498A5C07F120010B4403F80C
S11388F01C2CFB690133FB61FB69052BEDDD274B68
S1138900D968FB7E3A1D084611461A4600F0B4FCAD
S11389107861FB7E7A69D2B207F120010B4403F837
S11389201C2CFB7E01337A69120AD2B207F12001B2
S11389300B4403F81C2CFB7E02337A69120CD2B26E
S113894007F120010B4403F81C2C1BE0144B4FF0DF
S113895080721A60124B4FF080621A60FB7E033300
S1138960DAB23B1D0F4811461A46FDF745FB0E4B84
S11389704FF080721A600C4B4FF080621A606420D2
S1138980FCF73EFF094B1B78DBB20C2BDED02437FF
S1138990BD4690BD94CF00008C090010580400100F
S11389A080E100E0D6BE898E00E100E03F0A0010BD
S11389B090B591B000AF002387F83D305A4B102298
S11389C01A6000F07BFD594B80221A60122042F697
S11389D0223101F0EBFF142041F24B3101F0E6FFAC
S11389E0202040F2011101F0E1FF0320292101F0D0
S11389F0DDFF00BF02F092F8034603F04003002BB2
S1138A00F8D000BF02F08AF8034603F00403002BF9
S1138A10F8D17AE0464B1B88FB876FE0FB8F013B64
S1138A209BB20220194601F0C1FF612002F080F8D8
S1138A3000BF02F073F8034603F00403002BF8D0E0
S1138A40622002F075F84FF4FA737B6000BF7B6814
S1138A50013B7B60002BFAD197F83D2013465B0065
S1138A601344FA8F120A92B2D2B207F140010B44B6
S1138A7003F8382C97F83D2013465B001344013368
S1138A80FA8FD2B207F140010B4403F8382C97F85F
S1138A903D2013465B0013449C1C062001F070FF2C
S1138AA003461B0A9BB2DAB207F14003234403F8DE
S1138AB0382C97F83D30013387F83D3097F83D3036
S1138AC0102B0DD107F1080304201946FBF7FCFC19
S1138AD0002387F83D30174B1B68184600F08EFDC5
S1138AE0642002F025F800BF02F018F8034603F0F2
S1138AF00403002BF8D1FB8F0133FB87FA8F0E4B55
S1138B001B889BB201339A4288DB0C4B1B78DBB287
S1138B10042B3FF47FAF0A4B00221A70094B10223A
S1138B201A604437BD4690BD38C0092058C009209A
S1138B309E040010EC0B0010A00400103F0A00106B
S1138B403E0A00103CC0092080B584B000AF002369
S1138B50FB735B4A07F108031068186092889A80D7
S1138B60584B80221A60122042F6223101F01EFF77
S1138B70142041F24B3101F019FF202040F2011181
S1138B8001F014FF0320292101F010FF0620F12138
S1138B9001F00CFF00BF01F0C1FF034603F04003E6
S1138BA0002BF8D000BF01F0B9FF034603F0040323
S1138BB0002BF8D179E0FB7B5B0007F11002134432
S1138BC033F8083C013B9BB20220194601F0EEFE4B
S1138BD0612001F0ADFF00BF01F0A0FF034603F0E8
S1138BE00403002BF8D0622001F0A2FF4FF4FA73C3
S1138BF07B6000BF7B68013B7B60002BFAD10620C1
S1138C0001F0BEFE03461B0A9BB2BB732E4B1B78BE
S1138C10DBB297F90E205BB29A4215DDFB7B012B88
S1138C2009D0022B0BD0002B00D021E0274B4FF4AE
S1138C3080721A6007E0254B10221A6003E0234B70
S1138C4002221A6000BF13E0FB7B012B08D0022B29
S1138C500AD0002B0CD11E4B4FF480721A6007E02F
S1138C601B4B10221A6003E0194B02221A6000BF4A
S1138C70FB7B5A1C174B83FB0231D317C91A0B46D3
S1138C805B000B44D11A0B46FB73134B1B6818464D
S1138C9000F0B4FC642001F04BFF00BF01F03EFF84
S1138CA0034603F00403002BF8D10C4B1B78DBB212
S1138CB0072B80D00A4B00221A701037BD4680BDA6
S1138CC0A4CF000058C00920A204001038C0092015
S1138CD03CC0092056555555EC0B00103F0A0010B6
S1138CE03E0A001080B500AF01F084FDFCF7AEFC35
S1138CF04B4800F0BBFB4B4B1B68184600F07EFC56
S1138D00494B1B78DAB2494B1B78DBB29A4200F02C
S1138D108680454B1B78DBB20F2B7FD801A252F81B
S1138D2023F000BF178E0000718D00001D8E00001F
S1138D30B38D0000F78D0000C38D0000E98D0000A5
S1138D40FD8D0000958D0000A18D0000A78D000011
S1138D50658D0000AD8D0000038E00007D8D000048
S1138D60898D0000012001F03DFC01F0EBFF56E08D
S1138D702E4B01221A70FDF7F7FE50E02B4B0E220A
S1138D801A70FDF725FD4AE0284B0F221A70FDF7F3
S1138D9005FC44E0254B08221A70FEF7C3F83EE0B8
S1138DA0FFF75CF93BE0FFF743FD38E0FFF784FD94
S1138DB035E01E4B03221A701D481E4900F092FF35
S1138DC02DE01A4B05221A701A4800F035FC174B97
S1138DD000221A70144B1B78DBB2052B03D1124B03
S1138DE000221A701BE01AE0104B06221A70114878
S1138DF000F040FE13E0FFF7DBFD10E0FFF7A4FEF8
S1138E000DE00A4B0D221A700B4B1B78DBB218468F
S1138E1001F036FB03E0FCF7F7FF00E000BF6AE770
S1138E203D4B0000EC0B00103F0A00103E0A0010FE
S1138E30420A00109C040010410A001090B492B041
S1138E4000AF0346FB710B46BB711346BB80FB7935
S1138E5003F01F03FB71BB7903F01F03BB71BB88D5
S1138E60C3F30803BB805C4A07F11C031446206863
S1138E706168A26807C3A2891A80584A07F10C03E3
S1138E80144620686168A26807C3A2891A80002377
S1138E907B6410E0BA887B6C42FA03F3DBB203F024
S1138EA00103D9B207F12C027B6C13440A461A70F1
S1138EB07B6C01337B647B6C082BEBDD00237B64D0
S1138EC011E07B6C0933B9797A6C41FA02F2D2B2BF
S1138ED002F00102D2B207F148010B4403F81C2C42
S1138EE07B6C01337B647B6C042BEADD00237B64A5
S1138EF010E0FA797B6C42FA03F3DBB203F001036E
S1138F00D9B207F13C027B6C13440A461A707B6C9D
S1138F1001337B647B6C042BEBDD0D237B6436E037
S1138F2007F12C027B6C13441B78002B2CD007F127
S1138F301C027B6C13441B7807F14802134413F89A
S1138F400C3C87F8423007F11C027B6C13441B78FD
S1138F50194607F10C027B6C13441B7807F1480295
S1138F60134413F80C2C07F148030B4403F80C2C9E
S1138F7007F10C027B6C13441B7807F1480213447D
S1138F8097F8422003F80C2C7B6C013B7B647B6CD0
S1138F90002BC5DA002387F8433000237B6411E0FB
S1138FA007F13C027B6C13441B781A467B6C02FA73
S1138FB003F3DAB297F84330134487F843307B6CF9
S1138FC001337B647B6C042BEADD97F8433018464D
S1138FD04837BD4690BC7047ACCF0000BCCF000002
S1138FE080B58AB000AF78607B689B08DBB203F081
S1138FF01F0387F826307B685B08DBB203F00103AC
S113900087F8253097F825309BB25B017B847B6819
S11390105B0DDAB24B4B1B785340DBB203F01F03FA
S113902087F821307B681B0CDAB2474B1B7853401E
S1139030DBB203F01F0387F820307B68DB099AB2A8
S1139040424B1B8853409BB2C3F30803FB837B68EA
S1139050DB0823F07E4323F00F03BB61B9693C4B6B
S1139060A3FB01239A0913469B0013441B019B1A7B
S1139070CB1A7B6197F8262097F821301344DBB292
S1139080DBB203F01F03DAB2324B1B78DBB253407E
S1139090DBB2D9B297F825301A465201D31ADBB2A3
S11390A0DAB297F820305340DBB2DAB2FB8B0846D1
S11390B011461A46FFF7C2FE0346FB74FB7C264AA0
S11390C0127813441A467B691A447B8CD118204BBE
S11390D0A3FB01239A0913469B0013441B019B1A0B
S11390E0CA1A1E4B9B5C87F827301D4B1B78002B3C
S11390F01DD01C4B1B781A46BB69B3FBF2F102FB73
S113910001F29B1AFB60FB7C134A127813441A4643
S1139110FB681A447B8C1344124A1278B3FBF2F1B5
S113912002FB01F29B1A104AD35C87F8273097F8A8
S113913027309BB203F662139BB218462837BD460C
S113914080BD00BF3311001034110010E210001074
S1139150A97464CFE01000108711001038110010BA
S113916038100010E1100010E410001080B584B035
S113917000AF78607B685B7D184600F04BF80346CF
S1139180FB817B685B7D1A467B689B7D1A440A4B96
S113919082FB030153185911D317C91A0B46DB007C
S11391A00B449B000B44D11ACAB27B685A75FB89E5
S11391B018461037BD4680BDA7C867DD80B485B0AA
S11391C000AF0346FB71FB795B08FB71FB79002B55
S11391D002D12523FB7315E0FB790B2B03D8FB7914
S11391E0013BFB730EE0FB790C2B02D12623FB73AE
S11391F008E0FB79262B03D8FB79023BFB7301E0E3
S11392002723FB73FB7B18461437BD465DF8047BAC
S1139210704700BF80B485B000AF0346FB71FB7993
S11392200A2B06D8FB7903F2B2439BB25B00FB81A5
S11392301AE0FB79242B06D8FB7903F2B3439BB2E3
S11392405B00FB8110E0FB79252B03D140F6621310
S1139250FB8109E0FB79262B03D140F67A13FB81CD
S113926002E04FF41B63FB81FB8918461437BD46AB
S11392705DF8047B704700BF80B48BB000AFF8602A
S1139280B9607A60FB6823F07F437B621B4B7B6190
S113929000233B6227E03B6ABA6813441B78FB76E1
S11392A00023FB6119E0FA7E7B6A534003F001035B
S11392B03B61FB7E5B08FB767B6A5B087B623B69F8
S11392C0002B07D07B6A43F400037B627A6A7B69D4
S11392D053407B62FB690133FB61FB69072BE2DDD1
S11392E03B6A01333B623A6A7B689A42D3DB7B6A0E
S11392F018462C37BD465DF8047B704700605A0061
S113930080B48DB000AFF860B9607A60FB68FB622E
S11393102B4BFB617B68013B7B622DE07B6ABA6867
S113932013441B78FB7600233B621FE0FB6ADB0DD2
S11393307B61FB6A5B0023F07F43FB62FA7E3B6A3E
S1139340C3F1070342FA03F303F001027B695340BC
S11393501A46FB6A1343FB627B69002B03D0FA6A4B
S1139360FB695340FB623B6A01333B623B6A072B58
S1139370DCDD7B6A013B7B627B6A002BCEDA002357
S1139380BB6200237B6210E0FA6A7B6A22FA03F371
S113939003F001027B6AC3F1170302FA03F3BA6A0A
S11393A01343BB627B6A01337B627B6A172BEBDD61
S11393B0BB6A18463437BD465DF8047B704700BF6E
S11393C000C0B40080B489B000AFF860B9607A60BE
S11393D0FB6823F07F43FB610023BB6112E0BB69A0
S11393E0BA6813441A78FB69DBB25340FB75FB6916
S11393F01A0AFB7D094951F823305340FB61BB69CC
S11394000133BB61BA697B689A42E8DBFB691846A1
S11394102437BD465DF8047B704700BFA8040010E4
S113942090B587B000AFF860B9607A60FB685B887C
S11394303B82FB689B887B820B4B1C68FB685978DA
S11394407B681B6807F11002084611461A46BB6880
S1139450A04778617B69012B0CBF01230023DBB299
S113946018461C37BD4690BD8C32001080B582B0C2
S113947000AF786001F0CCFD0B4802F02BFA0B4AE8
S11394807B68136002200A490A4A01F09DFDFF200F
S1139490094902F0C9F9012001F0FCFE0023184635
S11394A00837BD4680BD00BFCCCF00008C32001011
S11394B0219400008831001090D0000080B400AFE7
S11394C0044B00221A60044B00221A60BD465DF86A
S11394D0047B70475C0A0010600A001080B483B0FB
S11394E000AF134B1B68DBB203F07F03FB71114B1E
S11394F01B68DBB203F07F03BB71BB790133DBB2C2
S113950003F07F037B71FA797B799A4201D10023BE
S113951008E0084B1B680133064A1360BB799B01C2
S1139520054A134418460C37BD465DF8047B704762
S11395305C0A0010600A00108811001080B483B027
S113954000AF104B1B68DBB203F07F03FB710E4BC3
S11395501B68DBB203F07F03BB71FA79BB799A42D3
S113956001D1002308E0074B1B680133054A13604F
S1139570FB799B01054A134418460C37BD465DF838
S1139580047B70475C0A0010600A00108811001008
S113959080B584B000AF786007F10C031846FFF77C
S11395A0CDFF0346FB60FB68002B0AD0114A7B68A1
S11395B01360FB6882201946402201F0C7FE012394
S11395C013E00C4B1B687A68D31A0B4A93420BD9ED
S11395D00323FB72074A7B68136007F10B038220A5
S11395E01946012201F0B2FE002318461037BD4689
S11395F080BD00BF640A0010801A060080B584B0E4
S113960000AF7860822001F065FE0346FB73FB7BAC
S113961003F02003002B02D17868FFF7B9FFFB7B2E
S113962003F04003002B02D17868FFF7B1FF01F08B
S113963053FF1037BD4680BD2DE9F04F95B000AF04
S1139640786069463960162187F84610002187F84A
S1139650471097F84660314601393964F0B24FF04B
S113966000014FEAC10B4BEA507B4FEAC00AF0B24B
S11396704FF000014FEAC10949EA50794FEAC008A6
S113968031460731C908C900ADEB010D6946003107
S1139690F96397F8466031460139B963F0B24FF087
S11396A00001CD0045EA5075C400F0B24FF000014E
S11396B0CB0043EA5073C20033460733DB08DB00B8
S11396C0ADEB030D6B4600337B6397F84630013BEB
S11396D0DAB2FB6B1A70FB6B00225A703A233B62BE
S11396E0B34B1B6807F1200107F10C020846114631
S11396F09847FB68DBB2002B01D00023ACE13B6947
S11397001B0EDAB2FB6B9A703B691B0CDAB2FB6B73
S1139710DA703B691B0ADAB2FB6B1A713B69DAB285
S1139720FB6B5A717B691B0EDAB2FB6B9A717B6916
S11397301B0CDAB2FB6BDA717B691B0ADAB2FB6BC6
S11397401A727B69DAB2FB6B5A72BB691B0EDAB20E
S1139750FB6B9A72BB691B0CDAB2FB6BDA72BB69E6
S11397601B0ADAB2FB6B1A73BB69DAB2FB6B5A736E
S1139770FB691B0EDAB2FB6B9A73FB691B0CDAB242
S1139780FB6BDA73FB691B0ADAB2FB6B1A74FB69B5
S1139790DAB2FB6B5A74FB6B97F847209A74FB6B35
S11397A00022DA74FB6BFF221A75FB6BFF225A75D9
S11397B0122042F6223101F0F9F8142041F24B3123
S11397C001F0F4F8202040F6F15101F0EFF87B6845
S11397D01B889BB20220194601F0E8F82D204FF6B1
S11397E0AE1101F0E3F82C2041F2845101F0DEF8CF
S11397F097F8473043F00803DBB29BB205201946C3
S113980001F0D4F80320292101F0D0F800BF01F0C1
S113981085F9034603F04003002BF8D0612001F0E2
S113982087F900BF01F07AF9034603F00403002B23
S1139830F8D0604B4FF480721A605F4B80221A603C
S1139840002387F847303EE097F8473043F0080399
S1139850DBB29BB20520194601F0A8F8FB6B97F820
S113986047209A740023FB6425E0FB6CDAB2FB6B9F
S1139870DA7400BF0E2001F083F8034603F01F03DF
S11398800F2BF7D10023BB640AE0FA6BBB6C1344C3
S11398901B787020194601F0B7F8BB6C0133BB6428
S11398A097F84620BB6C9A42EFDC632001F040F944
S11398B0FB6C0133FB64FB6C0F2BD6DD97F8473050
S11398C0013387F8473097F84730072BBCD900BFDE
S11398D00E2001F055F8034603F01F030F2BF7D1B8
S11398E0364B4FF480721A60642001F021F900BFF6
S11398F001F014F9034603F00403002BF8D17B684C
S11399001B889BB2013B9BB20220194601F04EF822
S113991000BF01F003F9034603F04003002BF8D025
S1139920612001F005F900BF01F0F8F8034603F0E7
S11399300403002BF8D01F4B10221A6000BF0E2026
S113994001F01EF8034603F01F030F2BF7D162202A
S113995001F0EEF800BF01F0E1F8034603F0100354
S1139960002BF8D0134B02221A600023BB640CE0D6
S1139970702001F02FF8034619467A6BBB6C134430
S11399800A461A70BB6C0133BB6497F84620BB6C63
S11399909A42EDDC01F0C2F8034603F00803002B01
S11399A001D000BF0CE0054B02221A60C6E700BFDD
S11399B0A808001038C0092058C009203CC009205C
S11399C00E2000F0DDFF034603F01F030F2BF7D139
S11399D0642001F0ADF800BF01F0A0F8034603F0E5
S11399E00403002BF8D1204B80221A601F4B102255
S11399F01A601F4B01221A707B6B9A7C1C4B5A70A5
S1139A007B6BDA7C1A4B9A707B6B1A7D184BDA707D
S1139A107B6B5A7D164B1A71FB6B01225A70002323
S1139A20FB6412E07A6BFB6C13441A78F96BFB6CE1
S1139A300B441B789A4205D0FB6CDBB20233DAB2DA
S1139A400B4B1A70FB6C0133FB64FB6C112BE9DDCF
S1139A50064B02221A600123D7F800D0012B543799
S1139A60BD46BDE8F08F00BF5CC009203CC00920A2
S1139A708C100010F0B589B000AF78601621B9756C
S1139A800021F975BE7D314601393961F0B24FF0DC
S1139A900001CD0045EA5075C400F0B24FF000015A
S1139AA0CB0043EA5073C20033460733DB08DB00C4
S1139AB0ADEB030D6B460033FB60122042F62231FE
S1139AC000F074FF142041F24B3100F06FFF7B680B
S1139AD01B889BB2013B9BB20220194600F066FF33
S1139AE02D204FF6AE1100F061FF2C2041F284517D
S1139AF000F05CFF0520082100F058FF0320292115
S1139B0000F054FF00BF01F009F8034603F04003DE
S1139B10002BF8D0612001F00BF800BF00F0FEFF2D
S1139B20034603F00403002BF8D06A4B10221A609A
S1139B30694B4FF480721A60674B02221A60674BBC
S1139B4080221A6000BF0E2000F01AFF034603F0C3
S1139B501F030F2BF7D1604B02221A60622000F022
S1139B60E7FF00BF00F0DAFF034603F01003002B09
S1139B70F8D0584B02221A600023FB610CE07020DD
S1139B8000F028FF03461946FA68FB6913440A46A5
S1139B901A70FB690133FB61BA7DFB699A42EEDC02
S1139BA000F0BCFF034603F00803002B03D000BF02
S1139BB04B4BFB6100E0C5E7FB69013BFB61FB69C3
S1139BC0002BF9D1444B02221A60434B10221A6035
S1139BD0642000F0ADFF00BF00F0A0FF034603F0D7
S1139BE00403002BF8D100BF00F098FF034603F0F4
S1139BF04003002BF8D07B681B889BB202201946D7
S1139C0000F0D4FE00BF00F089FF034603F04003D8
S1139C10002BF8D0612000F08BFF2E4B4FF48072A4
S1139C201A60BB7D013BDAB2FB681A70FB68012243
S1139C305A700023FB7539E0FB7D43F00803DBB267
S1139C409BB20520194600F0B1FEFB68FA7D1A7537
S1139C500023FB6124E0FB69DAB2FB685A7500BF9C
S1139C600E2000F08DFE034603F01F030F2BF7D1E7
S1139C700023BB610AE0FA68BB6913441B787020B7
S1139C80194600F0C1FEBB690133BB61BA7DBB69F3
S1139C909A42F0DC632000F04BFFFB690133FB6167
S1139CA0FB690F2BD7DDFB7D0133FB75FB7D072B98
S1139CB0C2D9094B4FF480721A60642000F038FF57
S1139CC000BF00F02BFF034603F00403002BF8D180
S1139CD0F3E600BF38C009203CC0092058C0092061
S1139CE080841E0080B584B000AF786039607B68E2
