S0160000626C7565746F6F74685F727874782E7372656303
S1134000E03F0010B9B0000025B1000025B1000068
S113401025B1000025B1000025B10000000000001A
S113402000000000000000000000000025B10000B6
S113403025B100000000000025B1000025B10000FA
S113404025B100002556000025B1000025B100006F
S113405025B1000025B1000025B1000025B1000004
S113406025B1000025B1000025B1000025B10000F4
S113407025B1000025B1000025B1000025B10000E4
S113408025B1000025B1000025B1000025B10000D4
S113409025B100004157000025B1000025B1000002
S11340A0ADB0000025B10000095C000025B100009E
S11340B025B1000025B1000025B1000025B10000A4
S11340C025B1000025B1000025B1000010B5054C54
S11340D0237833B9044B13B10448AFF300800123B0
S11340E0237010BD600900100000000080DC000097
S11340F0084B10B51BB108480849AFF300800848C5
S1134100036803B910BD074B002BFBD0BDE810407A
S1134110184700BF0000000080DC000064090010A4
S1134120600900100000000070B50F4E0F4D761BA3
S1134130B61018BF002405D0013455F8043B984745
S1134140A642F9D10A4E0B4D09F09AFD761BB61022
S113415018BF002406D0013455F8043B9847A64202
S1134160F9D170BD70BD00BF8CDC00008CDC000098
S113417094DC00008CDC000070B4840746D0541E2C
S1134180002A41D0CDB2034602E0621EE4B31446D5
S113419003F8015B9A07F8D1032C2ED9CDB245EA76
S11341A005250F2C45EA054519D9264603F11002C9
S11341B0103E0F2E42F8105C42F80C5C42F8085C8A
S11341C042F8045C02F11002F2D8A4F1100222F0C9
S11341D00F0204F00F041032032C13440DD91E46B1
S11341E02246043A032A46F8045BFAD8221F22F036
S11341F003020432134404F003042CB1C9B21C4476
S113420003F8011BA342FBD170BC7047144603465C
S1134210C2E700BF024B13B1024800F005B8704773
S1134220000000003542000001460020024603461B
S113423000F016B838B5084B084DED1AAC1018BF8D
S1134240ED1805D0013C55F8043D9847002CF9D1F0
S1134250BDE8384009F01EBDA0DC0000A4DC00006D
S11342602DE9F047254C064625688846D5F848418F
S113427092469946C4B360681F2817DC411C76B186
S113428004EB8003C3F888A0D4F88851012282404B
S11342901543022EC4F88851C3F808911ED0831C1C
S11342A06160002044F82380BDE8F087144B03B319
S11342B04FF4C870AFF300800446D0B1D5F848314C
S11342C0002784E888003846C5F848410121C4F82D
S11342D08871C4F88C71002EE1D0D1E7D4F88C3108
S11342E01A43C4F88C21DAE705F5A674C5F84841E9
S11342F0C1E74FF0FF30BDE8F08700BFC8D1000030
S11343000000000080B400AF074B00221A70074B76
S113431000221A60064B80221A70064B7F221A7004
S1134320BD465DF8047B7047490A00104C0A001032
S1134330140B0010C80B001080B483B000AF034608
S1134340FB71144B1B785AB297F907309342B8BFEC
S11343501346DAB20F4B1A700F4B1B785AB297F907
S113436007309342A8BF1346DAB20B4B1A7097F981
S113437007301A02094B1B681344084A1360084BA0
S11343801B780133DAB2064B1A700C37BD465DF860
S1134390047B7047140B0010C80B00104C0A00106B
S11343A0490A001080B485B000AF1F4B1B78002B66
S11343B006D01E4B1B889BB2A3F66213FB6001E080
S11343C00023FB601A4B1B78002B08D0194B1B6889
S11343D08033174A127893FBF2F3BB6001E00023A9
S11343E0BB60154AFB6832F813301AB213469B01BE
S11343F09B1A9B0013447B60BA6813465B0013440A
S11344007A6813447B607B688033002B00DAFF33C7
S11344101B1299B2084AFB6822F813101437BD46E0
S11344205DF8047B704700BF7C0900109C040010F9
S1134430490A00104C0A0010A009001080B582B08F
S113444000AF03460A46FB711346BB7197F9073068
S113445013F1140F0DD097F9073013F1130F08DA85
S113446097F907306FF077029342B8BF1346DBB277
S113447000E0EC23FB71FB793833DBB29BB203F031
S1134480FC039AB2BB799BB203F003039BB21343C0
S11344909BB29BB20620194607F02CF8084AFB7918
S11344A0137097F9073013F1770FB4BF012300237A
S11344B0DBB21A46034B1A700837BD4680BD00BFF5
S11344C04D0400107E09001080B588B000AF03468B
S11344D03960FB7105F0FAFDF861FB69002B09D125
S11344E0524B1B78DBB243F00403DAB24F4B1A7021
S11344F0002397E0FB69FA791A70FB79042B13D136
S11345004B4B1B681B0DDAB2FB69DA70484B1B6816
S1134510C3F3130340F6354202FB03F2454B1B6819
S11345201A44FB695A6008E0434B1B68DAB2FB6922
S1134530DA70424B1A68FB695A60414B1B889BB284
S1134540DBB2623BDAB2FB699A703E4B1B78DAB29B
S1134550FB695A723C4B1B78DAB2FB691A723B4B0B
S11345601A78FB691A733A4B1B683A4A127893FB20
S1134570F2F3DAB2FB699A72374B02221A60FB69D2
S11345800E33BB613B687B617B691A68BB691A6047
S1134590BB6904337A6952681A60BB6908337A6963
S11345A092681A60BB690C337A69D2681A60BB6975
S11345B010337A6912691A60BB6914337A695269D3
S11345C01A60BB6918337A6992691A60BB691C3333
S11345D07A69D2691A60BB6920337A69126A1A60EF
S11345E0BB6924337A69526A1A60BB6928337A69D1
S11345F0926A1A60BB692C337A69D26A1A60FB69C1
S11346000E333B613B68FB603B693033FA68128EC2
S11346101A80064B1B78DAB2FB695A70034B0022EE
S11346201A70012318462037BD4680BD480A001081
S1134630F40B00100840004044100010D80B001088
S113464088090010C80B0010140B0010F80B0010A0
S11346504C0A0010490A001038C0092080B588B0FF
S113466000AF03463960FB7105F030FDF861FB696A
S1134670002B09D13D4B1B78DBB243F00403DAB2C3
S11346803A4B1A7000236DE0FB69FA791A70384BC3
S11346901A68FB695A60374B1B889BB2DBB2623BDA
S11346A0DAB2FB699A70344B1B68344A127893FB74
S11346B0F2F3DAB2FB699A72314B02221A60FB6997
S11346C00E33BB613B687B617B691A68BB691A6006
S11346D0BB6904337A6952681A60BB6908337A6922
S11346E092681A60BB690C337A69D2681A60BB6934
S11346F010337A6912691A60BB6914337A69526992
S11347001A60BB6918337A6992691A60BB691C33F1
S11347107A69D2691A60BB6920337A69126A1A60AD
S1134720BB6924337A69526A1A60BB6928337A698F
S1134730926A1A60BB692C337A69D26A1A60FB697F
S11347400E333B613B68FB603B693033FA68128E81
S11347501A80064B1B78DAB2FB695A70034B0022AD
S11347601A70012318462037BD4680BD480A001040
S11347703C1000109C0400104C0A0010490A001060
S113478038C0092080B588B000AF03463960FB719A
S113479005F09CFCF861FB69002B09D13D4B1B78AB
S11347A0DBB243F00403DAB23A4B1A7000236DE033
S11347B0FB69FA791A70384B1B68DAB2FB69DA7054
S11347C0364B1A68FB695A60354B1B889BB2DBB2C7
S11347D0623BDAB2FB699A70324B1A78FB691A733E
S11347E0314B02221A60FB690E33BB613B687B616B
S11347F07B691A68BB691A60BB6904337A695268B9
S11348001A60BB6908337A6992681A60BB690C3311
S11348107A69D2681A60BB6910337A6912691A60BE
S1134820BB6914337A6952691A60BB6918337A69AF
S113483092691A60BB691C337A69D2691A60BB69D0
S113484020337A69126A1A60BB6924337A69526A1E
S11348501A60BB6928337A69926A1A60BB692C337F
S11348607A69D26A1A60FB690E333B613B68FB606C
S11348703B693033FA68128E1A80064B1B78DAB221
S1134880FB695A70034B00221A7001231846203723
S1134890BD4680BD480A001044100010080B0010EB
S11348A088090010F80B001038C0092080B588B0C2
S11348B000AF03463960FB7105F008FCF861FB6941
S11348C0002B09D13D4B1B78DBB243F00403DAB271
S11348D03A4B1A7000236CE0FB69FA791A70384B72
S11348E01A68FB695A60374B1B889BB2DBB2623B88
S11348F0DAB2FB699A70344B1A78FB699A72334BBB
S11349001A78FB695A73324B02221A60FB690E3320
S1134910BB613B687B617B691A68BB691A60BB69D0
S113492004337A6952681A60BB6908337A699268F9
S11349301A60BB690C337A69D2681A60BB69103398
S11349407A6912691A60BB6914337A6952691A6008
S1134950BB6918337A6992691A60BB691C337A6936
S1134960D2691A60BB6920337A69126A1A60BB691A
S113497024337A69526A1A60BB6928337A69926A65
S11349801A60BB692C337A69D26A1A60FB690E33E8
S11349903B613B68FB603B693033FA68128E1A80D6
S11349A0064B1B78DAB2FB695A70044B00221A706A
S11349B0012318462037BD4680BD00BF480A0010B9
S11349C0100B00108809001041100010F90B0010A2
S11349D038C0092080B586B000AF0346B9607A605C
S11349E0FB7305F073FB78617B69002B09D1144BD1
S11349F01B78DBB243F00403DAB2114B1A700023C4
S1134A0019E07B69FA7B1A707B697A685A600D4BEE
S1134A101A787B699A720C4B1A787B69DA720B4BA1
S1134A2002221A60064B1B78DAB27B695A70044B77
S1134A3000221A70012318461837BD4680BD00BFF6
S1134A40480A001041100010F90B001038C009206A
S1134A5080B582B000AF174B1B78002B1DD0164BCE
S1134A601B785BB2002B18DD144B1B889BB2A3F69A
S1134A706213134A32F813301BB28033002B00DA6E
S1134A80FF331B12BB71BA790B4B1B78DBB2134497
S1134A90DBB2363BDBB2FB7102E0074B1B78FB71E8
S1134AA097F9073018460321FFF7C8FC0837BD46BD
S1134AB080BD00BF7C0900104C0400109C04001051
S1134AC0A009001080B400AF094B00221A70094BF2
S1134AD04FF400121A60084B04221A60074A074B6D
S1134AE01B6843F004031360BD465DF8047B704704
S1134AF0D410001000E100E0AC800240B480024019
S1134B0080B400AF094A094B1B6823F00403136007
S1134B10074B04221A60074B4FF400121A60064B2D
S1134B2000221A70BD465DF8047B7047B4800240D1
S1134B30AC80024080E100E0D41000102DE9F04F79
S1134B4095B000AFB9607A603B600346FB73002305
S1134B507B64FB7B422B00F24D8501A252F823F0CB
S1134B606D4C0000774C0000F5550000F94C000036
S1134B701B4D0000374D0000594D0000754D0000DD
S1134B80974D0000B74D0000D94D0000755000004E
S1134B909B5000004D4E0000714E0000F94D000086
S1134BA04F4F00006F4F0000874F0000A74F0000D9
S1134BB0C34F00004F5000005750000069500000E0
S1134BC0A5500000C3500000F5550000FD50000042
S1134BD0CB4F0000E74F00000F50000007500000CB
S1134BE0175000007F51000059510000F35100009C
S1134BF0015200001152000023520000EF52000045
S1134C0035530000C3530000295400004B540000E6
S1134C107B540000F9550000AD540000C35400005B
S1134C20DF540000F55400002155000067530000D4
S1134C30995300003D55000081550000C15100000A
S1134C4093550000F55500006B550000D755000042
S1134C50E3550000A94C0000E94C0000874C00001B
S1134C60C94C0000B94C0000D94C00003B6800223C
S1134C701A6000F0C2BC774B01221A703B68002214
S1134C801A6000F0BABC734B10221A70BB681A8801
S1134C90714B1A80704B1B889AB2704B1A803B6818
S1134CA000221A6000F0A9BC6A4B0E221A703B68FD
S1134CB000221A6000F0A1BC664B12221A703B68F5
S1134CC000221A6000F099BC624B11221A703B68F2
S1134CD000221A6000F091BC5E4B13221A703B68EC
S1134CE000221A6000F089BC5A4B0F221A703B68EC
S1134CF000221A6000F081BC594B1B6803F00203C8
S1134D00002B14BF01230023DBB21A467B681A7000
S1134D103B6801221A6000F070BCBB681B88002B42
S1134D2004D0504B02221A6000F067BC4E4B0222A2
S1134D301A6000F062BC4A4B1B6803F01003002B9E
S1134D4014BF01230023DBB21A467B681A703B6848
S1134D5001221A6000F051BCBB681B88002B04D0F0
S1134D60404B10221A6000F048BC3F4B10221A60DE
S1134D7000F043BC3A4B1B6803F48073002B14BF50
S1134D8001230023DBB21A467B681A703B680122B8
S1134D901A6000F032BCBB681B88002B05D0314B75
S1134DA04FF480721A6000F028BC2F4B4FF48072CD
S1134DB01A6000F022BC2A4B1B6803F40073002B1A
S1134DC014BF01230023DBB21A467B681A703B68C8
S1134DD001221A6000F011BCBB681B88002B05D0AF
S1134DE0204B4FF400721A6000F007BC1E4B4FF4C6
S1134DF000721A6000F001BC36237B621B4B1B68F7
S1134E0007F1240107F110020846114698473B694F
S1134E10DAB27B681A707B6801337A69D2B21A708D
S1134E207B6802337A69120AD2B21A707B68033340
S1134E307A69120CD2B21A707B6804337A69120E42
S1134E40D2B21A703B6805221A60D6E3014B0B22DA
S1134E501A70D2E33F0A0010440A00109C040010A8
S1134E6034C0092038C009203CC00920480400107F
S1134E703A237B62964B1B6807F1240107F1100269
S1134E800846114698473B69DAB27B681A707B681A
S1134E9001337A69D2B21A707B6802337A69120AD2
S1134EA0D2B21A707B6803337A69120CD2B21A70C8
S1134EB07B6804337A69120ED2B21A707B680533A8
S1134EC0BA69D2B21A707B680633BA69120AD2B2CE
S1134ED01A707B680733BA69120CD2B21A707B68F5
S1134EE00833BA69120ED2B21A707B680933FA69B0
S1134EF0D2B21A707B680A33FA69120AD2B21A70F3
S1134F007B680B33FA69120CD2B21A707B680C33CB
S1134F10FA69120ED2B21A707B680D333A6AD2B2B1
S1134F201A707B680E333A6A120AD2B21A707B681E
S1134F300F333A6A120CD2B21A707B6810333A6A91
S1134F40120ED2B21A703B6811221A6055E3614BFB
S1134F501B6803F08003002B14BF01230023DBB282
S1134F601A467B681A703B6801221A6045E3BB68E5
S1134F701B88002B03D0584B80221A603DE3574B0B
S1134F8080221A6039E3534B1B6803F48073002BAF
S1134F9014BF01230023DBB21A467B681A703B68F6
S1134FA001221A6029E3BB681B88002B04D04A4BFA
S1134FB04FF480721A6020E3484B4FF480721A60F9
S1134FC01BE3474B03221A7017E3052006F07CFA13
S1134FD00346DBB203F00703DAB27B681A703B685E
S1134FE001221A6009E3BB681B88072B09D8BB6838
S1134FF01B8843F008039BB20520194606F07AFA91
S1135000FBE20023FAE2364B05221A70F5E2344B38
S113501006221A70F1E2334B1A787B681A707B68A7
S11350200133304A52781A707B6802332D4A9278E1
S11350301A707B6803332B4AD2781A707B68043366
S1135040284A12791A703B6805221A60D5E2244B6B
S113505000221A70D1E2244B1B78DAB27B681A70F2
S11350603B6801221A60C8E2BB681B88DAB21E4B97
S11350701A70C2E21D4B1B889BB2DAB27B681A70AD
S11350807B680133194A128892B2120A92B2D2B2E0
S11350901A703B6802221A60AFE2BB681A88144B8C
S11350A01A80AAE239237B62094B1B6807F12401A9
S11350B007F110020846114698473B6800221A601F
S11350C09BE20C4B0C4A1A6006F0D0FB95E200BF41
S11350D04804001054C0092058C009205CC00920AD
S11350E03F0A001094100010420A00109C040010A3
S11350F0440A00101C00001021BB0543BB681B8838
S1135100B3F5006F17D9BB681B88B3F5406F12D88D
S1135110BB6802331B88B3F5006F0CD9BB6802333C
S11351201B88B3F5406F06D8BB6802331A88BB6886
S11351301B889A4201D2002360E2BB681A88A44B00
S11351401A80BB685A88A34B1A80A34B04221A7096
S11351503B6800221A6050E2BB681B88B3F5807F6D
S113516001D900234AE2BB681B88DAB29B4B1A7050
S1135170994B07221A703B6800221A603DE27B6853
S113518000221A707B68013300221A70944807F0D9
S1135190EBFF034687F843307B68023397F84320DC
S11351A01A707B68DA1C97F8433010468C491A460B
S11351B007F064FF97F84330DA1C3B681A601CE27E
S11351C0884807F0D1FF034687F843307B6897F897
S11351D043201A707B685A1C97F843301046814963
S11351E01A4607F04BFF97F843305A1C3B681A6085
S11351F003E27B6801221A703B6801221A60FCE119
S1135200BB681B88DAB2784B1A70FFF721FCF4E113
S1135210754B1B78DAB27B681A703B6801221A60FE
S1135220EBE172494FF000024FF00003C1E90023A3
S11352306E494FF000024FF00003C1E9022300233E
S1135240FB6425E0694BD3E900ABFB6C7A6813443B
S11352501B78DAB24FF00003F96CC900A1F1200603
S1135260C1F1200003FA01F902FA06F649EA060937
S113527022FA00F049EA000902FA01F84AEA0802AF
S11352804BEA09035949C1E90023FB6C0133FB6470
S1135290FB6C072BD6DD0023FB6424E0534BD3E9DE
S11352A00289FB6C08337A6813441B78DAB24FF036
S11352B00003F96CC900A1F12006C1F1200003FA32
S11352C001F502FA06F6354322FA00F0054302FA24
S11352D001F448EA040249EA05034449C1E9022306
S11352E0FB6C0133FB64FB6C072BD7DD85E10023EA
S11352F0BB640023FB640DE0BB6C1B02BB64FB6C52
S11353007A6813441B781A46BB6C1343BB64FB6C6A
S11353100133FB64FB6C032BEEDD354B1A68BB6C6D
S11353201344334A1360334B02221A702A4B082267
S11353301A7062E17B681B781A467B6801331B781C
S11353401B021A437B6802331B781B041A437B68D5
S113535003331B781B061343FB63254AFB6B136063
S1135360FFF776FB49E10023FB640BE0FB6C7A68F2
S113537013441978204AFB6C13440A461A70FB6CD8
S11353800133FB64FB6C092BF0DD1C4B01221A700A
S11353903B680A221A6030E10023FB6407E0164AE6
S11353A0FB6C134400221A70FB6C0133FB64FB6C2E
S11353B0092BF4DD114B00221A703B680A221A6093
S11353C01BE10B4B1B68FB630023FB6425E000BF60
S11353D09E040010A00400103F0A0010A204001054
S11353E0A0DA00005CDA00004C040010D8100010B1
S11353F0F40B00107C090010CC0B001040100010BE
S1135400FB6C7A681344FA6CD200F96B21FA02F24D
S1135410D2B21A70FB6C0133FB64FB6C032BEFDD1F
S11354203B6804221A60E8E03B6800221A60764B6D
S113543000221A70754B03221A70754B09221A70D8
S113544004F034FEFFF704FBD7E00023FB640DE017
S1135450FB6C7A6813446F4A1168FA6CD20021FA23
S113546002F2D2B21A70FB6C0133FB64FB6C032BA7
S1135470EEDD3B6804221A60BFE07B681B781A46A5
S11354807B6801331B781B021A437B6802331B7849
S11354901B041A437B6803331B781B06134318460B
S11354A002F0F0FB5B4B0122DA63A6E07B68132277
S11354B01A707B68013337221A703B6802221A6023
S11354C09BE0544B1B69002B14BF01230023DBB268
S11354D01A467B681A703B6801221A608DE0BB682B
S11354E01B88002B14BF01230023DBB21A46494B4F
S11354F01A6182E004F01AFE78647B6C002B08D0F9
S11355007868796C402207F0B9FD3B6840221A6044
S113551073E07B6800221A703B6801221A606CE019
S11355203B6800221A60394B00221A70384B0A2259
S11355301A7004F0BBFDFFF78BFA5EE0BB681B88B2
S1135540DBB2184605F0C0FF03467B877B8F1B0A3E
S11355509BB2DAB27B681A707B6801337A8FD2B25D
S11355601A703B6802221A6047E0BB681B88DAB2F3
S1135570BB6802331B881046194605F0BBFF3CE0AC
S113558025487968062207F079FD214B0C221A7010
S113559033E07B685A791F4B83F834207B681A798F
S11355A01C4B83F835207B68DA781A4B83F8362055
S11355B07B689A78174B83F837207B685A78154BA9
S11355C083F838207B681A78124B83F83920114B02
S11355D00122DA6311E0BB681B88DAB20F4B1A7040
S11355E00BE00B4B0D221A70BB681B88DAB20C4B14
S11355F01A7002E0002301E000BF0123184654376B
S1135600BD46BDE8F08F00BF7D0900107C09001085
S11356103F0A0010580400108C090010400A0010C2
S1135620410A001080B483B000AF4FF040231B68E0
S113563003F00103002B6DD0394B1B680133384A4A
S11356401360374B1B687B60364B9B697A68D31AAF
S113565003F003033B60344B1B78002B03D0324B25
S11356601B78012B09D17B6803F07F03002B03D146
S11356702E4B01221A7037E036E02B4B1B78022B9D
S113568008D17B6803F00103002B2DD1274B0122A5
S11356901A7029E0244B1B78032B25D1214B1B7D49
S11356A0032B21D13B68002B1ED11E4B9B8B9BB23D
S11356B0013B9AB21B4B9A831A4B9B8B9BB2002BD8
S11356C00ED11A4B01221A70164B1B8C9BB201335C
S11356D09AB2144B1A84134BDA8B124B9A8303E05D
S11356E0134B4FF480721A607B68C3F30803002BDA
S11356F002D1104B01221A700F4A104B1B68C3F5DC
S11357004363043313600D4B00221A604FF04023AF
S113571001221A600C37BD465DF8047B704700BF58
S1135720F40B0010580400107C0900107D090010CF
S11357303CC00920F00B0010184000408409001000
S113574080B400AF0B4B04221A600B4B01221A7079
S11357500A4B1B68C3F3130340F6354202FB03F202
S1135760074B1B681344074A1360BD465DF8047B6E
S1135770704700BFAC800240D4100010F40B00103E
S113578008400040EC0B0010B0B584B000AF786066
S11357901B4B1B68184607F097F904460D467868BA
S11357A007F092F902460B461046194612A3D3E9B4
S11357B0002307F0FFF902460B46104619464FF046
S11357C00002104B07F020FB02460B4620462946F8
S11357D007F03EF802460B461046194607F0FCFB5C
S11357E00346FB60064B1A68FB689A42FAD31037EB
S11357F0BD46B0BDAFF300800000000000887340D8
S1135800F40B001000408F4080B400AF3F4A3F4B80
S11358101B6843F0005313603D4B00221A603D4B5C
S113582000221A603C4B00221A603C4B00221A6092
S11358303B4B00221A603B4B00221A603A4B002279
S11358401A603A4B00221A60394BFF221A60394B16
S1135850FF221A60384B394A1A60394A364B5A606B
S1135860384A354B9A60344B374ADA60354B334A01
S11358701A60364A334B5A602F4A324B9A60314B86
S1135880314ADA60324B4FF080621A60314B0122A8
S11358901A6000BF2F4B1B6803F00103002BF9D0E3
S11358A02D4A254B1B6813602C4A234B5B681360FD
S11358B02B4A214B9B6813602A4A1F4BDB681360F9
S11358C0134B4DF206021A60274B1B681B0DDBB20B
S11358D0264A1360244B1B68C3F3130340F6354276
S11358E002FB03F2224B1B681344224A1360224B2F
S11358F01B889AB2214B1A80214B00221A60214B3B
S113590000221A60BD465DF8047B7047C4C00F4096
S1135910104100503041005050410050704100503F
S113592090410050B0410050D0410050F04100502F
S11359300840005010400050801000100800034040
S11359409C100010DC0B00103290008848100010EE
S113595080E100E03040005000410050044100501C
S1135960084100500C410050F40B0010FC0B0010D7
S113597008400040381000109C0400108A090010F0
S11359800C0B0010D010001080B483B000AF4B4A51
S11359904A4B1B6843F000531360494B00221A60C2
S11359A0484B00221A60484B00221A60474B0022E1
S11359B01A60474B00221A60464B00221A60464B7D
S11359C000221A60454B00221A60454BFF221A60E0
S11359D0444BFF221A60444B01221A6000BF424B21
S11359E01B6803F00103002BF9D000237B602AE03D
S11359F03E4A7B681B0113443D4A1A607B689B0046
S1135A003C4A13441946394A7B681B0113445960C4
S1135A107B68092B06DC7B6801331B01334A134482
S1135A201A4600E0002231497B681B010B4408330D
S1135A301A602E4A7B681B01134408332E4A5A60AD
S1135A407B6801337B607B680A2BD1DD2B4A274BB3
S1135A501B6813602A4A254B5B681360294A234B51
S1135A609B681360284A214BDB681360144B4DF28A
S1135A7006021A60254B1B681B0DDBB2244A136017
S1135A80224B1B68C3F3130340F6354202FB03F2B7
S1135A90204B1B681344204A1360204B1B889AB286
S1135AA01F4B1A801F4B00221A601F4B00221A60E2
S1135AB00C37BD465DF8047B704700BFC4C00F407F
S1135AC0104100503041005050410050704100508E
S1135AD090410050B0410050D0410050F04100507E
S1135AE0084000501040005030400050180B001087
S1135AF0080003409C10001004100088004100506E
S1135B0004410050084100500C410050F40B0010B7
S1135B10FC0B001008400040381000109C040010DA
S1135B208A0900100C0B0010D010001080B400AFD4
S1135B30254B1B68254A1360254B1B681B0DDBB2E4
S1135B40214A1360234B1B68234A1360204B1B68B4
S1135B50C3F3130340F6354202FB03F21F4B1B68E9
S1135B6013441C4A13601E4B1B889AB21D4B1A80A7
S1135B701D4B1B889AB21A4B1A801C4B1B6803F0EE
S1135B800103002B1BD01A4B1B6803F00103002BED
S1135B9007D0184B01221A60174B1B680133164AB1
S1135BA01360164B1B6803F00103002B07D0144B42
S1135BB001221A60134B1B680133124A1360BD465D
S1135BC05DF8047B704700BFFC0B0010441000100C
S1135BD0F40B001038100010D80B001008400040DF
S1135BE08A090010880900109C040010004000502D
S1135BF004400050084000500C0B00100C400050B2
S1135C0010400050D010001080B500AF194B1B7825
S1135C10DBB2013B122B2CD801A252F823F000BFB7
S1135C206D5C0000735C0000735C00006D5C000040
S1135C30735C0000735C0000735C00006D5C00002A
S1135C406D5C00006D5C0000735C00006D5C000026
S1135C50735C00006D5C0000735C00006D5C000010
S1135C60735C0000735C00006D5C0000FFF75EFF76
S1135C7000BF80BD3E0A001080B400AF104B4FF04F
S1135C8080521A600F4A0F4B1B6843F001031360E4
S1135C900D4A0D4B1B6843F0020313600B4A0B4B78
S1135CA01B6843F001031360094B4FF080621A60D4
S1135CB0084B4FF080521A60BD465DF8047B704774
S1135CC098C0092024000340040003401041005000
S1135CD000E100E09CC0092080B400AF214B4FF0EC
S1135CE080521A60204A204B1B6823F00103136082
S1135CF01E4A1E4B1B6823F0020313601C4B4FF01B
S1135D0080621A601B4B00221A601B4B00221A602F
S1135D101A4B00221A601A4B00221A60194B0022F7
S1135D201A60194B00221A60184B00221A60184B93
S1135D3000221A60174BFF221A60174BFF221A60C9
S1135D40164A164B1B6823F00103136000BF134B64
S1135D501B6803F00103002BF9D1BD465DF8047BF9
S1135D60704700BF98C0092024000340040003408A
S1135D7080E100E01041005030410050504100509B
S1135D807041005090410050B0410050D04100504B
S1135D90F041005008400050104000503040005086
S1135DA080B500AF642005F057FC00BF05F04AFC45
S1135DB0034603F00403002BF8D10A4B80221A6037
S1135DC0084B4FF480721A60074B10221A60064B7E
S1135DD04FF480721A60044B02221A60034B0022B3
S1135DE01A7080BD5CC009203CC009203E0A001026
S1135DF080B582B000AF2A4B1B78DBB2002B02D1F6
S1135E002923FB8008E0264B1B78DBB2012B02D14F
S1135E104023FB8000E040E00D2047F6FF7105F0D1
S1135E2069FB122042F6223105F064FB142041F292
S1135E304B3105F05FFB202040F2011105F05AFBC5
S1135E40184B1B889BB2013B9BB20220194605F0FC
S1135E5051FBFB880320194605F04CFBFEF7F8FDC7
S1135E6000BF05F0EFFB034603F04003002BF8D01E
S1135E70612005F0F1FB00BF05F0E4FB034603F0ED
S1135E800403002BF8D0622005F0E6FB064B8022C9
S1135E901A60054B4FF480721A600837BD4680BD06
S1135EA0420A00109C04001058C0092080B584B038
S1135EB000AF7860334B1B78DBB2002B05D129236C
S1135EC0BB8140F26143FB810BE02E4B1B78DBB2BC
S1135ED0012B05D14023BB8140F26153FB8100E0DB
S1135EE04DE00D2047F6FF7105F004FB122042F649
S1135EF0223105F0FFFA142041F24B2105F0FAFAA1
S1135F00FB892020194605F0F5FA7B689BB22C200A
S1135F10194605F0EFFA7B681B0C9BB22D2019463D
S1135F2005F0E8FA184B1B889BB2013B9BB2022098
S1135F30194605F0DFFABB890320194605F0DAFAA1
S1135F40FEF786FD00BF05F07DFB034603F040032A
S1135F50002BF8D0612005F07FFB00BF05F072FB39
S1135F60034603F00403002BF8D0622005F074FB11
S1135F70064B80221A60054B4FF480721A6010376A
S1135F80BD4680BD420A00109C04001058C0092080
S1135F9080B59AB000AFF8600B467A60FB720023BC
S1135FA07B6635E0FB6887F85E30FB681B0AFB60A4
S1135FB007F110027B6E134400221A7000233B6623
S1135FC020E007F110027B6E13441B78D9B297F8D6
S1135FD05E3003F001033A6EC2F107029340DBB274
S1135FE00A461343DBB2D9B207F110027B6E1344A5
S1135FF00A461A7097F85E305B0887F85E303B6E8D
S113600001333B663B6E072BDBD97B6E01337B662A
S11360107B6E032BC6D9934B1B889BB2DBB2623BCE
S1136020DBB2184603F0C2FE03461A468E4B9B5C55
S1136030BB6500237B6650E07A687B6E13441B7853
S113604087F85E307B6E043307F168021344002244
S113605003F8582C00233B6639E097F85E3003F0D0
S113606001038249BA6D0A44127853407B65BB6DC3
S1136070013319467E4BA1FB0323C81A400803448D
S11360809A091346DB019B1ACA1ABA6597F85E305F
S11360905B0887F85E307B6E04337A6E043207F156
S11360A068010A4412F8582CD1B23A6EC2F10702C0
S11360B010467A6D8240D2B20A43D2B2D2B207F10C
S11360C068010B4403F8582C3B6E01333B663B6E6E
S11360D0072BC2D97B6E01337B66FA7A7B6E9A42B8
S11360E0AAD8FB7A0433FB720D2047F6FF7105F042
S11360F001FA122042F6223105F0FCF9142041F293
S11361004B3105F0F7F9202040F6014105F0F2F992
S1136110544B1B889BB20220194605F0EBF905206D
S11361200B2105F0E7F90320402105F0E3F92320D2
S1136130142105F0DFF9FB6803F00103002B05D0FF
S11361402D204AF6AA2105F0D5F904E02D2045F2C8
S1136150555105F0CFF9082005F0B6F90346A7F824
S11361605230B7F85230C3F308039BB243F49C4354
S11361709BB29BB20820194605F0BCF900BF05F09C
S113618061FA034603F04003002BF8D0612005F0C8
S113619063FA00BF05F056FA034603F00403002B2C
S11361A0F8D0344B4FF480721A60334B80221A605B
S11361B000BF0E2005F088F9034603F01F030F2BE0
S11361C0F7D1632005F048FA00237B6621E000BF85
S11361D02A4B1B6803F00403002BF9D17B6EDBB25E
S11361E0FA7AD31A87F85F3097F85F30102B02D908
S11361F0102387F85F3007F110027B6E134497F881
S11362005F20702011461A4605F0B6F97B6E1033F4
S11362107B66FA7A7B6E9A42D9D800BF0E2005F0CD
S113622053F9034603F01F030F2BF7D1144B4FF41C
S113623080721A60642005F00FFA00BF05F002FABC
S1136240034603F00403002BF8D10E4B80221A609E
S1136250B7F852300820194605F04CF96837BD46A6
S113626080BD00BF9C0400108CD200000CD2000042
S11362701108040238C0092058C0092054C009205C
S11362803CC009205CC0092080B500AF0D2047F652
S1136290FF7105F02FF9122042F6223105F02AF998
S11362A0142042F24B3105F025F9202040F601413B
S11362B005F020F905200B2105F01CF903204021ED
S11362C005F018F900BF05F0BDF9034603F04003DB
S11362D0002BF8D0612005F0BFF900BF05F0B2F93A
S11362E0034603F00403002BF8D00A4B4FF48072EA
S11362F01A60094B80221A6000BF0E2005F0E4F8F2
S1136300034603F01F030F2BF7D1632005F0A4F914
S113631080BD00BF38C0092058C0092080B500AF37
S1136320414B00221A70414B1B78002B0BD10220E9
S113633005F0CAF803461A463D4B1B889BB2013B45
S11363409A4247D16EE0394B1B78012B14D1384B5C
S11363501B889BB220339AB2354B1A80344B1B886E
S11363609BB2B3F51B6F35D9314B1B889BB24F3BA6
S11363709AB22F4B1A802DE02C4B1B78022B0DD197
S11363802C4B4FF480721A602B4B1B68184603F099
S11363901FFC03461A46264B1A801BE0234B1B782E
S11363A0032B0BD1234B4FF480721A60234803F064
S11363B0D5FC03461A461E4B1A800BE01B4B1B7878
S11363C0042B07D11B4B4FF480721A601C4B1A88A4
S11363D0174B1A80642005F03FF900BF05F032F92D
S11363E0034603F00403002BF8D1114B1B889BB226
S11363F0013B9BB20220194605F07CF80B4B1B783D
S1136400002B01D0FEF724FB612005F025F900BF25
S113641005F018F9034603F00403002BF8D06220BA
S113642005F01AF980BD00BF7D0900107C09001039
S11364309C04001038C00920F40B0010580400100C
S11364408009001080B487B000AF0346FB71FB796C
S113645063F07F03DBB21B027B614FF40043FB60FC
S11364601023FB74194B20221A601EE07A69FB6822
S11364701340002B03D0164B01221A6002E0134B89
S113648001221A607B695B007B61114B10221A6048
S1136490104B1B6803F00203002B03D07B6943F00D
S11364A001037B61094B10221A60FB7C5A1EFA74AB
S11364B0002BDBD1064B20221A607B69DBB2184625
S11364C01C37BD465DF8047B704700BF5CC00920E3
S11364D058C0092054C0092080B485B000AF0346D9
S11364E00A46FB711346BB710AE0FA79BB79134083
S11364F0FB73FA79BB795340FB71FB7B5B00BB7187
S1136500BB79002BF1D1FB7918461437BD465DF8F1
S1136510047B704790B597B000AFAB4B10221A6064
S1136520AA4B4FF080721A6003F0C0FD04F010FF14
S1136530FFF72AFAFFF7A0FB0D2047F6FF7104F0DE
S1136540D9FF122042F6223104F0D4FF142041F284
S11365504B2104F0CFFF202040F2615104F0CAFF28
S11365600320402104F0C6FF994804F0F1FD0346DE
S11365709BB22C20194604F0BDFF954804F0E8FDB9
S113658003461B0C9BB22D20194604F0B3FF914B1C
S113659080221A6000BF05F055F8034603F040035B
S11365A0002BF8D000BF05F04DF8034603F00403B8
S11365B0002BF8D1884B1B889BB2013B9BB2022075
S11365C0194604F097FF612005F046F800BF05F076
S11365D039F8034603F00403002BF8D0622005F0D9
S11365E03BF871E100BF05F02DF8034603F01003FA
S11365F0002B07D1794B1B889AB2774B1B889BB22F
S11366009A42F0D0754B1B889AB2734B1B889BB28D
S11366109A4200D006E1724B00221A60714B0222AA
S11366201A7000237B650FE0062004F04DFF03463B
S11366301B0A9BB2DBB25AB2694B1B681344684A0B
S113664013607B6D01337B65664B1B781A467B6D4B
S11366509A42E9DC644B1B68644A136000BF644BD4
S11366601B68002BFBD0634B1B78DBB2102B40F074
S11366703181614B1B68002B07D0604B1B78DBB268
S113668043F00203DAB25D4B1A70594B1B68012BBD
S113669007D95A4B1B78DBB243F00103DAB2574BEC
S11366A01A703B1DFB64564B1B687B6000BF554B47
S11366B01B6803F00103002B03D04F4B1B68002B16
S11366C0F5D0514A504B1B6823F001031360424B31
S11366D01B889BB2DBB2623BDBB2184603F066FB5D
S11366E003461A4613465B0013441B01474A1344EE
S11366F0BB6400237B6534E0454A7B6D13441B78FF
S11367001A067B6D01334249CB5C1B041A437B6D33
S113671002333F49CB5C1B0213437A6D03323C497D
S11367208A5C13437B647B6D002B00DA03339B107C
S11367305C1C786C04F00CFD01467B6D002B00DAC8
S113674003339B109B00BA6C13441B6881EA030259
S1136750A30007F158010B4443F8542C7B6D043318
S11367607B657B6D2B2BC7DDFB6C05331B7803F03E
S11367703F0302333B643B6C272B00D952E0204B90
S1136780D968FB6C1A1D3B6C084611461A4603F087
S113679011FCF8633B6C0633FA6C13441B781A043F
S11367A03B6C0533F96C0B441B781B0213433A6CA6
S11367B00432F96C0A4412781343BB63FA6BBB6B63
S11367C09A4227D02EE000BF3CC0092000E100E03F
S11367D0D6BE898E58C009209C040010440A0010BB
S11367E04C0A0010490A0010F40B00103C10001071
S11367F00C0B00103F0A0010D0100010480A0010C3
S1136800580400101041005024000340DCD2000062
S11368109C100010344B10221A603B1D00201946B6
S1136820FDF71CFF642004F017FF00BF04F00AFF0B
S1136830034603F00403002BF8D12C4B1B889AB2B7
S11368402B4B1B889BB29A420DD0284B1B889AB2C3
S1136850274B1A80264B1B889BB2013B9BB202201C
S1136860194604F047FE00BF04F0ECFE034603F0B3
S11368704003002BF8D0612004F0EEFE00BF04F0CA
S1136880E1FE034603F00403002BF8D0194A194B28
S11368901B6823F00103136003E0174B1B6887F8A0
S11368A05330164B1B6803F00403002BF5D1FFF79C
S11368B06BF8FFF7E1F9622004F0CEFE104B0022E2
S11368C01A60104B00221A600F4B1B78DBB2102B9E
S11368D03FF488AEFFF764FAFFF7FEF9FEF710F90C
S11368E05C37BD4690BD00BF38C00920440A001083
S11368F09C04001024000340080003400C000340E3
S11369000C0B0010D01000103F0A001080B592B09C
S113691000AF3B1D00221A60043300221A600433C6
S113692000221A60043300221A60043300221A6021
S1136930043300221A60043300221A600433002254
S11369401A60043300221A60043300221A600433EC
S113695000221A60043300221A60043300221A80D1
S113696002330023FB6300237B64002387F8433056
S1136970002387F84230002387F83B30002387F850
S11369803A30002387F83930002387F8383003F091
S11369908DFB504B80221A600D2047F6FF7104F0E6
S11369A0A9FD122042F6223104F0A4FD142041F284
S11369B04B3104F09FFD202040F2615104F09AFD18
S11369C00320402104F096FD00BF04F03BFE034683
S11369D003F04003002BF8D000BF04F033FE03465D
S11369E003F00403002BF8D13B4B1B889BB2013B03
S11369F09BB20220194604F07DFD612004F02CFEB8
S1136A0000BF04F01FFE034603F00403002BF8D07C
S1136A10622004F021FE4FE000237B64002387F80A
S1136A204330002387F84230002387F83B302BE0C3
S1136A300720FFF707FD034687F8423097F84330F5
S1136A40DB43DBB218460121FFF746FD03461A4635
S1136A5097F8423018461146FFF73EFD034687F883
S1136A603B3097F93B30032B08DC97F93B3013F1AB
S1136A70030F03DB7B6C01337B6401E000237B6445
S1136A8097F8423087F843307B6C052BD0DD062025
S1136A90FFF7D8FC03461A46104B1A70104A97F8B1
S1136AA0423013703B1D07201946FDF7FFFE0D4BC6
S1136AB01B68184603F09AFB0B4B1B78DBB20F2BB9
S1136AC0AAD0FFF76DF9FFF707F9FEF719F8483771
S1136AD0BD4680BD58C009209C0400104110001020
S1136AE0F90B0010F40B00103F0A001090B5A3B08E
S1136AF000AFB34B10221A6007F1380300221A606A
S1136B00043300221A60043300221A600433002282
S1136B101A60043300221A60043300221A6004331A
S1136B2000221A60043300221A60043300221A601F
S1136B30043300221A60043300221A600433002252
S1136B401A60043300221A80023303F0AFFA04F00F
S1136B50FFFBFEF719FFFFF78FF80D2047F6FF71D3
S1136B6004F0C8FC122042F6223104F0C3FC1420C5
S1136B7041F24B3104F0BEFC202040F2615104F09C
S1136B80B9FC0320402104F0B5FC8E4804F0E0FA7F
S1136B9003469BB22C20194604F0ACFC894804F04F
S1136BA0D7FA03461B0C9BB22D20194604F0A2FC15
S1136BB0854B80221A6000BF04F044FD034603F0B5
S1136BC04003002BF8D000BF04F03CFD034603F063
S1136BD00403002BF8D17D4B1B889BB2013B9BB275
S1136BE00220194604F086FC612004F035FD00BF44
S1136BF004F028FD034603F00403002BF8D06220C0
S1136C0004F02AFD52E100BF04F01CFD034603F02A
S1136C101003002BF8D00023C7F8843010E00720BD
S1136C20FFF710FC0346194607F13802D7F8843001
S1136C3013440A461A70D7F884300133C7F88430F5
S1136C40D7F88430272BEADD00BF614B1B68002B8B
S1136C50FBD0604B10221A605F4B1B68002B07D0DF
S1136C605E4B1B78DBB243F00203DAB25B4B1A7063
S1136C70574B1B68012B07D9584B1B78DBB243F0E9
S1136C800103DAB2554B1A703B1DC7F88030544BE0
S1136C901B687B6000BF534B1B6803F00103002B90
S1136CA003D04D4B1B68002BF5D04F4A4E4B1B684D
S1136CB023F001031360002003F078F803461A461A
S1136CC013465B0013441B01484A1344FB6700232B
S1136CD0C7F884303CE0464AD7F8843013441B7824
S1136CE01A06D7F8843001334149CB5C1B041A439C
S1136CF0D7F8843002333E49CB5C1B021343D7F8E8
S1136D00842003323A498A5C1343BB67D7F8843042
S1136D10002B00DA03339B105C1CB86F04F018FAE4
S1136D200146D7F88430002B00DA03339B109B0014
S1136D30FA6F13441B6881EA0302A30007F1880178
S1136D400B4443F8842CD7F884300433C7F88430D8
S1136D50D7F884302B2BBEDDD7F8803005331B7871
S1136D6003F03F0302337B677B6F272B00D961E07D
S1136D701B4BD968D7F880301A1D7B6F0846114623
S1136D801A4603F017F938677B6F0633D7F880206B
S1136D9013441B781A047B6F0533D7F880100B4417
S1136DA01B781B0213437A6F0432D7F880100A440D
S1136DB012781343FB663A6FFB6E9A421AD039E09D
S1136DC03CC00920D6BE898E58C009209C040010FE
S1136DD00C0B001038C00920D0100010480A001015
S1136DE0580400101041005024000340DCD200007D
S1136DF09C100010D7F8803026331B78002B16D156
S1136E00D7F8803027331B783D2B10D1D7F880304A
S1136E1093F828202D4B1A7007F1380302201946E5
S1136E20FDF7B0FC2A4B1B68184603F0DFF9294B29
S1136E3010221A60642004F00FFC00BF04F002FC6E
S1136E40034603F00403002BF8D100BF04F0FAFB5F
S1136E50034603F04003002BF8D0612004F0FCFB50
S1136E6000BF04F0EFFB034603F00403002BF8D04B
S1136E70194A194B1B6823F00103136003E0174BF5
S1136E801B6887F86B30164B1B6803F00403002B58
S1136E90F5D1FEF779FDFEF7EFFE622004F0DCFB8E
S1136EA0104B00221A60104B00221A600F4B1B7803
S1136EB0DBB20E2B3FF4A7AEFEF772FFFEF70CFF1A
S1136EC0FDF71EFE8C37BD4690BD00BFF80B0010C9
S1136ED0F40B00103CC009202400034008000340C8
S1136EE00C0003400C0B0010D01000103F0A0010DF
S1136EF090B597B000AF9E4B10221A6003F0D6F8FD
S1136F0004F026FAFEF740FDFEF7B6FE0D2047F624
S1136F10FF7104F0EFFA122042F6223104F0EAFA8B
S1136F20142041F24B2104F0E5FA202046F261518D
S1136F3004F0E0FA0320402104F0DCFA8D4804F068
S1136F4007F903469BB22C20194604F0D3FA89486A
S1136F5004F0FEF803461B0C9BB22D20194604F0E6
S1136F60C9FA854B80221A6000BF04F06BFB03460C
S1136F7003F04003002BF8D000BF04F063FB03468A
S1136F8003F00403002BF8D17C4B1B889BB2013B1C
S1136F909BB20220194604F0ADFA612004F05CFBB8
S1136FA000BF04F04FFB034603F00403002BF8D0AA
S1136FB0622004F051FB50E100BF04F043FB0346A0
S1136FC003F01003002BF8D06D4B00221A606D4BB8
S1136FD005221A7000237B650DE00620FFF732FAC4
S1136FE00346DBB25AB2664B1B681344644A13600F
S1136FF07B6D01337B65634B1B781A467B6D9A422C
S1137000EBDC614B1B68614A136000BF604B1B687B
S1137010002BFBD05F4B10221A605F4B1B68002BC8
S113702007D05E4B1B78DBB243F00203DAB25B4B52
S11370301A70574B1B68012B07D9584B1B78DBB2CE
S113704043F00103DAB2554B1A703B1D3B65544BB8
S11370501B687B6000BF534B1B6803F00103002BCC
S113706003D04D4B1B68002BF5D04F4A4E4B1B6889
S113707023F001031360414B1B889BB2DBB2623BDC
S1137080DBB2184602F092FE03461A4613465B0032
S113709013441B01454A1344FB6400237B6534E01D
S11370A0434A7B6D13441B781A067B6D01334049B8
S11370B0CB5C1B041A437B6D02333D49CB5C1B0242
S11370C013437A6D03323A498A5C1343BB647B6D84
S11370D0002B00DA03339B105C1CB86C04F038F806
S11370E001467B6D002B00DA03339B109B00FA6C86
S11370F013441B6881EA0302A30007F158010B44FF
S113710043F8542C7B6D04337B657B6D2B2BC7DDDF
S11371103B6D05331B7803F03F0302337B647B6CC8
S1137120272B00D95DE01E4BD9683B6D1A1D7B6C83
S1137130084611461A4602F03DFF38647B6C06335C
S11371403A6D13441B781A047B6C0533396D0B4478
S11371501B781B0213437A6C0432396D0A4412788B
S11371601343FB633A6CFB6B9A4223D039E000BFB4
S11371703CC00920D6BE898E58C009209C0400104A
S11371804C0A0010490A0010F40B00103C100010C7
S11371900C0B001038C00920D0100010480A001051
S11371A0580400101041005024000340DCD20000B9
S11371B09C1000103B6D26331B78002B09D13B6DCE
S11371C027331B783D2B04D13B1D00201946FDF7C6
S11371D045FA294B1B68184603F008F8274B102280
S11371E01A60642004F038FA00BF04F02BFA034656
S11371F003F00403002BF8D100BF04F023FA034684
S113720003F04003002BF8D0612004F025FA00BFFE
S113721004F018FA034603F00403002BF8D0184ACC
S1137220174B1B6823F00103136003E0154B1B6825
S113723087F83B30144B1B6803F00403002BF5D193
S1137240FEF7A2FBFEF718FD622004F005FA0F4BCF
S113725000221A600E4B00221A600E4B1B78DBB220
S1137260012B3FF4A9AEFEF79BFDFEF735FDFDF7BC
S113727047FC5C37BD4690BDF40B00103CC00920B0
S113728024000340080003400C0003400C0B0010D2
S1137290D01000103F0A001090B597B000AFB74B64
S11372A010221A6002F002FF04F052F8FEF76CFBA1
S11372B0FEF7E2FC0D2047F6FF7104F01BF91220E3
S11372C042F6223104F016F9142041F24B2104F065
S11372D011F9202040F2615104F00CF903204021FF
S11372E004F008F9A64803F033FF03469BB22C20B0
S11372F0194604F0FFF8A24803F02AFF03461B0CCA
S11373009BB22D20194604F0F5F89E4B80221A609A
S113731000BF04F097F9034603F04003002BF8D0B4
S113732000BF04F08FF9034603F00403002BF8D1E7
S1137330954B1B889BB2013B9BB20220194604F07B
S1137340D9F8612004F088F900BF04F07BF9034602
S113735003F00403002BF8D0622004F07DF946E129
S113736000BF04F06FF9034603F01003002BF8D0BC
S1137370864B00221A60864B05221A7000237B6517
S11373800DE00620FFF75EF80346DBB25AB27F4BEE
S11373901B6813447D4A13607B6D01337B657C4B12
S11373A01B781A467B6D9A42EBDC7A4B1B687A4A4F
S11373B0136000BF794B1B68002BFBD0784B102265
S11373C01A60784B1B68002B07D0774B1B78DBB215
S11373D043F00203DAB2744B1A70704B1B68012B32
S11373E007D9714B1B78DBB243F00103DAB26E4B61
S11373F01A703B1D3B656D4B1B687B6000BF6C4B7B
S11374001B6803F00103002B03D0664B1B68002BA1
S1137410F5D0684A674B1B6823F0010313605A4B8D
S11374201B889BB2DBB2623BDBB2184602F0BEFCA7
S113743003461A4613465B0013441B015E4A134479
S1137440FB6400237B6534E05C4A7B6D13441B784A
S11374501A067B6D01335949CB5C1B041A437B6DBF
S113746002335649CB5C1B0213437A6D03325349F2
S11374708A5C1343BB647B6D002B00DA03339B10DF
S11374805C1CB86C03F064FE01467B6D002B00DAD3
S113749003339B109B00FA6C13441B6881EA0302BC
S11374A0A30007F158010B4443F8542C7B6D0433BB
S11374B07B657B6D2B2BC7DD3B6D05331B7803F0A0
S11374C03F0302337B647B6C272B00D930E0374BBE
S11374D0D9683B6D1A1D7B6C084611461A4602F0AA
S11374E069FD38647B6C06333A6D13441B781A04C7
S11374F07B6C0533396D0B441B781B0213437A6C88
S11375000432396D0A4412781343FB633A6CFB6B03
S11375109A4200D00CE03B1D00201946FDF79EF86E
S11375201C4B1B68184602F061FE144B10221A60B3
S1137530642004F091F800BF04F084F8034603F0DB
S11375400403002BF8D100BF04F07CF8034603F0D9
S11375504003002BF8D0612004F07EF800BF04F053
S113756071F8034603F00403002BF8D0114A114BC1
S11375701B6823F00103136026E000BF3CC0092010
S1137580D6BE898E58C009209C0400104C0A0010F5
S1137590490A0010F40B00103C1000100C0B0010F2
S11375A038C00920D0100010480A001058040010F8
S11375B01041005024000340DCD200009C10001055
S11375C0124B1B6887F83B30114B1B6803F0040314
S11375D0002BF5D1FEF7D8F9FEF74EFB622004F03C
S11375E03BF80C4B00221A600B4B00221A600B4B29
S11375F01B78DBB2132B3FF4B3AEFEF7D1FBFEF7DF
S11376006BFBFDF77DFA5C37BD4690BD0800034077
S11376100C0003400C0B0010D01000103F0A0010A7
S113762080B590B000AF5F4B10221A6002F03EFDAF
S11376300D2047F6FF7103F05DFF122042F6223160
S113764003F058FF142041F24B0103F053FF2020B4
S113765040F2615103F04EFF0320402103F04AFF42
S1137660514803F075FD03469BB22C20194603F0E4
S113767041FF4D4803F06CFD03461B0C9BB22D20CB
S1137680194603F037FF494B80221A6000BF03F00C
S1137690D9FF034603F04003002BF8D000BF03F0EA
S11376A0D1FF034603F00403002BF8D1404B1B88A1
S11376B09BB2013B9BB20220194603F01BFF6120E1
S11376C003F0CAFF00BF03F0BDFF034603F0040349
S11376D0002BF8D0622003F0BFFF6FF063037B63DD
S11376E054E000BF03F0AEFF034603F01003002B89
S11376F0F8D00023FB630CE00720FEF7A3FE03464B
S113770019463A46FB6B13440A461A70FB6B013365
S1137710FB63FB6B312BEFDD264B10221A603B46DB
S113772002201946FCF7D0FE234B1B68184602F0D2
S11377305DFD1C4B10221A60642003F08DFF00BF16
S113774003F080FF034603F00403002BF8D100BFCD
S113775003F078FF034603F04003002BF8D06120C8
S113776003F07AFF00BF03F06DFF034603F0040348
S1137770002BF8D04FF47A73BB63BB6B013BBB6344
S1137780BB6B002BF9D1622003F066FF0B4B1B7817
S1137790DBB2122BA5D0FEF79FFAFDF7B1F9403703
S11377A0BD4680BD3CC00920D6BE898E58C0092084
S11377B09C04001038C00920F40B00103F0A00108C
S11377C080B590B000AF574B10221A600023FB63C2
S11377D002F06CFC0D2047F6FF7103F08BFE1220C3
S11377E042F6223103F086FE142041F24B2103F0CD
S11377F081FE202040F2615103F07CFE03204021F1
S113780003F078FE484B80221A6000BF03F01AFF91
S1137810034603F04003002BF8D000BF03F012FF2F
S1137820034603F00403002BF8D1404B1B889BB2A2
S1137830013B9BB20220194603F05CFE612003F079
S11378400BFF00BF03F0FEFE034603F00403002B0E
S1137850F8D0622003F000FF6FF06303BB6354E0D1
S11378606FF06303BB6313E00620FEF7EBFD0346F2
S113787087F8373097F837305BB2002B05DA97F882
S11378803730A3F58073BB6302E097F83730BB63EE
S1137890BB6B002BE8DB0023FB630CE00620FEF748
S11378A0D1FD034619463A1DFB6B13440A461A7070
S11378B0FB6B0133FB63FB6B312BEFDD0620FEF723
S11378C0C1FD034687F8373097F837305BB2002B99
S11378D005DA97F83730A3F58073BB6302E097F8B5
S11378E03730BB63BB6B002B0FDB114B10221A60CC
S11378F03B1D02201946FCF7E7FD0E4B1B6818469A
S113790002F074FC074B10221A600B4B1B78DBB29D
S1137910112BA5D0FEF7E0F9FDF7F2F84037BD468C
S113792080BD00BF3CC0092058C009209C04001041
S113793038C00920F40B00103F0A001090B597B02E
S113794000AFAA4B10221A6002F0B0FB03F000FD56
S1137950FEF71AF8FEF790F90D2047F6FF7103F0D1
S1137960C9FD122042F6223103F0C4FD142041F275
S11379704B2103F0BFFD202040F2615103F0BAFD1A
S11379800320402103F0B6FD994B80221A6000BF0A
S113799003F058FE034603F04003002BF8D000BF69
S11379A003F050FE034603F00403002BF8D1914B7F
S11379B01B889BB2013B9BB20220194603F09AFD3F
S11379C0612003F049FE00BF03F03CFE034603F0D0
S11379D00403002BF8D0622003F03EFE3BE100BF1D
S11379E003F030FE034603F01003002BF8D0824B63
S11379F000221A60814B05221A7000237B650FE078
S1137A00062003F061FD03461B0A9BB2DBB25AB2A7
S1137A10794B1B681344784A13607B6D01337B6593
S1137A20764B1B781A467B6D9A42E9DC00BF744B97
S1137A301B68002BFBD0734B10221A60724B1B681F
S1137A40002B07D0714B1B78DBB243F00203DAB290
S1137A506E4B1A706A4B1B68012B07D96B4B1B7852
S1137A60DBB243F00103DAB2684B1A703B1D3B658D
S1137A70674B1B687B6000BF664B1B6803F0010308
S1137A80002B03D0604B1B68002BF5D0624A624B7D
S1137A901B6823F001031360564B1B889BB2DBB2B7
S1137AA0623BDBB2184602F081F903461A461346DC
S1137AB05B0013441B01594A1344FB6400237B6598
S1137AC034E0574A7B6D13441B781A067B6D0133EF
S1137AD05349CB5C1B041A437B6D02335049CB5C86
S1137AE01B0213437A6D03324D498A5C1343BB6412
S1137AF07B6D002B00DA03339B105C1CB86C03F025
S1137B0027FB01467B6D002B00DA03339B109B009F
S1137B10FA6C13441B6881EA0302A30007F15801BD
S1137B200B4443F8542C7B6D04337B657B6D2B2B0A
S1137B30C7DD3B6D05331B7803F03F0302337B64E1
S1137B407B6C272B00D92BE0314BD9683B6D1A1D78
S1137B507B6C084611461A4602F02CFA38647B6C9A
S1137B6006333A6D13441B781A047B6C0533396D64
S1137B700B441B781B0213437A6C0432396D0A449C
S1137B8012781343FB633B1D00201946FCF79CFC51
S1137B90244B1B68184602F029FB144B10221A6070
S1137BA0642003F059FD00BF03F04CFD034603F0CD
S1137BB00403002BF8D100BF03F044FD034603F097
S1137BC04003002BF8D0612003F046FD00BF03F012
S1137BD039FD034603F00403002BF8D00E4A0E4B84
S1137BE01B6823F00103136022E000BF3CC009209E
S1137BF058C009209C0400104C0A0010490A0010C7
S1137C000C0B001038C00920D0100010480A0010D6
S1137C10580400101041005024000340DCD200003E
S1137C209C100010F40B0010114B1B6887F83B30BC
S1137C30104B1B6803F00403002BF5D1FDF7A4FEE1
S1137C40FEF71AF8622003F007FD0B4B00221A60BE
S1137C500A4B00221A600A4B1B78DBB2012B3FF45B
S1137C60BEAEFEF739F8FCF74BFF5C37BD4690BD5E
S1137C70080003400C0003400C0B0010D01000104F
S1137C803F0A001080B584B000AF7860094A7B6871
S1137C901360786803F05CFAF860FB689AB2054BED
S1137CA0DA80FB681B0C9AB2024B9A801037BD46EF
S1137CB080BD00BF5804001080B500AF1F48FFF717
S1137CC0E1FF1F4B1F4A9A601D4B1F4ADA601C4B91
S1137CD001221A611A4B00221A64194B00221A75E8
S1137CE0174B00225A75164B00229A75144B00222A
S1137CF09A61134B00229A83114B0022DA83104BB2
S1137D000022DA830E4B00221A840D4B002283F8E2
S1137D1022200B4B00229A84094B00229A62084BC2
S1137D2000229A85064B0022DA85054B002283F84F
S1137D303020064B00221A7080BD00BFD6BE898E4B
S1137D405804001055555500AAAAAA007D09001030
S1137D5080B500AF054800214FF48472FCF70CFA9B
S1137D60024B4FF0FF32C3F8002180BD000C00101D
S1137D7080B588B000AF0346FB710023FB60A44BC1
S1137D8001221A70A34AFB791370FFF795FFA24BE7
S1137D904FF080721A60A14B10221A6002F086F92B
S1137DA003F0D6FAFDF730FDFDF766FFFEF720F885
S1137DB0FCF788FE0023FB7715E1994B1B889BB2E7
S1137DC0002B24D0642003F047FC00BF03F03AFCEE
S1137DD0034603F00403002BF8D1924B1B889BB29B
S1137DE0013B9BB20220194603F084FB612003F09F
S1137DF033FC00BF03F026FC034603F00403002B0E
S1137E00F8D0622003F028FC854B00221A80864BB0
S1137E101B78DBB2002B02D0FEF780FA03E07F4B25
S1137E204FF480721A607D4B10221A60FCF76AFAD4
S1137E308023BB7422E0062003F046FB03461B0AA2
S1137E409BB2FB74794B1B78DBB2002B11D097F9F2
S1137E50123013F1800F0CD1754B1B785BB203F118
S1137E60360297F913309342B8BF1346FB74FB7C78
S1137E70BB7497F913301846FCF75EFA6D4B1B6818
S1137E80002B03D16C4B1B68002BD4D0694B1B68AF
S1137E9003F00103002B09D0684B1B68FB60684B9F
S1137EA01B68664A1360664AFB681360624B1B6872
S1137EB0002B07D0634B1B78DBB243F00203DAB22A
S1137EC0604B1A705B4B1B68002B00D185E0594B4B
S1137ED01B68012B07D95B4B1B78DBB243F0010312
S1137EE0DAB2584B1A70FCF75DFA504B1B78DBB2D0
S1137EF0002B03D1544B1B78002B0CD0514B1B7817
S1137F00DBB243F00803DAB24E4B1A700223FB775C
S1137F10464B00221A704D4B1B785AB2444B1B78C7
S1137F205BB236339A4209DB464B1B78DBB243F033
S1137F301003DAB2434B1A700223FB77444B1B78CD
S1137F40DBB2002B07D0FB7F002B01D10123FB7791
S1137F503F4B00221A70FB7F002B00D13DE0FB7FDA
S1137F60013BFB773B483C494FF4C87205F086F867
S1137F700023BB6125E000237B611CE0BB69323335
S1137F80DA007B6913442E4A1168BA690A441278EC
S1137F90D209D1B22F4AD154294B1A68BB69134470
S1137FA0274A1168BA690A4412785200D2B21A7088
S1137FB07B6901337B617B69072BDFDDBB6901339F
S1137FC0BB61BB69312BD6DD244B1B682148984724
S1137FD0B860BB68002B00D10CE0164B00221A607D
S1137FE0154B00221A601E4B1B78DBB2FA799A42B9
S1137FF03FF4E3AE1B4B4FF080721A60FDF7D0FEE6
S1138000FDF76AFEFCF77CFD2037BD4680BD00BF4E
S1138010420A00103E0A001000E100E03CC00920C2
S1138020440A00109C0400107D090010D4100010B4
S11380304D0400100C0B0010D01000105004001060
S113804054040010480A00107E090010140B00109C
S1138050F00B0010180D0010A80E00109809001065
S11380603F0A001080E100E090B59BB000AF0346EA
S1138070FB71874B01221A70864AFB791370864B79
S113808001221A75854B4FF080721A60844B1022BE
S11380901A6002F00BF803F05BF9FDF775FCFDF7CD
S11380A0EBFD7D4B1B68184603F052F80346184657
S11380B0FDF7FCFE47E27B4B1B889BB2002B29D0CB
S11380C0642003F0C9FA00BF03F0BCFA034603F0CE
S11380D00403002BF8D1744B1B889BB2013B9BB269
S11380E00220194603F006FA612003F0B5FA00BF36
S11380F003F0A8FA034603F00403002BF8D062202F
S113810003F0AAFA674B1B889AB2684B1A80654B36
S113811000221A80624B10221A60FCF7F3F800BFA9
S1138120634B1B68002B0ED1624B1B68002B0AD1DA
S1138130614B1B78DBB2002B05D1604B1B78DBB2A3
S1138140FA799A42ECD05D4B1B78DBB2FA799A4209
S113815000D0FFE1574B1B68002B07D0584B1B780E
S1138160DBB243F00203DAB2554B1A70524B1B7860
S1138170DBB2002B00D02BE14D4B1B68002B00D150
S1138180E1E107F10803FB65434B1B68BB60464B09
S11381901B889BB2DBB2623BDBB2184601F006FEE1
S11381A003461A4613465B0013441B01454A134415
S11381B0BB6500237B6634E0434A7B6E13441B7823
S11381C01A067B6E01334049CB5C1B041A437B6E59
S11381D002333D49CB5C1B0213437A6E03323A49A6
S11381E08A5C13437B657B6E002B00DA03339B10A0
S11381F05C1C786D02F0ACFF01467B6E002B00DA4C
S113820003339B109B00BA6D13441B6881EA03027D
S1138210A30007F168010B4443F8602C7B6E043320
S11382207B667B6E032BC7DDFB6D05331B7803F088
S11382303F0302333B653B6D272B00D9C8E03B6D00
S113824006339B08FB64FB6C0A2B0DD800BF1F4B45
S11382501A68FB6C9B001C490B449A420FD2154BC5
S11382601B68002BF3D00AE000BF194B1B6803F016
S11382700103002B03D00F4B1B68002BF5D0154ACC
S1138280144B1B6823F00103136004237B6658E03E
S1138290420A00103E0A00105804001000E100E0F9
S11382A03CC00920440A00109C040010460A001037
S11382B00C0B0010D01000107D0900103F0A0010B4
S11382C0480A0010DCD200009C1000100441005049
S11382D01041005024000340A54A7B6E13441B78D0
S11382E01A067B6E0133A249CB5C1B041A437B6ED6
S11382F002339F49CB5C1B0213437A6E03329C49C1
S11383008A5C1343BB647B6E002B00DA03339B103F
S11383105C1CB86C02F01CFF01467B6E002B00DA7B
S113832003339B109B00BA6D13441B6881EA03025C
S1138330A30007F168010B4443F8602C7B6E0433FF
S11383407B667B6E2B2BC7DD8A4B1B69002B23D0EE
S1138350884BD968FB6D1A1D3B6D084611461A46B9
S113836001F028FE78643B6D0633FA6D13441B78E4
S11383701A043B6D0533F96D0B441B781B02134340
S11383803A6D0432F96D0A44127813433B647A6CF3
S11383903B6C9A4200D01BE0774B10221A60774B5B
S11383A01B6807F108021046984707F108030120EB
S11383B01946FCF789F8724B1B68C3F3130340F6A4
S11383C0354202FB03F26F4B1B681344694A136482
S11383D0612003F041F900BF03F034F9034603F0D0
S11383E00403002BF8D0684A674B1B6823F0010391
S11383F0136003E0654B1B6887F83F30644B1B68D0
S113840003F00403002BF5D15D4B1B68C3F3130386
S113841040F6354202FB03F25A4B1B6813443B6699
S1138420544B1A6C3B6E9A4205D93B6E03F143439D
S113843003F5A0033B664F4B1B7D032B03D04D4B31
S11384401B7D022B06D14B4B1B6C3A6ED31A514A3F
S1138450934203D8504B1B68012B37D1FFF72CFCF8
S11384604D4B00221A604D4B4FF480721A604C4BF6
S11384701B78DBB2012B06D1494B00221A70494B01
S113848000221A7066E0FB790A2B01D100BF61E07B
S1138490384B01221A75642003F0DEF800BF03F0A4
S11384A0D1F8034603F00403002BF8D13E4B1B889C
S11384B09BB2002B03D03C4B1B889BB201E040F6DF
S11384C062133A4A13803A4B01221A60294BDB8823
S11384D02C20194603F00EF8264B9B882D201946B4
S11384E003F008F8334B1B78DBB2002B01D0FDF707
S11384F015FF294B1B68002B07DDFDF7C5FE264B36
S11385001B68013B244A136017E0FDF73DFAFDF7B1
S1138510B3FB274B1B68002B0CD0164B1B6818466B
S113852002F016FE03461846FDF7C0FC204B00225D
S11385301A6002E0622003F08FF81F4B00221A60D9
S11385401E4B00221A60174B1B78DBB2FA799A4251
S11385503FF4B1AD1A4B4FF080721A60FDF720FC66
S1138560FDF7BAFBFCF7CCFA6C37BD4690BD00BFF3
S11385709C1000105804001038C009209C090010F9
S1138580F40B00100840004024000340080003409E
S11385900C00034080F0FA02940900103CC009204A
S11385A0400A00103F0A0010460A00109C04001004
S11385B0500A00107D0900100C0B0010D0100010A0
S11385C080E100E080B58CB000AF6C4B1B889BB29F
S11385D0DBB2623BDBB2184601F0E8FB03461A4605
S11385E0674B9B5C3B620023FB610023FB620EE054
S11385F0FB695B08FB61634AFB6A13441B78DB0776
S11386001A46FB691343FB61FB6A0133FB62FB6A95
S11386101E2BEDDD1F23FB62A6E0FB695B08FB61FB
S1138620584AFB6A13441B78DB071A46FB69134359
S1138630FB61554B1A68FB699A4240F09280002313
S1138640BB6248E00023FB7600237B6237E0BB6A11
S1138650DA007B6A1A44FB6A13441F3B3B613B69A3
S1138660B3F5487F00DB2DE0464A3B6913441B7891
S11386707B61BB6A032B16DD444A3B6A13441B78B7
S11386801A467B6953407B613B6A01331946404B70
S1138690A1FB0323C81A400803449A091346DB01CB
S11386A09B1ACA1A3A627A697B6A02FA03F3DAB24B
S11386B0FB7E1343DBB2FB767B6A01337B627B6A0E
S11386C0072BC4DD334B1A68BB6A1344FA7E1A7055
S11386D0BB6A0133BB62BB6A2D2BB3DD2A4B1B691A
S11386E0002B2ED02B4B1B6805331B7803F03F0364
S11386F00233FB60244BDA68264B1B6804331046B4
S11387001946FA6801F056FCB860224B1A68FB68F7
S1138710063313441B781A041E4B1968FB6805338F
S11387200B441B781B0213431A4A1268F96804317C
S11387300A44127813437B60BA687B689A4200D07B
S113874017E0144B1B6801201946FBF7BDFE124BC2
S113875010221A60114B1B680E4A12681046984783
S113876007E0FB6A0133FB62FB6AB3F5D87FFFF6CF
S113877054AF012318463037BD4680BD9C04001019
S11387808CD20000180D0010580400100CD2000008
S1138790110804025404001038C009209C09001078
S11387A080B58AB000AF786000233B627B68FB61D0
S11387B07B681B79FB767B6805337B617B680633BA
S11387C03B617B691B7806331A467B681344FB6064
S11387D08B4B1B7D022B1CD1894B03221A75894BB1
S11387E01B68874A9361864BDB8B013B9AB2844BAF
S11387F09A83834B00221A84814B00229A62824B13
S11388001B78DBB2002B00F0F780804B28221A6023
S1138810F2E07B4B1B7D032B6FD1FB7E03F0030344
S1138820FB72774B9B6A002B21D0754B1B8C9AB241
S1138830734B9B8D9A421AD1724B1B68704A936199
S11388406F4BDA8D6E4BDA836D4BDB8D013B9AB245
S11388506B4B9A836A4B93F83020694B83F8222040
S1138860674B5A8E664B9A84654B00229A62FB7A58
S1138870032B41D13B691B78002B3DD17B68DA790E
S11388805F4B83F830207B6808331B789AB27B688F
S113889009331B789BB21B029BB213449AB2584B08
S11388A05A867B680A331B789AB27B680B331B7831
S11388B09BB21B029BB213449AB2514BDA857B687C
S11388C010331B789AB27B6811331B789BB21B025E
S11388D09BB213449AB24A4B9A85494B9B8D1A46D4
S11388E0474B1B8C9BB2D31A47F6FE72934203DCB0
S11388F0434B01229A627FE07EE0414B1B7D012BBA
S11389007AD17B6804331B7803F00F03BB72BB7A04
S1138910052B71D13A4BDB6B002B14D07B680633EB
S11389203B481946062204F077FB0346002B0AD085
S11389307B680C3336481946062204F06DFB034667
S1138940002B00D058E02E4B02221A752C4B00222B
S11389501A6100237B6211E07B6A12331A467B683A
S113896013441B781A467B6ADB0002FA03F31A46A7
S11389703B6A13433B627B6A01337B627B6A032B52
S1138980EADD386AFFF77EF97B6818331B781A042E
S11389907B6817331B781B0213437A6816321278EC
S11389A013431A46164B9A60154B9B68184602F0FF
S11389B0CFFB0246124BDA607B685A7E104B83F879
S11389C022207B681A331B789AB20D4B9A847B68F9
S11389D01C331B789AB20A4BDA837B6827331B78E3
S11389E003F01F03DAB2064B9A75054B9A7D044BCC
S11389F05A75084B01221A702837BD4680BD00BF46
S1138A0058040010F40B0010400A001094090010E0
S1138A108C0400107D09001080B500AFFFF74CF9FD
S1138A20044B054A1A600920FFF71EFB034B002282
S1138A301A7080BD9C090010A18700003E0A001036
S1138A4080B592B000AF0346B9607A60FB7307F15A
S1138A50140300221A60043300221A600433002233
S1138A601A60043300221A60043300221A600433AB
S1138A7000221A60043300221A60043300221A60B0
S1138A80043300221A60043300221A6004330022E3
S1138A901A60043300221A60043300221A8002335D
S1138AA07B68312B01D931237B60FB7B3B7507F15C
S1138AB0140301331846B9687A6804F0DFFA07F141
S1138AC0140305201946FBF7FFFC4837BD4680BD5B
S1138AD080B584B000AF7860554B1B889BB240F6DC
S1138AE06412934214D1534B1B68C3F3130340F62F
S1138AF0354202FB03F2504B1B6813444F4A136088
S1138B004F4B40F666121A804E4B01221A708BE0CE
S1138B10474B1B889BB240F6661293427DD1454B6E
S1138B201B68C3F3130340F6354202FB03F2424BC6
S1138B301B681344FB60414B1B68FA689A4205D2D8
S1138B40FB6803F1434303F5A003FB603B4B1B6845
S1138B50FA68D21A3C4BDB8B194643F2D40303FB6D
S1138B6001F3D90F0B445B101344374AD28B1146DF
S1138B7043F2D40202FB01F2B3FBF2F3BB60BB6825
S1138B80242B42D8314ABB6813441A782E4B9A7569
S1138B902D4BDB8B5B089AB22B4B9A832A4B00221A
S1138BA01A84294B00229A61264B00221A70264B04
S1138BB09B7D5A1C264B82FB030153185911D31772
S1138BC0C91A0B46DB000B449B000B44D11ACAB2F2
S1138BD01D4B5A751C4B03221A751B4B00221A613C
S1138BE01C4B03221A701C4B1C4A1A6003201C499C
S1138BF00122FFF725FF1B4B1B78DBB2002B03D0B0
S1138C00194B28221A600FE00EE00D4B40F6641257
S1138C101A800C4B01221A7006E0094B40F66412CC
S1138C201A80084B01221A701037BD4680BD00BF60
S1138C309C040010F40B001008400040540A00107B
S1138C40800900107D09001058040010B4D20000FF
S1138C50A7C867DD7C0900109C090010A1870000EB
S1138C606E040010400A00109409001080B586B00C
S1138C7000AF7860334B1B68C3F3130340F63542EF
S1138C8002FB03F2304B1B6813447B612F4B1B68C0
S1138C907A699A4203D27A692D4B13447B612B4B38
S1138CA01B687A69D31A3B613B6946F2A712934267
S1138CB000D843E0274BD3F800213B699A4203D9FB
S1138CC0244A3B69C2F80031224BD3F8003103F542
S1138CD0613303F25233204AA2FB03239B0CFB8132
S1138CE01E4BDB8BFA899A421ED11A4BD3F80431FE
S1138CF00133184AC2F80431164BD3F80431052B5A
S1138D0019D1174B174A1A60174B40F664121A8090
S1138D10164B04221A70164B01221A7002201549B0
S1138D200222FFF78DFE06E00C4AFB89D383094B30
S1138D300022C3F80421054A7B6913601837BD4635
S1138D4080BD00BFF40B001008400040580A00101A
S1138D50C0ABC6C2000C0010C1A919915804001080
S1138D609C090010D18A0000800900107C090010C1
S1138D707D0900107604001080B584B000AF7860DF
S1138D80284B1B69002B49D17B6804331B78012BCA
S1138D9044D17B6805331B78002B3FD17B680833B3
S1138DA01B781A047B6807331B781B0213437A6809
S1138DB0063212781343BB607B680433B8681946E3
S1138DC0022201F095F80246164B9A60154B0022D8
S1138DD0DA600023FB6013E0124BDA68114B9968E8
S1138DE0FB6821FA03F303F00101FB68C3F11703E5
S1138DF001FA03F313430B4AD360FB680133FB60AE
S1138E00FB68172BE8DD074B01221A61064B074A62
S1138E101A60012006490322FFF712FE1037BD46EF
S1138E2080BD00BF580400109C0900106D8C000028
S1138E306004001080B487B000AF78604FF0FF3357
S1138E403B614FF0FF33FB6000237B6115E0224A56
S1138E507B6952F833207B689A420BD11E4A7B69A6
S1138E60DB0013445B685A1C1B497B69DB000B4421
S1138E705A602CE07B6901337B617B691F2BE6DD43
S1138E8000237B6115E0144A7B69DB0013445A68B4
S1138E903B699A4202DB3B69002B07DA7B69FB6082
S1138EA00D4A7B69DB0013445B683B617B690133DA
S1138EB07B617B691F2BE6DD0749FB687A6841F813
S1138EC03320054AFB68DB00134401225A601C3737
S1138ED0BD465DF8047B7047000C001090B5A1B04E
S1138EE000AF786007F11C03402218460021FBF70D
S1138EF043F901233B77012387F82C30012387F8BA
S1138F002F30012387F83C30012387F83E300123BA
S1138F1087F84C30012387F84E30012387F84F300F
S1138F200023FB6741E0A54B1B889BB2DBB2623B8D
S1138F30DBB2184600F03AFF03461A46A04B9B5C8E
S1138F403B670023BB672AE0FB6F1B0107F180022C
S1138F501A44BB6F1344643B1A789A493B6F0B4421
S1138F601B785340D9B2FB6F1B0107F180021A44EE
S1138F70BB6F1344643B0A461A703B6F01331946B6
S1138F80914BA1FB0323C81A400803449A091346D2
S1138F90DB019B1ACA1A3A67BB6F0133BB67BB6F0D
S1138FA00F2BD1DDFB6F0133FB67FB6F032BBADDA6
S1138FB02023FB67D0E0854B07F10C040FCB84E83A
S1138FC00F004FF0FF33FB660023BB6726E000234E
S1138FD07B671DE0FA6F7B6F13441A467B6813446A
S1138FE01A78BB6F1B0107F1800119447B6F0B4496
S1138FF0643B1B789A4208D0BB6F9B0007F1800248
S11390001344002243F8742C05E07B6F01337B6723
S11390107B6F0F2BDEDDBB6F0133BB67BB6F032B95
S1139020D5DD0023BB670EE0BB6F9B0007F1800218
S1139030134453F8743C002B02D0BB6FFB6605E06D
S1139040BB6F0133BB67BB6F032BEDDDFB6E002BE6
S11390507FDB5A4B1B889BB2DBB2623BDBB2184608
S113906000F0A4FE03461A46554B9B5C3B67002365
S1139070BB674CE0002387F86B3000237B6739E043
S1139080BB6FDA007B6F1A44FB6F1344203B3B66D3
S11390903B6EB3F5487F00DB2FE03B6E7A681344E8
S11390A01B787B66BB6F032B16DD464A3B6F13446C
S11390B01B781A467B6E53407B663B6F013319461F
S11390C0414BA1FB0323C81A400803449A091346E1
S11390D0DB019B1ACA1A3A677A6E7B6F02FA03F3B2
S11390E0DAB297F86B301343DBB287F86B307B6FDF
S11390F001337B677B6F072BC2DD354B1A68BB6F6F
S1139100134497F86B201A70BB6F0133BB67BB6FB6
S1139110092BAFDD2E4B1B6803331B781A062C4B2F
S11391201B6802331B781B041A43294B1B68013349
S11391301B781B021343264A126812781343FB65FB
S1139140F86DFFF777FE224B1B6801201946FBF7E9
S1139150BBF9FB6F0133FB67FB6FB3F53C7FFFF695
S11391602AAF0023FB6720E01A4AFB6FDB0013449D
S11391705B68032B16DD174AFB6F52F83330184631
S1139180FEF780FD144B154A1A60154B154A1A60F8
S1139190154B00221A61002013490422FFF750FCEA
S11391A0002306E0FB6F0133FB67FB6F1F2BDBDD46
S11391B0012318468437BD4690BD00BF9C040010AF
S11391C08CD200000CD2000011080402ACDA0000BA
S11391D054040010000C001098090010C58500000C
S11391E09C090010798D00005804001080B500AF70
S11391F02CE0FEF7ADFD184B1B889BB203F0010376
S1139200002B03D0144B40F688121A80134BDB6BEF
S1139210002B07D1FBF71CFC114B124A1A600A20E1
S1139220FEF7A6FD104B1B78DBB20A2B00D012E030
S113923000200A490422FFF703FC0C4B0C4A1A6075
S1139240064B00221A610A20FEF70EFF064B1B781C
S1139250DBB20A2BCDD080BD9C0400105804001052
S113926098090010DD8E00003F0A00109C090010D0
S1139270798D000090B589B000AF354A3B1D144686
S113928020686168A26807C3A2891A800B23FB7651
S11392900023FB610EE0FB690233FA69C2F10502A7
S11392A02C498A5C07F120010B4403F81C2CFB6950
S11392B00133FB61FB69052BEDDD274BD968FB7E90
S11392C03A1D084611461A4600F0CEFD7861FB7E31
S11392D07A69D2B207F120010B4403F81C2CFB7EFF
S11392E001337A69120AD2B207F120010B4403F860
S11392F01C2CFB7E02337A69120CD2B207F12001D6
S11393000B4403F81C2C1BE0144B4FF080721A60C2
S1139310124B4FF080621A60FB7E0333DAB23B1DBE
S11393200F4811461A46FCF733FE0E4B4FF080727D
S11393301A600C4B4FF080621A606420FCF724FA28
S1139340094B1B78DBB20C2BDED02437BD4690BD15
S1139350BCDA00008C0900105804001080E100E021
S1139360D6BE898E00E100E03F0A001090B591B0AE
S113937000AF002387F83D305A4B10221A6000F0EA
S113938095FE594B80221A60122042F6223102F0D7
S1139390B1F8142041F24B3102F0ACF8202040F235
S11393A0011102F0A7F80320292102F0A3F800BF5D
S11393B002F048F9034603F04003002BF8D000BF45
S11393C002F040F9034603F00403002BF8D17AE0DD
S11393D0464B1B88FB876FE0FB8F013B9BB202204F
S11393E0194602F087F8612002F036F900BF02F056
S11393F029F9034603F00403002BF8D0622002F09D
S11394002BF94FF4FA737B6000BF7B68013B7B60F0
S1139410002BFAD197F83D2013465B001344FA8FD2
S1139420120A92B2D2B207F140010B4403F8382C6D
S113943097F83D2013465B0013440133FA8FD2B2F0
S113944007F140010B4403F8382C97F83D201346EC
S11394505B0013449C1C062002F036F803461B0AEA
S11394609BB2DAB207F14003234403F8382C97F88F
S11394703D30013387F83D3097F83D30102B0DD146
S113948007F1080304201946FBF71EF8002387F8A8
S11394903D30174B1B68184600F0A8FE642002F00C
S11394A0DBF800BF02F0CEF8034603F00403002B00
S11394B0F8D1FB8F0133FB87FA8F0E4B1B889BB2CD
S11394C001339A4288DB0C4B1B78DBB2042B3FF44C
S11394D07FAF0A4B00221A70094B10221A604437DE
S11394E0BD4690BD38C0092058C009209E04001014
S11394F0F40B0010A00400103F0A00103E0A0010F4
S11395003CC0092080B584B000AF0023FB735B4AE4
S113951007F108031068186092889A80584B8022DB
S11395201A60122042F6223101F0E4FF142041F2C5
S11395304B3101F0DFFF202040F2011101F0DAFF8E
S11395400320292101F0D6FF0620F12101F0D2FFEA
S113955000BF02F077F8034603F04003002BF8D075
S113956000BF02F06FF8034603F00403002BF8D1A8
S113957079E0FB7B5B0007F11002134433F8083CED
S1139580013B9BB20220194601F0B4FF612002F0B6
S113959063F800BF02F056F8034603F00403002BFF
S11395A0F8D0622002F058F84FF4FA737B6000BFE1
S11395B07B68013B7B60002BFAD1062001F084FF1D
S11395C003461B0A9BB2BB732E4B1B78DBB297F985
S11395D00E205BB29A4215DDFB7B012B09D0022BD6
S11395E00BD0002B00D021E0274B4FF480721A607F
S11395F007E0254B10221A6003E0234B02221A6075
S113960000BF13E0FB7B012B08D0022B0AD0002BF8
S11396100CD11E4B4FF480721A6007E01B4B1022D2
S11396201A6003E0194B02221A6000BFFB7B5A1C2C
S1139630174B83FB0231D317C91A0B465B000B444B
S1139640D11A0B46FB73134B1B68184600F0CEFD72
S1139650642002F001F800BF01F0F4FF034603F0B8
S11396600403002BF8D10C4B1B78DBB2072B80D002
S11396700A4B00221A701037BD4680BDCCDA0000B8
S113968058C00920A204001038C009203CC0092099
S113969056555555F40B00103F0A00103E0A0010B1
S11396A0F0B5A3B000AF78600A23BB67714B1C46CA
S11396B007F1480604F1200E354623461868596818
S11396C09A68DB680FC5103410367445F4D13346FC
S11396D022461068516803C3127A1A70292387F846
S11396E077300D2047F6FF7101F004FF122042F697
S11396F0223101F0FFFE142041F24B2101F0FAFE69
S1139700202040F6615101F0F5FE5B4B1B889BB2B3
S11397100220194601F0EEFE0520082101F0EAFEC0
S11397200320402101F0E6FE2320142101F0E2FE93
S1139730082001F0C9FE0346A7F87430B7F8743066
S1139740C3F308039BB243F49C439BB29BB208202F
S1139750194601F0CFFE00BF01F074FF034603F089
S11397604003002BF8D0612001F076FF00BF01F028
S113977069FF034603F00403002BF8D03F4B4FF47A
S113978080721A603E4B80221A6000BF0E2001F0E6
S11397909BFE034603F01F030F2BF7D10023C7F8EA
S11397A0803047E0632001F057FF0023C7F884307E
S11397B024E000BF334B1B6803F00403002BF9D1F2
S11397C0D7F88430DBB297F87720D31A87F8733050
S11397D097F87330102B02D9102387F8733007F1F0
S11397E04802D7F884301344702010211A4601F03F
S11397F0C3FED7F884301033C7F8843097F8772045
S1139800D7F884309A42D4D800BF0E2001F05CFE11
S1139810034603F01F030F2BF7D11B4BFB6700BF5D
S1139820FB6F5A1EFA67002BFAD1D7F88030013348
S1139830C7F88030BA6FD7F880309A42B2D8134B49
S11398404FF480721A60642001F006FF00BF01F03B
S1139850F9FE034603F00403002BF8D10C4B8022DD
S11398601A60B7F874300820194601F043FE8C37AB
S1139870BD46F0BDD4DA00009C04001038C00920B5
S113988058C0092054C00920A08601003CC009200A
S11398905CC0092080B500AF01F050FD5C4800F0C9
S11398A0DDFB5C4B1B68184600F0A0FC5A4B1B7890
S11398B0DAB25A4B1B78DBB29A4200F0A880564BBE
S11398C01B78DBB2132B00F2A18001A252F823F023
S11398D0079A00002D9900000D9A00009F9900003E
S11398E0E7990000B3990000D9990000ED990000B0
S11398F0819900008D99000093990000219900003E
S113990099990000F39900005199000069990000A9
S113991075990000459900005D990000399900008F
S1139920012001F003FC01F0A1FF70E03B4B012298
S11399301A70FDF7DDFA6AE0384B13221A70FDF74E
S1139940ABFC64E0354B11221A70FDF739FF5EE081
S1139950324B0E221A70FDF7C9F858E02F4B122231
S11399601A70FDF75DFE52E02C4B0F221A70FCF7C3
S1139970CDFF4CE0294B10221A70FCF7CBFD46E0DA
S1139980264B08221A70FDF7D9FF40E0FFF744F890
S11399903DE0FFF72BFC3AE0FFF76CFC37E01F4B90
S11399A003221A701E48FFF77BFE1B4B00221A701D
S11399B02DE01A4B05221A701A4800F035FC174B9B
S11399C000221A70144B1B78DBB2052B03D1124B07
S11399D000221A701BE01AE0104B06221A7011487C
S11399E000F040FE13E0FFF7C1FC10E0FFF78AFD32
S11399F00DE00A4B0D221A700B4B1B78DBB2184694
S1139A0001F0E2FA03E0FCF7CBF900E000BF48E71D
S1139A103D4B0000F40B00103F0A00103E0A0010FA
S1139A20420A00109C040010410A001090B492B045
S1139A3000AF0346FB710B46BB711346BB80FB7939
S1139A4003F01F03FB71BB7903F01F03BB71BB88D9
S1139A50C3F30803BB805C4A07F11C031446206867
S1139A606168A26807C3A2891A80584A07F10C03E7
S1139A70144620686168A26807C3A2891A8000237B
S1139A807B6410E0BA887B6C42FA03F3DBB203F028
S1139A900103D9B207F12C027B6C13440A461A70F5
S1139AA07B6C01337B647B6C082BEBDD00237B64D4
S1139AB011E07B6C0933B9797A6C41FA02F2D2B2C3
S1139AC002F00102D2B207F148010B4403F81C2C46
S1139AD07B6C01337B647B6C042BEADD00237B64A9
S1139AE010E0FA797B6C42FA03F3DBB203F0010372
S1139AF0D9B207F13C027B6C13440A461A707B6CA2
S1139B0001337B647B6C042BEBDD0D237B6436E03B
S1139B1007F12C027B6C13441B78002B2CD007F12B
S1139B201C027B6C13441B7807F14802134413F89E
S1139B300C3C87F8423007F11C027B6C13441B7801
S1139B40194607F10C027B6C13441B7807F1480299
S1139B50134413F80C2C07F148030B4403F80C2CA2
S1139B6007F10C027B6C13441B7807F14802134481
S1139B7097F8422003F80C2C7B6C013B7B647B6CD4
S1139B80002BC5DA002387F8433000237B6411E0FF
S1139B9007F13C027B6C13441B781A467B6C02FA77
S1139BA003F3DAB297F84330134487F843307B6CFD
S1139BB001337B647B6C042BEADD97F84330184651
S1139BC04837BD4690BC704700DB000010DB000046
S1139BD080B58AB000AF78607B689B08DBB203F085
S1139BE01F0387F826307B685B08DBB203F00103B0
S1139BF087F8253097F825309BB25B017B847B681E
S1139C005B0DDAB24B4B1B785340DBB203F01F03FE
S1139C1087F821307B681B0CDAB2474B1B78534022
S1139C20DBB203F01F0387F820307B68DB099AB2AC
S1139C30424B1B8853409BB2C3F30803FB837B68EE
S1139C40DB0823F07E4323F00F03BB61B9693C4B6F
S1139C50A3FB01239A0913469B0013441B019B1A7F
S1139C60CB1A7B6197F8262097F821301344DBB296
S1139C70DBB203F01F03DAB2324B1B78DBB2534082
S1139C80DBB2D9B297F825301A465201D31ADBB2A7
S1139C90DAB297F820305340DBB2DAB2FB8B0846D5
S1139CA011461A46FFF7C2FE0346FB74FB7C264AA4
S1139CB0127813441A467B691A447B8CD118204BC2
S1139CC0A3FB01239A0913469B0013441B019B1A0F
S1139CD0CA1A1E4B9B5C87F827301D4B1B78002B40
S1139CE01DD01C4B1B781A46BB69B3FBF2F102FB77
