S0160000626C7565746F6F74685F727874782E7372656303
S1134000E03F0010259E0000919E0000919E00005C
S1134010919E0000919E0000919E0000000000000F
S1134020000000000000000000000000919E00005D
S1134030919E000000000000919E0000919E0000EF
S1134040919E00000D530000919E0000919E00007F
S1134050919E0000919E0000919E0000919E0000A0
S1134060919E0000919E0000919E0000919E000090
S1134070919E0000919E0000919E0000919E000080
S1134080919E0000919E0000919E0000919E000070
S1134090919E000029540000919E0000919E000012
S11340A0199E0000919E0000F1580000919E0000AE
S11340B0919E0000919E0000919E0000919E000040
S11340C0919E0000919E0000919E000010B5054C49
S11340D0237833B9044B13B10448AFF300800123B0
S11340E0237010BD6009001000000000E0C900004A
S11340F0084B10B51BB108480849AFF300800848C5
S1134100036803B910BD074B002BFBD0BDE810407A
S1134110184700BF00000000E0C900006409001057
S1134120600900100000000070B50F4E0F4D761BA3
S1134130B61018BF002405D0013455F8043B984745
S1134140A642F9D10A4E0B4D08F04AFC761BB61074
S113415018BF002406D0013455F8043B9847A64202
S1134160F9D170BD70BD00BFECC90000ECC90000FE
S1134170F4C90000ECC9000070B4840746D0541E92
S1134180002A41D0CDB2034602E0621EE4B31446D5
S113419003F8015B9A07F8D1032C2ED9CDB245EA76
S11341A005250F2C45EA054519D9264603F11002C9
S11341B0103E0F2E42F8105C42F80C5C42F8085C8A
S11341C042F8045C02F11002F2D8A4F1100222F0C9
S11341D00F0204F00F041032032C13440DD91E46B1
S11341E02246043A032A46F8045BFAD8221F22F036
S11341F003020432134404F003042CB1C9B21C4476
S113420003F8011BA342FBD170BC7047144603465C
S1134210C2E700BF024B13B1024800F005B8704773
S1134220000000003542000001460020024603461B
S113423000F016B838B5084B084DED1AAC1018BF8D
S1134240ED1805D0013C55F8043D9847002CF9D1F0
S1134250BDE8384008F0CEBB00CA000004CA000024
S11342602DE9F047254C064625688846D5F848418F
S113427092469946C4B360681F2817DC411C76B186
S113428004EB8003C3F888A0D4F88851012282404B
S11342901543022EC4F88851C3F808911ED0831C1C
S11342A06160002044F82380BDE8F087144B03B319
S11342B04FF4C870AFF300800446D0B1D5F848314C
S11342C0002784E888003846C5F848410121C4F82D
S11342D08871C4F88C71002EE1D0D1E7D4F88C3108
S11342E01A43C4F88C21DAE705F5A674C5F84841E9
S11342F0C1E74FF0FF30BDE8F08700BF54BF0000B6
S11343000000000080B400AF074B00221A70074B76
S113431000221A60064B80221A70064B7F221A7004
S1134320BD465DF8047B7047490A00104C0A001032
S1134330040B0010B80B001080B483B000AF034628
S1134340FB71144B1B785AB297F907309342B8BFEC
S11343501346DAB20F4B1A700F4B1B785AB297F907
S113436007309342A8BF1346DAB20B4B1A7097F981
S113437007301A02094B1B681344084A1360084BA0
S11343801B780133DAB2064B1A700C37BD465DF860
S1134390047B7047040B0010B80B00104C0A00108B
S11343A0490A001080B485B000AF1F4B1B78002B66
S11343B006D01E4B1B889BB2A3F66213FB6001E080
S11343C00023FB601A4B1B78002B08D0194B1B6889
S11343D08033174A127893FBF2F3BB6001E00023A9
S11343E0BB60154AFB6832F813301AB213469B01BE
S11343F09B1A9B0013447B60BA6813465B0013440A
S11344007A6813447B607B688033002B00DAFF33C7
S11344101B1299B2084AFB6822F813101437BD46E0
S11344205DF8047B704700BF7C0900109C040010F9
S1134430490A00104C0A0010A009001080B582B08F
S113444000AF03460A46FB711346BB7197F9073068
S113445013F1140F0DD097F9073013F1130F08DA85
S113446097F907306FF077029342B8BF1346DBB277
S113447000E0EC23FB71FB793833DBB29BB203F031
S1134480FC039AB2BB799BB203F003039BB21343C0
S11344909BB29BB20620194605F0E2FE084AFB795E
S11344A0137097F9073013F1770FB4BF012300237A
S11344B0DBB21A46034B1A700837BD4680BD00BFF5
S11344C04D0400107E09001080B588B000AF03468B
S11344D03960FB7104F05CFCF861FB69002B09D1C5
S11344E04E4B1B78DBB243F00403DAB24B4B1A7029
S11344F000238EE0FB69FA791A70FB79042B13D13F
S1134500474B1B681B0DDAB2FB69DA70444B1B681E
S1134510C3F3130340F6354202FB03F2414B1B681D
S11345201A44FB695A6008E03F4B1B68DAB2FB6926
S1134530DA703E4B1A68FB695A603D4B1B889BB28C
S1134540DBB2623BDAB2FB699A703A4B1B78DAB29F
S1134550FB695A72384B1B78DAB2FB691A72374B13
S11345601A78FB691A73364B02221A60FB690E3300
S1134570BB613B687B617B691A68BB691A60BB6974
S113458004337A6952681A60BB6908337A6992689D
S11345901A60BB690C337A69D2681A60BB6910333C
S11345A07A6912691A60BB6914337A6952691A60AC
S11345B0BB6918337A6992691A60BB691C337A69DA
S11345C0D2691A60BB6920337A69126A1A60BB69BE
S11345D024337A69526A1A60BB6928337A69926A09
S11345E01A60BB692C337A69D26A1A60FB690E338C
S11345F03B613B68FB603B693033FA68128E1A807A
S1134600064B1B78DAB2FB695A70044B00221A700D
S1134610012318462037BD4680BD00BF480A00105C
S1134620E40B00100840004030100010C80B0010CC
S113463088090010B80B0010040B0010E80B0010E0
S113464038C0092080B586B000AF0346B9607A60EF
S1134650FB7304F09DFB78617B69002B09D1144B3B
S11346601B78DBB243F00403DAB2114B1A70002357
S113467019E07B69FA7B1A707B697A685A600D4B82
S11346801A787B699A720C4B1A787B69DA720B4B35
S113469002221A60064B1B78DAB27B695A70044B0B
S11346A000221A70012318461837BD4680BD00BF8A
S11346B0480A00102D100010E90B001038C0092022
S11346C080B582B000AF174B1B78002B1DD0164B62
S11346D01B785BB2002B18DD144B1B889BB2A3F62E
S11346E06213134A32F813301BB28033002B00DA02
S11346F0FF331B12BB71BA790B4B1B78DBB213442B
S1134700DBB2363BDBB2FB7102E0074B1B78FB717B
S113471097F9073018460321FFF790FE0837BD4686
S113472080BD00BF7C0900104C0400109C040010E4
S1134730A009001080B400AF094B00221A70094B85
S11347404FF400121A60084B04221A60074A074B00
S11347501B6843F004031360BD465DF8047B704797
S1134760C010001000E100E0AC800240B4800240C0
S113477080B400AF094A094B1B6823F0040313609B
S1134780074B04221A60074B4FF400121A60064BC1
S113479000221A70BD465DF8047B7047B480024065
S11347A0AC80024080E100E0C01000102DE9F04F21
S11347B095B000AFB9607A603B600346FB73002399
S11347C07B64FB7B3E2B00F2638501A252F823F04D
S11347D0CD480000D748000091520000074900006E
S11347E02949000045490000674900008349000049
S11347F0A5490000C5490000E7490000874C0000B6
S1134800AD4C00005D4A0000674A0000074A000002
S1134810454B0000654B0000994B0000B94B00006C
S1134820D54B0000614C0000694C00007B4C00003B
S1134830374D0000554D000091520000614D0000BD
S1134840DD4B0000F94B0000214C0000194C000026
S1134850294C0000254E0000BD4D0000994E00007B
S1134860A74E0000B74E0000C94E0000954F00004F
S1134870DB4F0000695000009D500000BF50000055
S11348801751000095520000495100005F5100008B
S11348907B51000091510000BD5100000D500000FB
S11348A03F500000D95100001D520000674E000027
S11348B02F52000091520000075200007352000072
S11348C07F520000E7480000F74800003B680022E0
S11348D01A6000F0E0BCA74B01221A703B6800226A
S11348E01A6000F0D8BCA34B0E221A703B68002259
S11348F01A6000F0D0BC9F4B0F221A703B68002254
S11349001A6000F0C8BC9C4B1B6803F00203002B28
S113491014BF01230023DBB21A467B681A703B687C
S113492001221A6000F0B7BCBB681B88002B04D0BE
S1134930924B02221A6000F0AEBC914B02221A6024
S113494000F0A9BC8C4B1B6803F01003002B14BFB0
S113495001230023DBB21A467B681A703B680122EC
S11349601A6000F098BCBB681B88002B04D0834BF2
S113497010221A6000F08FBC814B10221A6000F0E4
S11349808ABC7D4B1B6803F48073002B14BF012386
S11349900023DBB21A467B681A703B6801221A6056
S11349A000F079BCBB681B88002B05D0734B4FF417
S11349B080721A6000F06FBC714B4FF480721A6001
S11349C000F069BC6C4B1B6803F40073002B14BF2C
S11349D001230023DBB21A467B681A703B6801226C
S11349E01A6000F058BCBB681B88002B05D0634BD1
S11349F04FF400721A6000F04EBC614B4FF4007229
S1134A001A6000F048BC36237B625E4B1B6807F1DA
S1134A10240107F110020846114698473B69DAB2AF
S1134A207B681A707B6801337A69D2B21A707B682A
S1134A3002337A69120AD2B21A707B6803337A6934
S1134A40120CD2B21A707B6804337A69120ED2B295
S1134A501A703B6805221A6000F01DBC454B0B22FE
S1134A601A7000F018BC3A237B62464B1B6807F1AE
S1134A70240107F110020846114698473B69DAB24F
S1134A807B681A707B6801337A69D2B21A707B68CA
S1134A9002337A69120AD2B21A707B6803337A69D4
S1134AA0120CD2B21A707B6804337A69120ED2B235
S1134AB01A707B680533BA69D2B21A707B68063300
S1134AC0BA69120AD2B21A707B680733BA69120C37
S1134AD0D2B21A707B680833BA69120ED2B21A7055
S1134AE07B680933FA69D2B21A707B680A33FA69AF
S1134AF0120AD2B21A707B680B33FA69120CD2B262
S1134B001A707B680C33FA69120ED2B21A707B6881
S1134B100D333A6AD2B21A707B680E333A6A120ABB
S1134B20D2B21A707B680F333A6A120CD2B21A707E
S1134B307B6810333A6A120ED2B21A703B681122A3
S1134B401A60A8E3104B1B6803F08003002B14BF0A
S1134B5001230023DBB21A467B681A703B680122EA
S1134B601A6098E3BB681B88002B11D0074B802286
S1134B701A6090E33F0A001034C0092038C00920AD
S1134B803CC009204804001054C0092058C0092022
S1134B90944B80221A607EE3934B1B6803F480736A
S1134BA0002B14BF01230023DBB21A467B681A7062
S1134BB03B6801221A606EE3BB681B88002B04D09B
S1134BC08A4B4FF480721A6065E3864B4FF480720F
S1134BD01A6060E3864B03221A705CE3052005F03B
S1134BE029FB0346DBB203F00703DAB27B681A70D1
S1134BF03B6801221A604EE3BB681B88072B09D867
S1134C00BB681B8843F008039BB20520194605F0D6
S1134C1027FB40E300233FE3754B05221A703AE378
S1134C20734B06221A7036E3724B1A787B681A703B
S1134C307B6801336F4A52781A707B6802336D4A7D
S1134C4092781A707B6803336A4AD2781A707B6848
S1134C500433684A12791A703B6805221A601AE311
S1134C60634B00221A7016E3634B1B78DAB27B683D
S1134C701A703B6801221A600DE3BB681B88DAB224
S1134C805D4B1A7007E35D4B1B889BB2DAB27B68FD
S1134C901A707B680133594A128892B2120A92B28E
S1134CA0D2B21A703B6802221A60F4E2BB681A8816
S1134CB0534B1A80524B1B889BB240F6EA22934214
S1134CC007D9504B01221A704D4B40F662121A80DC
S1134CD020E04C4B00221A70494B1B889BB240F6D3
S1134CE0DC02934203D9464B1B889BB201E040F699
S1134CF0DC03434A1380424B1B889BB240F6E922F3
S1134D00934203D83E4B1B889BB201E040F6EA2352
S1134D103B4A13803C4B1B78DBB2092B0AD0384B3F
S1134D201B889AB2354B1A80354B00221A80FFF744
S1134D30C7FCB0E2AFE239237B62344B1B6807F156
S1134D40240107F110020846114698473B680022E7
S1134D501A60A0E22E4B2F4A1A6005F04DFC9AE22D
S1134D60BB681B88B3F5006F17D9BB681B88B3F504
S1134D70406F12D8BB6802331B88B3F5006F0CD99F
S1134D80BB6802331B88B3F5406F06D8BB68023397
S1134D901A88BB681B889A4201D200237CE2BB6854
S1134DA01A881D4B1A80BB685A881C4B1A80104BFA
S1134DB004221A703B6800221A606CE2BB681B88EC
S1134DC0B3F5807F01D9002366E2BB681B88DAB2A1
S1134DD0134B1A70064B07221A703B6800221A60A4
S1134DE059E200BF5CC0092054C0092058C0092002
S1134DF03F0A001080100010420A00109C040010AA
S1134E00440A00107C0900103E0A001048040010F7
S1134E101C00001021BB05439E040010A0040010D8
S1134E20A20400107B6800221A707B680133002200
S1134E301A70A44807F05EF8034687F843307B688D
S1134E40023397F843201A707B68DA1C97F84330D2
S1134E5010469C491A4606F0D7FF97F84330DA1CEF
S1134E603B681A6017E2984807F044F8034687F84D
S1134E7043307B6897F843201A707B685A1C97F874
S1134E804330104690491A4606F0BEFF97F8433067
S1134E905A1C3B681A60FEE17B6801221A703B6869
S1134EA001221A60F7E1BB681B88DAB2874B1A70DB
S1134EB0FFF706FCEFE1854B1B78DAB27B681A70CA
S1134EC03B6801221A60E6E181494FF000024FF08D
S1134ED00003C1E900237E494FF000024FF00003B4
S1134EE0C1E902230023FB6425E0794BD3E900AB3D
S1134EF0FB6C7A6813441B78DAB24FF00003F96C48
S1134F00C900A1F12006C1F1200003FA01F902FA57
S1134F1006F649EA060922FA00F049EA000902FA0B
S1134F2001F84AEA08024BEA09036949C1E9002386
S1134F30FB6C0133FB64FB6C072BD6DD0023FB64A5
S1134F4024E0634BD3E90289FB6C08337A68134489
S1134F501B78DAB24FF00003F96CC900A1F1200606
S1134F60C1F1200003FA01F502FA06F6354322FAEC
S1134F7000F0054302FA01F448EA040249EA050391
S1134F805349C1E90223FB6C0133FB64FB6C072B1F
S1134F90D7DD80E10023BB640023FB640DE0BB6C20
S1134FA01B02BB64FB6C7A6813441B781A46BB6C07
S1134FB01343BB64FB6C0133FB64FB6C032BEEDD1E
S1134FC0444B1A68BB6C1344424A1360424B02229E
S1134FD01A70424B08221A705DE17B681B781A46EE
S1134FE07B6801331B781B021A437B6802331B78EE
S1134FF01B041A437B6803331B781B061343FB63B0
S1135000344AFB6B1360FFF75BFB44E10023FB6452
S11350100BE0FB6C7A6813441978314AFB6C134437
S11350200A461A70FB6C0133FB64FB6C092BF0DD40
S11350302C4B01221A703B680A221A602BE10023D0
S1135040FB6407E0264AFB6C134400221A70FB6CD5
S11350500133FB64FB6C092BF4DD224B00221A7034
S11350603B680A221A6016E11A4B1B68FB63002393
S1135070FB640CE0FB6C7A681344FA6CD200F96BA5
S113508021FA02F2D2B21A70FB6C0133FB64FB6C9E
S1135090032BEFDD3B6804221A60FCE03B6800222E
S11350A01A60114B00221A700B4B03221A700B4B1F
S11350B009221A7003F05CFEFFF702FBEBE0002309
S11350C0FB6421E02CC80000E8C700004C04001079
S11350D0C8100010E40B00107C0900103F0A0010F7
S11350E0BC0B00102C1000107D090010FB6C7A68BA
S11350F013446C4A1168FA6CD20021FA02F2D2B25B
S11351001A70FB6C0133FB64FB6C032BEEDD3B6814
S113511004221A60BFE07B681B781A467B6801335F
S11351201B781B021A437B6802331B781B041A4347
S11351307B6803331B781B061343184601F01EFDDE
S1135140584B0122DA63A6E07B6813221A707B684D
S1135150013337221A703B6802221A609BE0514BDC
S11351601B69002B14BF01230023DBB21A467B68A2
S11351701A703B6801221A608DE0BB681B88002B03
S113518014BF01230023DBB21A46464B1A6182E0A6
S113519003F02EFE78647B6C002B08D07868796C61
S11351A0402206F031FE3B6840221A6073E07B68BF
S11351B000221A703B6801221A606CE03B680022EE
S11351C01A60394B00221A70384B0A221A7003F005
S11351D0CFFDFFF775FA5EE0BB681B88DBB21846AB
S11351E005F028F803467B877B8F1B0A9BB2DAB253
S11351F07B681A707B6801337A8FD2B21A703B686D
S113520002221A6047E0BB681B88DAB2BB6802332B
S11352101B881046194605F023F83CE024487968B9
S1135220062206F0F1FD214B0C221A7033E07B6854
S11352305A791C4B83F834207B681A79194B83F80C
S113524035207B68DA78174B83F836207B689A78A8
S1135250144B83F837207B685A78124B83F8382034
S11352607B681A780F4B83F839200E4B0122DA63DE
S113527011E0BB681B88DAB20E4B1A700BE00B4BC3
S11352800D221A70BB681B88DAB20B4B1A7002E04D
S1135290002301E000BF012318465437BD46BDE892
S11352A0F08F00BF580400107C0900103F0A001062
S11352B08C090010400A0010410A001080B400AFAD
S11352C00C4B02221A600C4B00221A600B4B042276
S11352D01A600B4B40F634421A600A4B03221A60E0
S11352E0094B02221A60034B01221A60BD465DF885
S11352F0047B704704400040E40B00100C40004065
S1135300184000401440004000E100E080B483B045
S113531000AF4FF040231B6803F00103002B6DD056
S1135320394B1B680133384A1360374B1B687B6069
S1135330364B9B697A68D31A03F003033B60344B02
S11353401B78002B03D0324B1B78012B09D17B68CF
S113535003F07F03002B03D12E4B01221A7037E098
S113536036E02B4B1B78022B08D17B6803F001033A
S1135370002B2DD1274B01221A7029E0244B1B78D6
S1135380032B25D1214B1B7D032B21D13B68002B03
S11353901ED11E4B9B8B9BB2013B9AB21B4B9A8333
S11353A01A4B9B8B9BB2002B0ED11A4B01221A7005
S11353B0164B1B8C9BB201339AB2144B1A84134BB9
S11353C0DA8B124B9A8303E0134B4FF480721A600A
S11353D07B68C3F30803002B02D1104B01221A701F
S11353E00F4A104B1B68C3F54363043313600D4B22
S11353F000221A604FF0402301221A600C37BD4688
S11354005DF8047B704700BFE40B001058040010E3
S11354107C0900107D0900103CC00920E00B00103D
S1135420184000408409001080B400AF0B4B0422E4
S11354301A600B4B01221A700A4B1B68C3F3130347
S113544040F6354202FB03F2074B1B681344074A3C
S11354501360BD465DF8047B704700BFAC8002401A
S1135460C0100010E40B001008400040DC0B0010DA
S1135470B0B584B000AF78601B4B1B68184606F0CB
S1135480E9F904460D46786806F0E4F902460B464D
S11354901046194612A3D3E9002306F051FA024636
S11354A00B46104619464FF00002104B06F072FBF3
S11354B002460B462046294606F090F802460B4663
S11354C01046194606F04EFC0346FB60064B1A686C
S11354D0FB689A42FAD31037BD46B0BDAFF30080E3
S11354E00000000000887340E40B001000408F406F
S11354F080B400AF3F4A3F4B1B6843F00053136036
S11355003D4B00221A603D4B00221A603C4B0022A6
S11355101A603C4B00221A603B4B00221A603B4B42
S113552000221A603A4B00221A603A4B00221A6099
S1135530394BFF221A60394BFF221A60384B394A23
S11355401A60394A364B5A60384A354B9A60344BA4
S1135550374ADA60354B334A1A60364A334B5A605D
S11355602F4A324B9A60314B314ADA60324B4FF05A
S113557080621A60314B01221A6000BF2F4B1B68F6
S113558003F00103002BF9D02D4A254B1B6813604F
S11355902C4A234B5B6813602B4A214B9B68136096
S11355A02A4A1F4BDB681360134B4DF206021A6044
S11355B0274B1B681B0DDBB2264A1360244B1B6868
S11355C0C3F3130340F6354202FB03F2224B1B687C
S11355D01344224A1360224B1B889AB2214B1A802F
S11355E0214B00221A60214B00221A60BD465DF84F
S11355F0047B7047C4C00F4010410050304100503C
S1135600504100507041005090410050B041005052
S1135610D0410050F041005008400050104000506C
S11356206C1000100800034088100010CC0B001010
S1135630329000883410001080E100E030400050C7
S11356400041005004410050084100500C410050FA
S1135650E40B0010EC0B0010084000402810001070
S11356609C0400108A090010000B0010BC100010EC
S113567080B483B000AF4B4A4A4B1B6843F00053DD
S11356801360494B00221A60484B00221A60484BB1
S113569000221A60474B00221A60474B00221A600E
S11356A0464B00221A60464B00221A60454B0022EA
S11356B01A60454BFF221A60444BFF221A60444B88
S11356C001221A6000BF424B1B6803F00103002B48
S11356D0F9D000237B602AE03E4A7B681B01134417
S11356E03D4A1A607B689B003C4A13441946394A78
S11356F07B681B01134459607B68092B06DC7B68BB
S113570001331B01334A13441A4600E00022314995
S11357107B681B010B4408331A602E4A7B681B010B
S1135720134408332E4A5A607B6801337B607B68DC
S11357300A2BD1DD2B4A274B1B6813602A4A254BC1
S11357405B681360294A234B9B681360284A214BEA
S1135750DB681360144B4DF206021A60254B1B687C
S11357601B0DDBB2244A1360224B1B68C3F31303E3
S113577040F6354202FB03F2204B1B681344204AD7
S11357801360204B1B889AB21F4B1A801F4B0022B8
S11357901A601F4B00221A600C37BD465DF8047B6B
S11357A0704700BFC4C00F4010410050304100504A
S11357B0504100507041005090410050B0410050A1
S11357C0D0410050F04100500840005010400050BB
S11357D030400050080B00100800034088100010EF
S11357E0041000880041005004410050084100505A
S11357F00C410050E40B0010EC0B0010084000407A
S1135800281000109C0400108A090010000B0010DE
S1135810BC10001080B400AF254B1B68254A1360F0
S1135820254B1B681B0DDBB2214A1360234B1B68FD
S1135830234A1360204B1B68C3F3130340F635421D
S113584002FB03F21F4B1B6813441C4A13601E4BDC
S11358501B889AB21D4B1A801D4B1B889AB21A4B97
S11358601A801C4B1B6803F00103002B1BD01A4B3E
S11358701B6803F00103002B07D0184B01221A60A8
S1135880174B1B680133164A1360164B1B6803F051
S11358900103002B07D0144B01221A60134B1B6821
S11358A00133124A1360BD465DF8047B704700BFA4
S11358B0EC0B001030100010E40B00102810001046
S11358C0C80B0010084000408A0900108809001025
S11358D09C04001000400050044000500840005058
S11358E0000B00100C40005010400050BC10001081
S11358F080B500AF154B1B78DBB2013B0E2B24D8CF
S113590001A252F823F000BF455900004B59000092
S11359104B590000455900004B5900004B590000F9
S11359204B590000455900004559000045590000F5
S11359304B590000455900004B59000045590000DF
S113594045590000FFF766FF00BF80BD3E0A001006
S113595080B400AF104B4FF080521A600F4A0F4BC7
S11359601B6843F0010313600D4A0D4B1B6843F0A1
S1135970020313600B4A0B4B1B6843F001031360D3
S1135980094B4FF080621A60084B4FF080521A6046
S1135990BD465DF8047B704798C00920240003408D
S11359A0040003401041005000E100E09CC00920C5
S11359B080B400AF214B4FF080521A60204A204B34
S11359C01B6823F0010313601E4A1E4B1B6823F05F
S11359D0020313601C4B4FF080621A601B4B0022C1
S11359E01A601B4B00221A601A4B00221A601A4BD1
S11359F000221A60194B00221A60194B00221A6007
S1135A00184B00221A60184B00221A60174BFF2211
S1135A101A60174BFF221A60164A164B1B6823F0B4
S1135A200103136000BF134B1B6803F00103002B39
S1135A30F9D1BD465DF8047B704700BF98C00920CA
S1135A40240003400400034080E100E010410050C2
S1135A50304100505041005070410050904100507E
S1135A60B0410050D0410050F04100500840005077
S1135A70104000503040005080B500AF642004F066
S1135A80B1FC00BF04F0A4FC034603F00403002BA4
S1135A90F8D10A4B80221A60084B4FF480721A60C6
S1135AA0074B10221A60064B4FF480721A60044BA5
S1135AB002221A60034B00221A7080BD5CC00920C8
S1135AC03CC009203E0A001080B582B000AF2A4BCA
S1135AD01B78DBB2002B02D12923FB8008E0264B84
S1135AE01B78DBB2012B02D14023FB8000E040E0B5
S1135AF00D2047F6FF7104F0B3FB122042F6223169
S1135B0004F0AEFB142041F24B3104F0A9FB202039
S1135B1040F2011104F0A4FB184B1B889BB2013B1B
S1135B209BB20220194604F09BFBFB880320194614
S1135B3004F096FBFEF7C4FD00BF04F049FC0346E5
S1135B4003F04003002BF8D0612004F04BFC00BFAD
S1135B5004F03EFC034603F00403002BF8D062205B
S1135B6004F040FC064B80221A60054B4FF480720F
S1135B701A600837BD4680BD420A00109C0400101C
S1135B8058C0092080B584B000AF7860334B1B78CF
S1135B90DBB2002B05D12923BB8140F26143FB8199
S1135BA00BE02E4B1B78DBB2012B05D14023BB81CC
S1135BB040F26153FB8100E04DE00D2047F6FF7198
S1135BC004F04EFB122042F6223104F049FB14206B
S1135BD041F24B2104F044FBFB892020194604F0D8
S1135BE03FFB7B689BB22C20194604F039FB7B6891
S1135BF01B0C9BB22D20194604F032FB184B1B885A
S1135C009BB2013B9BB20220194604F029FBBB89DD
S1135C100320194604F024FBFEF752FD00BF04F0F4
S1135C20D7FB034603F04003002BF8D0612004F0B7
S1135C30D9FB00BF04F0CCFB034603F00403002BA4
S1135C40F8D0622004F0CEFB064B80221A60054B8C
S1135C504FF480721A601037BD4680BD420A0010AE
S1135C609C04001058C0092080B59AB000AFF860B9
S1135C700B467A60FB7200237B6635E0FB6887F88D
S1135C805E30FB681B0AFB6007F110027B6E134455
S1135C9000221A7000233B6620E007F110027B6E9D
S1135CA013441B78D9B297F85E3003F001033A6EBF
S1135CB0C2F107029340DBB20A461343DBB2D9B206
S1135CC007F110027B6E13440A461A7097F85E308F
S1135CD05B0887F85E303B6E01333B663B6E072BF7
S1135CE0DBD97B6E01337B667B6E032BC6D9934B6A
S1135CF01B889BB2DBB2623BDBB2184602F0B8FEF3
S1135D0003461A468E4B9B5CBB6500237B6650E0C2
S1135D107A687B6E13441B7887F85E307B6E04339D
S1135D2007F168021344002203F8582C00233B6651
S1135D3039E097F85E3003F001038249BA6D0A44F2
S1135D40127853407B65BB6D013319467E4BA1FB32
S1135D500323C81A400803449A091346DB019B1A1B
S1135D60CA1ABA6597F85E305B0887F85E307B6EB6
S1135D7004337A6E043207F168010A4412F8582C8D
S1135D80D1B23A6EC2F1070210467A6D8240D2B2A5
S1135D900A43D2B2D2B207F168010B4403F8582C7B
S1135DA03B6E01333B663B6E072BC2D97B6E0133DE
S1135DB07B66FA7A7B6E9A42AAD8FB7A0433FB722A
S1135DC00D2047F6FF7104F04BFA122042F62231FF
S1135DD004F046FA142041F24B3104F041FA202039
S1135DE040F6014104F03CFA544B1B889BB202205C
S1135DF0194604F035FA05200B2104F031FA03208A
S1135E00402104F02DFA2320142104F029FAFB6820
S1135E1003F00103002B05D02D204AF6AA2104F03B
S1135E201FFA04E02D2045F2555104F019FA082018
S1135E3004F000FA0346A7F85230B7F85230C3F31F
S1135E4008039BB243F49C439BB29BB208201946BF
S1135E5004F006FA00BF04F0BBFA034603F0400363
S1135E60002BF8D0612004F0BDFA00BF04F0B0FAB2
S1135E70034603F00403002BF8D0344B4FF4807234
S1135E801A60334B80221A6000BF0E2004F0D2F94E
S1135E90034603F01F030F2BF7D1632004F0A2FA8B
S1135EA000237B6621E000BF2A4B1B6803F0040338
S1135EB0002BF9D17B6EDBB2FA7AD31A87F85F3004
S1135EC097F85F30102B02D9102387F85F3007F161
S1135ED010027B6E134497F85F20702011461A4617
S1135EE004F000FA7B6E10337B66FA7A7B6E9A427A
S1135EF0D9D800BF0E2004F09DF9034603F01F0318
S1135F000F2BF7D1144B4FF480721A60642004F005
S1135F1069FA00BF04F05CFA034603F00403002BA3
S1135F20F8D10E4B80221A60B7F852300820194677
S1135F3004F096F96837BD4680BD00BF9C0400108C
S1135F4018C0000098BF00001108040238C00920DE
S1135F5058C0092054C009203CC009205CC0092055
S1135F6080B500AF0D2047F6FF7104F079F91220D7
S1135F7042F6223104F074F9142042F24B3104F059
S1135F806FF9202040F6014104F06AF905200B2145
S1135F9004F066F90320402104F062F900BF04F024
S1135FA017FA034603F04003002BF8D0612004F0F5
S1135FB019FA00BF04F00CFA034603F00403002BA3
S1135FC0F8D00A4B4FF480721A60094B80221A6091
S1135FD000BF0E2004F02EF9034603F01F030F2B1D
S1135FE0F7D1632004F0FEF980BD00BF38C009205A
S1135FF058C0092080B500AF414B00221A70414BB4
S11360001B78002B0BD1022004F014F903461A4626
S11360103D4B1B889BB2013B9A4247D16EE0394B02
S11360201B78012B14D1384B1B889BB220339AB2B6
S1136030354B1A80344B1B889BB2B3F51B6F35D993
S1136040314B1B889BB24F3B9AB22F4B1A802DE0E9
S11360502C4B1B78022B0DD12C4B4FF480721A6001
S11360602B4B1B68184602F015FC03461A46264BB8
S11360701A801BE0234B1B78032B0BD1234B4FF4CB
S113608080721A60234802F0CBFC03461A461E4B6A
S11360901A800BE01B4B1B78042B07D11B4B4FF4CE
S11360A080721A601C4B1A88174B1A80642004F003
S11360B099F900BF04F08CF9034603F00403002BA4
S11360C0F8D1114B1B889BB2013B9BB202201946AD
S11360D004F0C6F80B4B1B78002B01D0FEF7F0FA46
S11360E0612004F07FF900BF04F072F9034603F065
S11360F00403002BF8D0622004F074F980BD00BFC3
S11361007D0900107C0900109C04001038C009208F
S1136110E40B0010580400108009001080B485B00E
S113612000AF03463960FB71FB79013B012202FA9F
S113613003F3FB60184B20221A601EE03A68FB68E8
S11361401340002B03D0154B01221A6002E0124BBE
S113615001221A603B685B003B60104B10221A60FE
S11361600F4B1B6803F00203002B03D03B6843F082
S113617001033B60084B10221A60FB795A1EFA7126
S1136180002BDBD1054B20221A603B6818461437DC
S1136190BD465DF8047B70475CC0092058C00920E7
S11361A054C0092080B584B000AF0346FB71FB796D
S11361B063F07F03DBB21B02FB601020F968FFF77A
S11361C0ADFFB860BB68DBB218461037BD4680BD72
S11361D080B485B000AF03460A46FB711346BB7119
S11361E00AE0FA79BB791340FB73FA79BB7953401F
S11361F0FB71FB7B5B00BB71BB79002BF1D1FB799D
S113620018461437BD465DF8047B704790B591B0CD
S113621000AF0023FB630023FB6307E03A46FB6BFC
S1136220134400221A70FB6B0133FB63FB6B312BAD
S1136230F4DD0023BB63002387F83730002387F89D
S11362403630002387F83530002387F833300023B5
S113625087F83230002387F8343002F089FD754B1B
S113626080221A600D2047F6FF7103F0F9FF122017
S113627042F6223103F0F4FF142041F24B2103F0E3
S1136280EFFF202040F2615103F0EAFF0320402198
S113629003F0E6FF00BF04F09BF8034603F040035D
S11362A0002BF8D000BF04F093F8034603F0040376
S11362B0002BF8D1604B1B889BB2013B9BB20220A0
S11362C0194603F0CDFF612004F08CF800BF04F000
S11362D07FF8034603F00403002BF8D0622004F097
S11362E081F89AE00023BB63002387F8373000234A
S11362F087F83630002387F8353060E04F4B1B6851
S1136300C3F3130340F6354202FB03F24C4B1B6804
S113631013444C4A13600720FFF744FF034687F8F1
S1136320363097F83730DB43DBB218460121FFF7EC
S11363304FFF03461A4697F8363018461146FFF7C2
S113634047FF034687F8353097F835305BB2002BAA
S11363500ADA97F83530DB43DBB218460121FFF740
S113636037FF034687F8353097F83530022B03D8CA
S1136370BB6B0133BB6311E097F83430184601213D
S1136380FFF726FF034687F8343097F83430012BA3
S113639004D9002387F834300023BB6397F83630E0
S11363A087F83730254B1B68C3F3130340F6354297
S11363B002FB03F2224B1B681344234A1360BB6B9A
S11363C0072B9BDD0620FFF7EDFE0346DBB25CB234
S11363D00620FFF7E7FE0346DBB25BB22344DA0F85
S11363E013445B10DAB2194B1A70194A97F8363015
S11363F01370154B1A68134B1B68D31A154A136094
S1136400144B1B683A46072011461A46FEF71AF940
S11364100A4B1B68184602F04BFD0F4B1B78DBB28E
S11364200F2B3FF45FAF0D4B00221A704437BD466B
S113643090BD00BF58C009209C040010E40B00105C
S113644008400040F80C00107C1000102D100010C3
S1136450E90B0010681000103F0A00103E0A0010FB
S113646090B5A1B000AFB84B10221A6002F080FCC6
S113647003F024FEFFF7FCF8FFF76AFA0D2047F655
S1136480FF7103F0EDFE122042F6223103F0E8FE24
S1136490142041F24B2103F0E3FE202040F261512D
S11364A003F0DEFE0320402103F0DAFEA74803F0E8
S11364B005FD03469BB22C20194603F0D1FEA348E8
S11364C003F0FCFC03461B0C9BB22D20194603F081
S11364D0C7FE9F4B80221A6000BF03F079FF03467A
S11364E003F04003002BF8D000BF03F071FF034614
S11364F003F00403002BF8D1964B1B889BB2013B9D
S11365009BB20220194603F0ABFE612003F06AFF40
S113651000BF03F05DFF034603F00403002BF8D033
S1136520622003F05FFF44E100BF03F051FF034624
S113653003F01003002BF8D00023FB670DE00720C5
S1136540FFF730FE0346194607F13402FB6F13448C
S11365500A461A70FB6F0133FB67FB6F2C2BEEDDD1
S113656000BF7D4B1B68002BFBD07C4B10221A60B4
S11365707B4B1B68002B07D07A4B1B78DBB243F0B4
S11365800203DAB2774B1A70734B1B68012B07D9DD
S1136590744B1B78DBB243F00103DAB2714B1A700F
S11365A03B46BB67704B1B683B6000BF6F4B1B686F
S11365B003F00103002B03D0694B1B68002BF5D0BB
S11365C06B4A6B4B1B6823F001031360614B1B8800
S11365D09BB2DBB2623BDBB2184602F049FA0346D7
S11365E01A4613465B0013441B01624A13447B673B
S11365F00023FB6734E0604AFB6F13441B781A06E0
S1136600FB6F01335C49CB5C1B041A43FB6F023301
S11366105949CB5C1B021343FA6F033256498A5C17
S113662013433B67FB6F002B00DA03339B105C1CA6
S1136630386F03F043FC0146FB6F002B00DA033391
S11366409B109B007A6F13441B6881EA0302A3002A
S113665007F180010B4443F8802CFB6F0433FB6784
S1136660FB6F2B2BC7DDBB6F05331B7803F03F0398
S11366700233FB66FB6E272B00D940E03A4BD96806
S1136680BB6F1A1DFB6E084611461A4602F0F4FA57
S1136690B866FB6E0633BA6F13441B781A04FB6E9C
S11366A00533B96F0B441B781B021343FA6E043293
S11366B0B96F0A44127813437B66BA6E7B6E9A42B2
S11366C000D01CE0BB6F26331B78002B14D1BB6FAA
S11366D027331B783D2B0FD1BB6F93F82820274B12
S11366E01A7007F1340302201946FDF7EDFE244B1E
S11366F01B68184602F0DCFB134B10221A6064205E
S113670003F070FE00BF03F063FE034603F00403CE
S1136710002BF8D100BF03F05BFE034603F04003F7
S1136720002BF8D0612003F05DFE00BF03F050FEA3
S1136730034603F00403002BF8D00D4A0C4B1B68EE
S113674023F00103136021E03CC00920D6BE898EEA
S113675058C009209C040010000B001038C0092008
S1136760BC100010480A00105804001010410050DA
S11367702400034068C0000088100010E80B0010DB
S1136780E40B00100F4B1B6887F863300E4B1B683B
S113679003F00403002BF5D1FEF76AFFFFF7D8F8E6
S11367A0622003F01FFE094B00221A60084B0022EE
S11367B01A60084B1B78DBB20E2B3FF4B5AE84375E
S11367C0BD4690BD080003400C000340000B0010C0
S11367D0BC1000103F0A001090B5A3B000AFC04B2E
S11367E010221A6002F0C4FA03F068FCFEF740FFBE
S11367F0FFF7AEF80D2047F6FF7103F031FD1220CC
S113680042F6223103F02CFD142041F24B2103F017
S113681027FD202040F2615103F022FD0320402196
S113682003F01EFDAF4803F049FB03469BB22C2046
S1136830194603F015FDAB4803F040FB03461B0C5F
S11368409BB22D20194603F00BFDA74B80221A6042
S113685000BF03F0BDFD034603F04003002BF8D056
S113686000BF03F0B5FD034603F00403002BF8D189
S11368709E4B1B889BB2013B9BB20220194603F03E
S1136880EFFC612003F0AEFD00BF03F0A1FD034661
S113689003F00403002BF8D0622003F0A3FD56E1BB
S11368A000BF03F095FD034603F01003002BF8D05E
S11368B08F4B00221A608F4B05221A700023C7F8F1
S11368C0843011E0062003F0B5FC03461B0A9BB29A
S11368D0DBB25AB2864B1B681344854A1360D7F85F
S11368E084300133C7F88430824B1B781A46D7F8BA
S11368F084309A42E6DC00BF7F4B1B68002BFBD040
S11369007E4B10221A607E4B1B68002B07D07D4BF8
S11369101B78DBB243F00203DAB27A4B1A70764B7F
S11369201B68012B07D9774B1B78DBB243F00103BB
S1136930DAB2744B1A703B1DC7F88030724B1B6877
S11369407B6000BF714B1B6803F00103002B03D075
S11369506B4B1B68002BF5D06D4A6D4B1B6823F005
S113696001031360614B1B889BB2DBB2623BDBB259
S1136970184602F07DF803461A4613465B0013449A
S11369801B01644A1344FB670023C7F884303CE0CE
S1136990614AD7F8843013441B781A06D7F8843038
S11369A001335D49CB5C1B041A43D7F884300233AE
S11369B05949CB5C1B021343D7F884200332564950
S11369C08A5C1343BB67D7F88430002B00DA0333A7
S11369D09B105C1CB86F03F071FA0146D7F8843041
S11369E0002B00DA03339B109B00FA6F13441B68DF
S11369F081EA0302A30007F188010B4443F8842CC5
S1136A00D7F884300433C7F88430D7F884302B2B7C
S1136A10BEDDD7F8803005331B7803F03F03023323
S1136A207B677B6F272B00D934E0374BD968D7F8C5
S1136A3080301A1D7B6F084611461A4602F01CF975
S1136A4038677B6F0633D7F8802013441B781A0409
S1136A507B6F0533D7F880100B441B781B0213435C
S1136A607A6F0432D7F880100A4412781343FB6615
S1136A703A6FFB6E9A4200D00CE03B1D0020194691
S1136A80FDF722FD254B1B68184602F011FA144B42
S1136A9010221A60642003F0A5FC00BF03F098FCE8
S1136AA0034603F00403002BF8D100BF03F090FC6D
S1136AB0034603F04003002BF8D0612003F092FC5E
S1136AC000BF03F085FC034603F00403002BF8D059
S1136AD00F4A0F4B1B6823F00103136024E000BF2F
S1136AE03CC00920D6BE898E58C009209C040010E1
S1136AF04C0A0010490A0010000B001038C009208D
S1136B00BC100010480A0010580400101041005036
S1136B102400034068C0000088100010E40B00103B
S1136B20114B1B6887F86B30104B1B6803F0040390
S1136B30002BF5D1FEF79CFDFEF70AFF622003F05F
S1136B4051FC0B4B00221A600A4B00221A600A4BBC
S1136B501B78DBB2012B3FF4A3AEFEF729FFFDF750
S1136B6007FE8C37BD4690BD080003400C0003406F
S1136B70000B0010BC1000103F0A001080B584B058
S1136B8000AF7860094A7B681360786803F096F96F
S1136B90F860FB689AB2054BDA80FB681B0C9AB26A
S1136BA0024B9A801037BD4680BD00BF58040010C8
S1136BB080B500AF1F48FFF7E1FF1F4B1F4A9A60E3
S1136BC01D4B1F4ADA601C4B01221A611A4B00222A
S1136BD01A64194B00221A75174B00225A75164B6A
S1136BE000229A75144B00229A61134B00229A8357
S1136BF0114B0022DA83104B0022DA830E4B002261
S1136C001A840D4B002283F822200B4B00229A8415
S1136C10094B00229A62084B00229A85064B0022F7
S1136C20DA85054B002283F83020064B00221A70C7
S1136C3080BD00BFD6BE898E58040010555555003E
S1136C40AAAAAA007D09001080B500AF054800215A
S1136C504FF48472FDF790FA024B4FF0FF32C3F801
S1136C60002180BDF00B001080B588B000AF034652
S1136C70FB710023FB60A44B01221A70A34AFB7929
S1136C801370FFF795FFA24B4FF080721A60A14B6F
S1136C9010221A6002F06CF803F010FAFEF728FCD8
S1136CA0FEF756FEFEF710FFFDF744FD0023FB77C9
S1136CB015E1994B1B889BB2002B24D0642003F070
S1136CC091FB00BF03F084FB034603F00403002B95
S1136CD0F8D1924B1B889BB2013B9BB20220194610
S1136CE003F0BEFA612003F07DFB00BF03F070FBEC
S1136CF0034603F00403002BF8D0622003F072FB78
S1136D00854B00221A80864B1B78DBB2002B02D005
S1136D10FFF770F903E07F4B4FF480721A607D4BEC
S1136D2010221A60FDF7EEFA8023BB7422E00620DD
S1136D3003F080FA03461B0A9BB2FB74794B1B7861
S1136D40DBB2002B11D097F9123013F1800F0CD164
S1136D50754B1B785BB203F1360297F913309342FB
S1136D60B8BF1346FB74FB7CBB7497F91330184609
S1136D70FDF7E2FA6D4B1B68002B03D16C4B1B68CB
S1136D80002BD4D0694B1B6803F00103002B09D0FE
S1136D90684B1B68FB60684B1B68664A1360664A55
S1136DA0FB681360624B1B68002B07D0634B1B7896
S1136DB0DBB243F00203DAB2604B1A705B4B1B6820
S1136DC0002B00D185E0594B1B68012B07D95B4B85
S1136DD01B78DBB243F00103DAB2584B1A70FDF7AB
S1136DE0E1FA504B1B78DBB2002B03D1544B1B78D8
S1136DF0002B0CD0514B1B78DBB243F00803DAB202
S1136E004E4B1A700223FB77464B00221A704D4BEF
S1136E101B785AB2444B1B785BB236339A4209DB77
S1136E20464B1B78DBB243F01003DAB2434B1A70C3
S1136E300223FB77444B1B78DBB2002B07D0FB7F8C
S1136E40002B01D10123FB773F4B00221A70FB7FFB
S1136E50002B00D13DE0FB7F013BFB773B483C49E5
S1136E604FF4C87204F0D0FF0023BB6125E0002377
S1136E707B611CE0BB693233DA007B6913442E4A20
S1136E801168BA690A441278D209D1B22F4AD1548E
S1136E90294B1A68BB691344274A1168BA690A4422
S1136EA012785200D2B21A707B6901337B617B691C
S1136EB0072BDFDDBB690133BB61BB69312BD6DD39
S1136EC0244B1B6821489847B860BB68002B00D14D
S1136ED00CE0164B00221A60154B00221A601E4B60
S1136EE01B78DBB2FA799A423FF4E3AE1B4B4FF0C6
S1136EF080721A60FEF7C0FDFEF75AFDFDF738FCFC
S1136F002037BD4680BD00BF420A00103E0A001073
S1136F1000E100E03CC00920440A00109C04001079
S1136F207D090010C01000104D040010000B00106B
S1136F30BC1000105004001054040010480A001043
S1136F407E090010040B0010E00B0010080D001067
S1136F50980E0010980900103F0A001080E100E02C
S1136F6090B59BB000AF0346FB71874B01221A70AA
S1136F70864AFB791370864B01221A75854B4FF0B4
S1136F8080721A60844B10221A6001F0F1FE03F043
S1136F9095F8FEF76DFBFEF7DBFC7D4B1B6818468E
S1136FA002F08CFF03461846FEF7ECFD47E27B4BEC
S1136FB01B889BB2002B29D0642003F013FA00BF76
S1136FC003F006FA034603F00403002BF8D1744BD4
S1136FD01B889BB2013B9BB20220194603F040F987
S1136FE0612003F0FFF900BF03F0F2F9034603F058
S1136FF00403002BF8D0622003F0F4F9674B1B88DC
S11370009AB2684B1A80654B00221A80624B102298
S11370101A60FDF777F900BF634B1B68002B0ED194
S1137020624B1B68002B0AD1614B1B78DBB2002B2F
S113703005D1604B1B78DBB2FA799A42ECD05D4BF8
S11370401B78DBB2FA799A4200D0FFE1574B1B68F8
S1137050002B07D0584B1B78DBB243F00203DAB2A3
S1137060554B1A70524B1B78DBB2002B00D02BE12E
S11370704D4B1B68002B00D1E1E107F10803FB65D0
S1137080434B1B68BB60464B1B889BB2DBB2623B25
S1137090DBB2184601F0ECFC03461A4613465B00CB
S11370A013441B01454A1344BB6500237B6634E04B
S11370B0434A7B6E13441B781A067B6E01334049A6
S11370C0CB5C1B041A437B6E02333D49CB5C1B0231
S11370D013437A6E03323A498A5C13437B657B6EB1
S11370E0002B00DA03339B105C1C786D02F0E6FE83
S11370F001467B6E002B00DA03339B109B00BA6DB4
S113710013441B6881EA0302A30007F168010B44DE
S113711043F8602C7B6E04337B667B6E032BC7DDE8
S1137120FB6D05331B7803F03F0302333B653B6D76
S1137130272B00D9C8E03B6D06339B08FB64FB6C2E
S11371400A2B0DD800BF1F4B1A68FB6C9B001C490F
S11371500B449A420FD2154B1B68002BF3D00AE064
S113716000BF194B1B6803F00103002B03D00F4B26
S11371701B68002BF5D0154A144B1B6823F0010340
S1137180136004237B6658E0420A00103E0A001094
S11371905804001000E100E03CC00920440A00103B
S11371A09C040010460A0010000B0010BC100010D4
S11371B07D0900103F0A0010480A001068C0000052
S11371C08810001004410050104100502400034076
S11371D0A54A7B6E13441B781A067B6E0133A249C1
S11371E0CB5C1B041A437B6E02339F49CB5C1B02AE
S11371F013437A6E03329C498A5C1343BB647B6EEF
S1137200002B00DA03339B105C1CB86C02F056FEB2
S113721001467B6E002B00DA03339B109B00BA6D92
S113722013441B6881EA0302A30007F168010B44BD
S113723043F8602C7B6E04337B667B6E2B2BC7DD9F
S11372408A4B1B69002B23D0884BD968FB6D1A1D10
S11372503B6D084611461A4601F00EFD78643B6DFD
S11372600633FA6D13441B781A043B6D0533F96D2C
S11372700B441B781B0213433A6D0432F96D0A4424
S1137280127813433B647A6C3B6C9A4200D01BE047
S1137290774B10221A60774B1B6807F108021046DF
S11372A0984707F1080301201946FDF70DF9724BC1
S11372B01B68C3F3130340F6354202FB03F26F4B22
S11372C01B681344694A1364612003F08BF800BF00
S11372D003F07EF8034603F00403002BF8D0684A59
S11372E0674B1B6823F00103136003E0654B1B68C5
S11372F087F83F30644B1B6803F00403002BF5D17F
S11373005D4B1B68C3F3130340F6354202FB03F2E3
S11373105A4B1B6813443B66544B1A6C3B6E9A429F
S113732005D93B6E03F1434303F5A0033B664F4B82
S11373301B7D032B03D04D4B1B7D022B06D14B4BE6
S11373401B6C3A6ED31A514A934203D8504B1B68B4
S1137350012B37D1FFF72CFC4D4B00221A604D4B0B
S11373604FF480721A604C4B1B78DBB2012B06D1B0
S1137370494B00221A70494B00221A7066E0FB79CF
S11373800A2B01D100BF61E0384B01221A75642039
S113739003F028F800BF03F01BF8034603F00403CE
S11373A0002BF8D13E4B1B889BB2002B03D03C4BE7
S11373B01B889BB201E040F662133A4A13803A4BB1
S11373C001221A60294BDB882C20194602F048FF61
S11373D0264B9B882D20194602F042FF334B1B7825
S11373E0DBB2002B01D0FEF705FE294B1B68002BF6
S11373F007DDFEF7B5FD264B1B68013B244A1360ED
S113740017E0FEF735F9FEF7A3FA274B1B68002BAC
S11374100CD0164B1B68184602F050FD0346184664
S1137420FEF7B0FB204B00221A6002E0622002F05B
S1137430D9FF1F4B00221A601E4B00221A60174B03
S11374401B78DBB2FA799A423FF4B1AD1A4B4FF094
S113745080721A60FEF710FBFEF7AAFAFDF788F9AE
S11374606C37BD4690BD00BF881000105804001052
S113747038C009209C090010E40B001008400040AB
S113748024000340080003400C00034080F0FA028B
S1137490940900103CC00920400A00103F0A001063
S11374A0460A00109C040010500A00107D090010C8
S11374B0000B0010BC10001080E100E080B58CB01F
S11374C000AF6C4B1B889BB2DBB2623BDBB218464D
S11374D001F0CEFA03461A46674B9B5C3B620023DD
S11374E0FB610023FB620EE0FB695B08FB61634AFE
S11374F0FB6A13441B78DB071A46FB691343FB61E1
S1137500FB6A0133FB62FB6A1E2BEDDD1F23FB626A
S1137510A6E0FB695B08FB61584AFB6A13441B78CD
S1137520DB071A46FB691343FB61554B1A68FB6979
S11375309A4240F092800023BB6248E00023FB762D
S113754000237B6237E0BB6ADA007B6A1A44FB6A79
S113755013441F3B3B613B69B3F5487F00DB2DE0DF
S1137560464A3B6913441B787B61BB6A032B16DDD7
S1137570444A3B6A13441B781A467B6953407B6137
S11375803B6A01331946404BA1FB0323C81A400848
S113759003449A091346DB019B1ACA1A3A627A69B0
S11375A07B6A02FA03F3DAB2FB7E1343DBB2FB76A7
S11375B07B6A01337B627B6A072BC4DD334B1A6819
S11375C0BB6A1344FA7E1A70BB6A0133BB62BB6A9E
S11375D02D2BB3DD2A4B1B69002B2ED02B4B1B68A4
S11375E005331B7803F03F030233FB60244BDA6856
S11375F0264B1B68043310461946FA6801F03CFB1D
S1137600B860224B1A68FB68063313441B781A04CB
S11376101E4B1968FB6805330B441B781B0213438C
S11376201A4A1268F96804310A44127813437B60D9
S1137630BA687B689A4200D017E0144B1B6801209B
S11376401946FCF741FF124B10221A60114B1B68BC
S11376500E4A12681046984707E0FB6A0133FB6242
S1137660FB6AB3F5D87FFFF654AF012318463037D1
S1137670BD4680BD9C04001018C00000080D001019
S11376805804001098BF00001108040254040010AC
S113769038C009209C09001080B58AB000AF78601A
S11376A000233B627B68FB617B681B79FB767B680C
S11376B005337B617B6806333B617B691B7806334A
S11376C01A467B681344FB608B4B1B7D022B1CD139
S11376D0894B03221A75894B1B68874A9361864B31
S11376E0DB8B013B9AB2844B9A83834B00221A842E
S11376F0814B00229A62824B1B78DBB2002B00F094
S1137700F780804B28221A60F2E07B4B1B7D032B11
S11377106FD1FB7E03F00303FB72774B9B6A002B54
S113772021D0754B1B8C9AB2734B9B8D9A421AD104
S1137730724B1B68704A93616F4BDA8D6E4BDA8320
S11377406D4BDB8D013B9AB26B4B9A836A4B93F87A
S11377503020694B83F82220674B5A8E664B9A84FB
S1137760654B00229A62FB7A032B41D13B691B785B
S1137770002B3DD17B68DA795F4B83F830207B683E
S113778008331B789AB27B6809331B789BB21B02BF
S11377909BB213449AB2584B5A867B680A331B78BF
S11377A09AB27B680B331B789BB21B029BB21344C7
S11377B09AB2514BDA857B6810331B789AB27B6896
S11377C011331B789BB21B029BB213449AB24A4BEF
S11377D09A85494B9B8D1A46474B1B8C9BB2D31AF7
S11377E047F6FE72934203DC434B01229A627FE028
S11377F07EE0414B1B7D012B7AD17B6804331B78DF
S113780003F00F03BB72BB7A052B71D13A4BDB6BD0
S1137810002B14D07B6806333B481946062204F03B
S1137820C1FA0346002B0AD07B680C33364819464C
S1137830062204F0B7FA0346002B00D058E02E4B82
S113784002221A752C4B00221A6100237B6211E07C
S11378507B6A12331A467B6813441B781A467B6A88
S1137860DB0002FA03F31A463B6A13433B627B6A6A
S113787001337B627B6A032BEADD386AFFF77EF90A
S11378807B6818331B781A047B6817331B781B0238
S113789013437A681632127813431A46164B9A60C9
S11378A0154B9B68184602F009FB0246124BDA603E
S11378B07B685A7E104B83F822207B681A331B782E
S11378C09AB20D4B9A847B681C331B789AB20A4B8C
S11378D0DA837B6827331B7803F01F03DAB2064B85
S11378E09A75054B9A7D044B5A75084B01221A7000
S11378F02837BD4680BD00BF58040010E40B0010BB
S1137900400A0010940900108C0400107D09001036
S113791080B500AFFFF74CF9044B054A1A60092003
S1137920FFF71EFB034B00221A7080BD9C09001058
S1137930997600003E0A001080B592B000AF03466D
S1137940B9607A60FB7307F1140300221A600433F0
S113795000221A60043300221A60043300221A60E1
S1137960043300221A60043300221A600433002214
S11379701A60043300221A60043300221A600433AC
S113798000221A60043300221A60043300221A60B1
S1137990043300221A8002337B68312B01D931234E
S11379A07B60FB7B3B7507F1140301331846B96810
S11379B07A6804F029FA07F1140305201946FCF744
S11379C083FD4837BD4680BD80B584B000AF786084
S11379D0554B1B889BB240F66412934214D1534B0F
S11379E01B68C3F3130340F6354202FB03F2504B0A
S11379F01B6813444F4A13604F4B40F666121A80BB
S1137A004E4B01221A708BE0474B1B889BB240F609
S1137A10661293427DD1454B1B68C3F3130340F6B2
S1137A20354202FB03F2424B1B681344FB60414B9B
S1137A301B68FA689A4205D2FB6803F1434303F5D5
S1137A40A003FB603B4B1B68FA68D21A3C4BDB8BF0
S1137A50194643F2D40303FB01F3D90F0B445B1023
S1137A601344374AD28B114643F2D40202FB01F28B
S1137A70B3FBF2F3BB60BB68242B42D8314ABB682A
S1137A8013441A782E4B9A752D4BDB8B5B089AB2F4
S1137A902B4B9A832A4B00221A84294B00229A6189
S1137AA0264B00221A70264B9B7D5A1C264B82FBC8
S1137AB0030153185911D317C91A0B46DB000B44A1
S1137AC09B000B44D11ACAB21D4B5A751C4B03229E
S1137AD01A751B4B00221A611C4B03221A701C4B93
S1137AE01C4A1A6003201C490122FFF725FF1B4B87
S1137AF01B78DBB2002B03D0194B28221A600FE04D
S1137B000EE00D4B40F664121A800C4B01221A70E1
S1137B1006E0094B40F664121A80084B01221A70E1
S1137B201037BD4680BD00BF9C040010E40B00105C
S1137B3008400040540A0010800900107D0900101C
S1137B405804001040C00000A7C867DD7C0900107D
S1137B509C090010997600006E040010400A001081
S1137B609409001080B586B000AF7860334B1B6871
S1137B70C3F3130340F6354202FB03F2304B1B6898
S1137B8013447B612F4B1B687A699A4203D27A694A
S1137B902D4B13447B612B4B1B687A69D31A3B61D1
S1137BA03B6946F2A712934200D843E0274BD3F82F
S1137BB000213B699A4203D9244A3B69C2F8003147
S1137BC0224BD3F8003103F5613303F25233204AD8
S1137BD0A2FB03239B0CFB811E4BDB8BFA899A428D
S1137BE01ED11A4BD3F804310133184AC2F80431B8
S1137BF0164BD3F80431052B19D1174B174A1A60C9
S1137C00174B40F664121A80164B04221A70164B56
S1137C1001221A70022015490222FFF78DFE06E0A8
S1137C200C4AFB89D383094B0022C3F80421054A7B
S1137C307B6913601837BD4680BD00BFE40B00109C
S1137C4008400040580A0010C0ABC6C2F00B001038
S1137C50C1A91991580400109C090010C9790000A9
S1137C60800900107C0900107D09001076040010C2
S1137C7080B584B000AF7860284B1B69002B49D1D4
S1137C807B6804331B78012B44D17B6805331B7854
S1137C90002B3FD17B6808331B781A047B680733B9
S1137CA01B781B0213437A68063212781343BB60B5
S1137CB07B680433B8681946022200F07BFF024651
S1137CC0164B9A60154B0022DA600023FB6013E028
S1137CD0124BDA68114B9968FB6821FA03F303F03D
S1137CE00101FB68C3F1170301FA03F313430B4AC1
S1137CF0D360FB680133FB60FB68172BE8DD074B9F
S1137D0001221A61064B074A1A6001200649032220
S1137D10FFF712FE1037BD4680BD00BF58040010A7
S1137D209C090010657B00006004001080B487B0DB
S1137D3000AF78604FF0FF333B614FF0FF33FB60DF
S1137D4000237B6115E0224A7B6952F833207B686B
S1137D509A420BD11E4A7B69DB0013445B685A1CB0
S1137D601B497B69DB000B445A602CE07B690133BF
S1137D707B617B691F2BE6DD00237B6115E0144AE0
S1137D807B69DB0013445A683B699A4202DB3B6916
S1137D90002B07DA7B69FB600D4A7B69DB00134427
S1137DA05B683B617B6901337B617B691F2BE6DD8B
S1137DB00749FB687A6841F83320054AFB68DB0011
S1137DC0134401225A601C37BD465DF8047B70479A
S1137DD0F00B001090B5A1B000AF786007F11C0360
S1137DE0402218460021FCF7C7F901233B77012301
S1137DF087F82C30012387F82F30012387F83C3093
S1137E00012387F83E30012387F84C30012387F89B
S1137E104E30012387F84F300023FB6741E0A54B28
S1137E201B889BB2DBB2623BDBB2184600F020FE3B
S1137E3003461A46A04B9B5C3B670023BB672AE0C2
S1137E40FB6F1B0107F180021A44BB6F1344643BB0
S1137E501A789A493B6F0B441B785340D9B2FB6F95
S1137E601B0107F180021A44BB6F1344643B0A46AA
S1137E701A703B6F01331946914BA1FB0323C81AB7
S1137E80400803449A091346DB019B1ACA1A3A674D
S1137E90BB6F0133BB67BB6F0F2BD1DDFB6F0133AE
S1137EA0FB67FB6F032BBADD2023FB67D0E0854B18
S1137EB007F10C040FCB84E80F004FF0FF33FB668F
S1137EC00023BB6726E000237B671DE0FA6F7B6F0E
S1137ED013441A467B6813441A78BB6F1B0107F1DD
S1137EE0800119447B6F0B44643B1B789A4208D091
S1137EF0BB6F9B0007F180021344002243F8742CEB
S1137F0005E07B6F01337B677B6F0F2BDEDDBB6F7F
S1137F100133BB67BB6F032BD5DD0023BB670EE0CA
S1137F20BB6F9B0007F18002134453F8743C002B91
S1137F3002D0BB6FFB6605E0BB6F0133BB67BB6F51
S1137F40032BEDDDFB6E002B7FDB5A4B1B889BB2B2
S1137F50DBB2623BDBB2184600F08AFD03461A46E8
S1137F60554B9B5C3B670023BB674CE0002387F8C1
S1137F706B3000237B6739E0BB6FDA007B6F1A44F8
S1137F80FB6F1344203B3B663B6EB3F5487F00DB3D
S1137F902FE03B6E7A6813441B787B66BB6F032B20
S1137FA016DD464A3B6F13441B781A467B6E5340DA
S1137FB07B663B6F01331946414BA1FB0323C81A6F
S1137FC0400803449A091346DB019B1ACA1A3A670C
S1137FD07A6E7B6F02FA03F3DAB297F86B301343CD
S1137FE0DBB287F86B307B6F01337B677B6F072BCA
S1137FF0C2DD354B1A68BB6F134497F86B201A70B7
S1138000BB6F0133BB67BB6F092BAFDD2E4B1B6806
S113801003331B781A062C4B1B6802331B781B0492
S11380201A43294B1B6801331B781B021343264A4E
S1138030126812781343FB65F86DFFF777FE224B45
S11380401B6801201946FCF73FFAFB6F0133FB67FD
S1138050FB6FB3F53C7FFFF62AAF0023FB6720E0FC
S11380601A4AFB6FDB0013445B68032B16DD174AC7
S1138070FB6F52F833301846FEF780FD144B154A57
S11380801A60154B154A1A60154B00221A6100201C
S113809013490422FFF750FC002306E0FB6F013371
S11380A0FB67FB6F1F2BDBDD012318468437BD46BE
S11380B090BD00BF9C04001018C0000098BF0000D1
S11380C01108040238C8000054040010F00B00101A
S11380D098090010BD7400009C090010717C000018
S11380E05804001080B500AF2CE0FEF7ADFD184B2E
S11380F01B889BB203F00103002B03D0144B40F602
S113810088121A80134BDB6B002B07D1FCF7D8FACB
S1138110114B124A1A600A20FEF7A6FD104B1B7879
S1138120DBB20A2B00D012E000200A490422FFF738
S113813003FC0C4B0C4A1A60064B00221A610A20FD
S1138140FEF70EFF064B1B78DBB20A2BCDD080BDA9
S11381509C0400105804001098090010D57D0000FC
S11381603F0A00109C090010717C000090B589B092
S113817000AF354A3B1D144620686168A26807C3F6
S1138180A2891A800B23FB760023FB610EE0FB69B6
S11381900233FA69C2F105022C498A5C07F1200115
S11381A00B4403F81C2CFB690133FB61FB69052BB1
S11381B0EDDD274BD968FB7E3A1D084611461A4669
S11381C000F0B4FC7861FB7E7A69D2B207F1200139
S11381D00B4403F81C2CFB7E01337A69120AD2B2D9
S11381E007F120010B4403F81C2CFB7E02337A694F
S11381F0120CD2B207F120010B4403F81C2C1BE033
S1138200144B4FF080721A60124B4FF080621A6068
S1138210FB7E0333DAB23B1D0F4811461A46FDF7C5
S113822023FD0E4B4FF080721A600C4B4FF08062AE
S11382301A606420FDF71CF9094B1B78DBB20C2B88
S1138240DED02437BD4690BD48C800008C0900101C
S11382505804001080E100E0D6BE898E00E100E001
S11382603F0A001090B591B000AF002387F83D306D
S11382705A4B10221A6000F07BFD594B80221A6081
S1138280122042F6223101F0EBFF142041F24B316F
S113829001F0E6FF202040F2011101F0E1FF03208C
S11382A0292101F0DDFF00BF02F092F8034603F03C
S11382B04003002BF8D000BF02F08AF8034603F015
S11382C00403002BF8D17AE0464B1B88FB876FE050
S11382D0FB8F013B9BB20220194601F0C1FF6120D4
S11382E002F080F800BF02F073F8034603F00403C1
S11382F0002BF8D0622002F075F84FF4FA737B601B
S113830000BF7B68013B7B60002BFAD197F83D20CE
S113831013465B001344FA8F120A92B2D2B207F1E9
S113832040010B4403F8382C97F83D2013465B00BA
S113833013440133FA8FD2B207F140010B4403F81E
S1138340382C97F83D2013465B0013449C1C0620F0
S113835001F070FF03461B0A9BB2DAB207F1400337
S1138360234403F8382C97F83D30013387F83D3027
S113837097F83D30102B0DD107F10803042019465E
S1138380FCF7A2F8002387F83D30174B1B6818460A
S113839000F08EFD642002F025F800BF02F018F80A
S11383A0034603F00403002BF8D1FB8F0133FB8752
S11383B0FA8F0E4B1B889BB201339A4288DB0C4B1D
S11383C01B78DBB2042B3FF47FAF0A4B00221A70F8
S11383D0094B10221A604437BD4690BD38C00920AD
S11383E058C009209E040010E40B0010A0040010E3
S11383F03F0A00103E0A00103CC0092080B584B03A
S113840000AF0023FB735B4A07F108031068186090
S113841092889A80584B80221A60122042F62231A8
S113842001F01EFF142041F24B3101F019FF20200E
S113843040F2011101F014FF0320292101F010FF83
S11384400620F12101F00CFF00BF01F0C1FF03463B
S113845003F04003002BF8D000BF01F0B9FF03463E
S113846003F00403002BF8D179E0FB7B5B0007F1F8
S11384701002134433F8083C013B9BB20220194616
S113848001F0EEFE612001F0ADFF00BF01F0A0FF9E
S1138490034603F00403002BF8D0622001F0A2FF8E
S11384A04FF4FA737B6000BF7B68013B7B60002B59
S11384B0FAD1062001F0BEFE03461B0A9BB2BB7331
S11384C02E4B1B78DBB297F90E205BB29A4215DD76
S11384D0FB7B012B09D0022B0BD0002B00D021E019
S11384E0274B4FF480721A6007E0254B10221A6064
S11384F003E0234B02221A6000BF13E0FB7B012B35
S113850008D0022B0AD0002B0CD11E4B4FF48072E2
S11385101A6007E01B4B10221A6003E0194B022279
S11385201A6000BFFB7B5A1C174B83FB0231D31725
S1138530C91A0B465B000B44D11A0B46FB73134B51
S11385401B68184600F0B4FC642001F04BFF00BF28
S113855001F03EFF034603F00403002BF8D10C4B5B
S11385601B78DBB2072B80D00A4B00221A7010371D
S1138570BD4680BD58C8000058C00920A2040010A0
S113858038C009203CC0092056555555E40B00104D
S11385903F0A00103E0A001080B500AF01F084FDD0
S11385A0FCF78CFE4B4800F0BBFB4B4B1B6818469A
S11385B000F07EFC494B1B78DAB2494B1B78DBB2E6
S11385C09A4200F08680454B1B78DBB20F2B7FD894
S11385D001A252F823F000BFCB86000025860000DC
S11385E0D186000067860000AB8600007786000015
S11385F09D860000B1860000498600005586000073
S11386005B8600001986000061860000B7860000C2
S1138610318600003D860000012001F03DFC01F0A0
S1138620EBFF56E02E4B01221A70FEF7D5F850E00E
S11386302B4B0E221A70FDF713FF4AE0284B0F2232
S11386401A70FDF7E3FD44E0254B08221A70FEF78B
S1138650C3F83EE0FFF75CF93BE0FFF743FD38E089
S1138660FFF784FD35E01E4B03221A701D481E4996
S113867000F092FF2DE01A4B05221A701A4800F000
S113868035FC174B00221A70144B1B78DBB2052BF8
S113869003D1124B00221A701BE01AE0104B062281
S11386A01A70114800F040FE13E0FFF7DBFD10E004
S11386B0FFF7A4FE0DE00A4B0D221A700B4B1B783A
S11386C0DBB2184601F036FB03E0FDF7D5F900E014
S11386D000BF6AE7AD470000E40B00103F0A00103A
S11386E03E0A0010420A00109C040010410A0010C7
S11386F090B492B000AF0346FB710B46BB711346B6
S1138700BB80FB7903F01F03FB71BB7903F01F03EC
S1138710BB71BB88C3F30803BB805C4A07F11C032D
S1138720144620686168A26807C3A2891A80584A5F
S113873007F10C03144620686168A26807C3A28984
S11387401A8000237B6410E0BA887B6C42FA03F33E
S1138750DBB203F00103D9B207F12C027B6C1344A2
S11387600A461A707B6C01337B647B6C082BEBDD4F
S113877000237B6411E07B6C0933B9797A6C41FA8C
S113878002F2D2B202F00102D2B207F148010B4464
S113879003F81C2C7B6C01337B647B6C042BEADDBB
S11387A000237B6410E0FA797B6C42FA03F3DBB2BA
S11387B003F00103D9B207F13C027B6C13440A466F
S11387C01A707B6C01337B647B6C042BEBDD0D2313
S11387D07B6436E007F12C027B6C13441B78002B7E
S11387E02CD007F11C027B6C13441B7807F1480260
S11387F0134413F80C3C87F8423007F11C027B6CDD
S113880013441B78194607F10C027B6C13441B7844
S113881007F14802134413F80C2C07F148030B44E6
S113882003F80C2C07F10C027B6C13441B7807F142
S11388304802134497F8422003F80C2C7B6C013B4C
S11388407B647B6C002BC5DA002387F8433000235C
S11388507B6411E007F13C027B6C13441B781A46DD
S11388607B6C02FA03F3DAB297F84330134487F8C7
S113887043307B6C01337B647B6C042BEADD97F81B
S1138880433018464837BD4690BC704760C8000066
S113889070C8000080B58AB000AF78607B689B0820
S11388A0DBB203F01F0387F826307B685B08DBB27A
S11388B003F0010387F8253097F825309BB25B015C
S11388C07B847B685B0DDAB24B4B1B785340DBB285
S11388D003F01F0387F821307B681B0CDAB2474B87
S11388E01B785340DBB203F01F0387F820307B680A
S11388F0DB099AB2424B1B8853409BB2C3F3080373
S1138900FB837B68DB0823F07E4323F00F03BB610A
S1138910B9693C4BA3FB01239A0913469B001344FA
S11389201B019B1ACB1A7B6197F8262097F82130FC
S11389301344DBB2DBB203F01F03DAB2324B1B7811
S1138940DBB25340DBB2D9B297F825301A46520154
S1138950D31ADBB2DAB297F820305340DBB2DAB282
S1138960FB8B084611461A46FFF7C2FE0346FB740A
S1138970FB7C264A127813441A467B691A447B8C82
S1138980D118204BA3FB01239A0913469B001344DF
S11389901B019B1ACA1A1E4B9B5C87F827301D4B80
S11389A01B78002B1DD01C4B1B781A46BB69B3FBEC
S11389B0F2F102FB01F29B1AFB60FB7C134A127872
S11389C013441A46FB681A447B8C1344124A1278E7
S11389D0B3FBF2F102FB01F29B1A104AD35C87F855
S11389E0273097F827309BB203F662139BB21846E0
S11389F02837BD4680BD00BF2B1100102C1100107C
S1138A00DA100010A97464CFD81000107F11001080
S1138A10301100102C100010D9100010DC100010C0
S1138A2080B584B000AF78607B685B7D184600F049
S1138A304BF80346FB817B685B7D1A467B689B7D14
S1138A401A440A4B82FB030153185911D317C91A4C
S1138A500B46DB000B449B000B44D11ACAB27B6863
S1138A605A75FB8918461037BD4680BDA7C867DD17
S1138A7080B485B000AF0346FB71FB795B08FB71E2
S1138A80FB79002B02D12523FB7315E0FB790B2B1B
S1138A9003D8FB79013BFB730EE0FB790C2B02D16D
S1138AA02623FB7308E0FB79262B03D8FB79023BD2
S1138AB0FB7301E02723FB73FB7B18461437BD4689
S1138AC05DF8047B704700BF80B485B000AF0346F7
S1138AD0FB71FB790A2B06D8FB7903F2B2439BB2F4
S1138AE05B00FB811AE0FB79242B06D8FB7903F2A7
S1138AF0B3439BB25B00FB8110E0FB79252B03D1D0
S1138B0040F66213FB8109E0FB79262B03D140F682
S1138B107A13FB8102E04FF41B63FB81FB89184647
S1138B201437BD465DF8047B704700BF80B48BB03A
S1138B3000AFF860B9607A60FB6823F07F437B6222
S1138B401B4B7B6100233B6227E03B6ABA681344FA
S1138B501B78FB760023FB6119E0FA7E7B6A5340A5
S1138B6003F001033B61FB7E5B08FB767B6A5B08D9
S1138B707B623B69002B07D07B6A43F400037B6272
S1138B807A6A7B6953407B62FB690133FB61FB6951
S1138B90072BE2DD3B6A01333B623A6A7B689A4207
S1138BA0D3DB7B6A18462C37BD465DF8047B7047DF
S1138BB000605A0080B48DB000AFF860B9607A608C
S1138BC0FB68FB622B4BFB617B68013B7B622DE006
S1138BD07B6ABA6813441B78FB7600233B621FE070
S1138BE0FB6ADB0D7B61FB6A5B0023F07F43FB6266
S1138BF0FA7E3B6AC3F1070342FA03F303F001026E
S1138C007B6953401A46FB6A1343FB627B69002B62
S1138C1003D0FA6AFB695340FB623B6A01333B624F
S1138C203B6A072BDCDD7B6A013B7B627B6A002BA2
S1138C30CEDA0023BB6200237B6210E0FA6A7B6A0F
S1138C4022FA03F303F001027B6AC3F1170302FA69
S1138C5003F3BA6A1343BB627B6A01337B627B6AA8
S1138C60172BEBDDBB6A18463437BD465DF8047B31
S1138C70704700BF00C0B40080B489B000AFF86092
S1138C80B9607A60FB6823F07F43FB610023BB611A
S1138C9012E0BB69BA6813441A78FB69DBB253402B
S1138CA0FB75FB691A0AFB7D094951F823305340CF
S1138CB0FB61BB690133BB61BA697B689A42E8DB3B
S1138CC0FB6918462437BD465DF8047B704700BF36
S1138CD0A804001090B587B000AFF860B9607A605E
S1138CE0FB685B883B82FB689B887B820B4B1C6820
S1138CF0FB6859787B681B6807F110020846114627
S1138D001A46BB68A04778617B69012B0CBF01231D
S1138D100023DBB218461C37BD4690BD84320010D8
S1138D2080B582B000AF786001F0CCFD0B4802F052
S1138D302BFA0B4A7B68136002200A490A4A01F0A5
S1138D409DFDFF20094902F0C9F9012001F0FCFE54
S1138D50002318460837BD4680BD00BF80C8000008
S1138D6084320010D58C00008031001044C900000A
S1138D7080B400AF044B00221A60044B00221A6036
S1138D80BD465DF8047B70475C0A0010600A001061
S1138D9080B483B000AF134B1B68DBB203F07F03D6
S1138DA0FB71114B1B68DBB203F07F03BB71BB7912
S1138DB00133DBB203F07F037B71FA797B799A424A
S1138DC001D1002308E0084B1B680133064A1360F5
S1138DD0BB799B01054A134418460C37BD465DF820
S1138DE0047B70475C0A0010600A001080110010B8
S1138DF080B483B000AF104B1B68DBB203F07F0379
S1138E00FB710E4B1B68DBB203F07F03BB71FA7975
S1138E10BB799A4201D1002308E0074B1B68013358
S1138E20054A1360FB799B01054A134418460C3725
S1138E30BD465DF8047B70475C0A0010600A0010B0
S1138E408011001080B584B000AF786007F10C0386
S1138E501846FFF7CDFF0346FB60FB68002B0AD0E2
S1138E60114A7B681360FB6882201946402201F096
S1138E70C7FE012313E00C4B1B687A68D31A0B4A14
S1138E8093420BD90323FB72074A7B68136007F1F3
S1138E900B0382201946012201F0B2FE002318467A
S1138EA01037BD4680BD00BF640A0010801A06005A
S1138EB080B584B000AF7860822001F065FE03467F
S1138EC0FB73FB7B03F02003002B02D17868FFF7D0
S1138ED0B9FFFB7B03F04003002B02D17868FFF756
S1138EE0B1FF01F053FF1037BD4680BD2DE9F04FAF
S1138EF095B000AF786069463960162187F846104E
S1138F00002187F8471097F84660314601393964E3
S1138F10F0B24FF000014FEAC10B4BEA507B4FEA2D
S1138F20C00AF0B24FF000014FEAC10949EA507992
S1138F304FEAC00831460731C908C900ADEB010D3D
S1138F4069460031F96397F8466031460139B963DF
S1138F50F0B24FF00001CD0045EA5075C400F0B204
S1138F604FF00001CB0043EA5073C200334607338D
S1138F70DB08DB00ADEB030D6B4600337B6397F836
S1138F804630013BDAB2FB6B1A70FB6B00225A705D
S1138F903A233B62B34B1B6807F1200107F10C0233
S1138FA0084611469847FB68DBB2002B01D000232A
S1138FB0ACE13B691B0EDAB2FB6B9A703B691B0C8C
S1138FC0DAB2FB6BDA703B691B0ADAB2FB6B1A711B
S1138FD03B69DAB2FB6B5A717B691B0EDAB2FB6B2D
S1138FE09A717B691B0CDAB2FB6BDA717B691B0A21
S1138FF0DAB2FB6B1A727B69DAB2FB6B5A72BB6929
S11390001B0EDAB2FB6B9A72BB691B0CDAB2FB6BF8
S1139010DA72BB691B0ADAB2FB6B1A73BB69DAB288
S1139020FB6B5A73FB691B0EDAB2FB6B9A73FB6919
S11390301B0CDAB2FB6BDA73FB691B0ADAB2FB6B4B
S11390401A74FB69DAB2FB6B5A74FB6B97F847200E
S11390509A74FB6B0022DA74FB6BFF221A75FB6BAC
S1139060FF225A75122042F6223101F0F9F8142039
S113907041F24B3101F0F4F8202040F6F15101F0B7
S1139080EFF87B681B889BB20220194601F0E8F8D0
S11390902D204FF6AE1101F0E3F82C2041F284515B
S11390A001F0DEF897F8473043F00803DBB29BB2D7
S11390B00520194601F0D4F80320292101F0D0F845
S11390C000BF01F085F9034603F04003002BF8D0FC
S11390D0612001F087F900BF01F07AF9034603F03B
S11390E00403002BF8D0604B4FF480721A605F4B7E
S11390F080221A60002387F847303EE097F8473013
S113910043F00803DBB29BB20520194601F0A8F82E
S1139110FB6B97F847209A740023FB6425E0FB6CF3
S1139120DAB2FB6BDA7400BF0E2001F083F8034659
S113913003F01F030F2BF7D10023BB640AE0FA6B83
S1139140BB6C13441B787020194601F0B7F8BB6C54
S11391500133BB6497F84620BB6C9A42EFDC632072
S113916001F040F9FB6C0133FB64FB6C0F2BD6DD83
S113917097F84730013387F8473097F84730072B83
S1139180BCD900BF0E2001F055F8034603F01F03BD
S11391900F2BF7D1364B4FF480721A60642001F024
S11391A021F900BF01F014F9034603F00403002B76
S11391B0F8D17B681B889BB2013B9BB20220194605
S11391C001F04EF800BF01F003F9034603F0400339
S11391D0002BF8D0612001F005F900BF01F0F8F888
S11391E0034603F00403002BF8D01F4B10221A602F
S11391F000BF0E2001F01EF8034603F01F030F2BDF
S1139200F7D1622001F0EEF800BF01F0E1F8034667
S113921003F01003002BF8D0134B02221A60002332
S1139220BB640CE0702001F02FF8034619467A6BFA
S1139230BB6C13440A461A70BB6C0133BB6497F8C9
S11392404620BB6C9A42EDDC01F0C2F8034603F001
S11392500803002B01D000BF0CE0054B02221A606A
S1139260C6E700BFA808001038C0092058C009206C
S11392703CC009200E2000F0DDFF034603F01F036D
S11392800F2BF7D1642001F0ADF800BF01F0A0F876
S1139290034603F00403002BF8D1204B80221A600C
S11392A01F4B10221A601F4B01221A707B6B9A7C91
S11392B01C4B5A707B6BDA7C1A4B9A707B6B1A7D51
S11392C0184BDA707B6B5A7D164B1A71FB6B0122BB
S11392D05A700023FB6412E07A6BFB6C13441A7817
S11392E0F96BFB6C0B441B789A4205D0FB6CDBB228
S11392F00233DAB20B4B1A70FB6C0133FB64FB6C68
S1139300112BE9DD064B02221A600123D7F800D0A5
S1139310012B5437BD46BDE8F08F00BF5CC0092067
S11393203CC0092080100010F0B589B000AF78600F
S11393301621B9750021F975BE7D314601393961AF
S1139340F0B24FF00001CD0045EA5075C400F0B210
S11393504FF00001CB0043EA5073C2003346073399
S1139360DB08DB00ADEB030D6B460033FB60122022
S113937042F6223100F074FF142041F24B3100F028
S11393806FFF7B681B889BB2013B9BB2022019468E
S113939000F066FF2D204FF6AE1100F061FF2C2087
S11393A041F2845100F05CFF0520082100F058FFD1
S11393B00320292100F054FF00BF01F009F80346FF
S11393C003F04003002BF8D0612001F00BF800BF3C
S11393D000F0FEFF034603F00403002BF8D06A4BB1
S11393E010221A60694B4FF480721A60674B022294
S11393F01A60674B80221A6000BF0E2000F01AFF2B
S1139400034603F01F030F2BF7D1604B02221A60AF
S1139410622000F0E7FF00BF00F0DAFF034603F02C
S11394201003002BF8D0584B02221A600023FB6172
S11394300CE0702000F028FF03461946FA68FB6927
S113944013440A461A70FB690133FB61BA7DFB6958
S11394509A42EEDC00F0BCFF034603F00803002B45
S113946003D000BF4B4BFB6100E0C5E7FB69013B48
S1139470FB61FB69002BF9D1444B02221A60434B78
S113948010221A60642000F0ADFF00BF00F0A0FFBE
S1139490034603F00403002BF8D100BF00F098FF4B
S11394A0034603F04003002BF8D07B681B889BB273
S11394B00220194600F0D4FE00BF00F089FF0346E5
S11394C003F04003002BF8D0612000F08BFF2E4BFB
S11394D04FF480721A60BB7D013BDAB2FB681A70EC
S11394E0FB6801225A700023FB7539E0FB7D43F0D1
S11394F00803DBB29BB20520194600F0B1FEFB68FD
S1139500FA7D1A750023FB6124E0FB69DAB2FB687B
S11395105A7500BF0E2000F08DFE034603F01F03B2
S11395200F2BF7D10023BB610AE0FA68BB6913442F
S11395301B787020194600F0C1FEBB690133BB6182
S1139540BA7DBB699A42F0DC632000F04BFFFB69F3
S11395500133FB61FB690F2BD7DDFB7D0133FB7509
S1139560FB7D072BC2D9094B4FF480721A6064202B
S113957000F038FF00BF00F02BFF034603F00403A4
S1139580002BF8D1F3E600BF38C009203CC0092005
S113959058C0092080841E0080B584B000AF786074
S11395A039607B681B78DBB2002B02D14023FB813E
S11395B008E07B681B78DBB2012B02D14023FB81DE
S11395C000E035E0122042F6223100F049FE14207A
S11395D043F24B3100F044FE202040F6F15100F0FC
S11395E03FFE022040F6831100F03AFEFB8903207F
S11395F0194600F035FE00BF00F0EAFE034603F012
S11396004003002BF8D0612000F0ECFE00BF00F016
S1139610DFFE034603F00403002BF8D0064B4FF49F
S113962080721A60632000F0DDFE044B80221A6011
S11396301037BD4680BD00BF38C0092058C009207E
S113964080B400AF084B4FF080521A60074A074BB2
S11396501B6843F002031360054B4FF080521A60FD
S1139660BD465DF8047B704798C0092004000340A0
S11396709CC0092080B400AF064B4FF080521A60A2
S1139680054A054B1B6823F002031360BD465DF8D1
S1139690047B704798C009200400034080B500AFE4
S11396A0034B4FF080721A6000F008FD80BD00BFCC
S11396B000E100E080B500AF642000F093FEFFF706
S11396C0D9FF024B4FF080721A6080BD80E100E048
S11396D080B500AF0D2047F6FF7100F0C1FD1220E8
S11396E042F6223100F0BCFD142041F24B3100F06F
S11396F0B7FD20204FF4986100F0B2FD1E4B1B888B
S11397009BB2013B9BB20220194600F0A9FD032045
S1139710262100F0A5FD2120032100F0A1FD2D202C
S113972046F20F3100F09CFD2C2049F6FE7100F04A
S113973097FD00BF00F04CFE034603F04003002BEE
S1139740F8D0FFF77DFF612000F04CFE00BF00F071
S11397503FFE034603F00403002BF8D000BF0E20A5
S113976000F068FD034603F01F030F2BF7D16220BE
S113977000F038FE80BD00BF9C04001080B485B0AA
S113978000AF78600023FB6011E000BF0C4B1B6846
S113979003F00403002BF9D00A4B1B68D9B27A6892
S11397A0FB6813440A461A70FB680133FB60FB68CC
S11397B0232BEADD1437BD465DF8047B704700BFF8
S11397C00C0003400800034080B500AF00F000FE29
S11397D0034603F01003184680BD00BF80B483B075
S11397E000AF786039600C4B1B68C3F3130340F679
S11397F0354202FB03F2094B1B681A447B689A60EA
S11398003B6842F2107202FB03F27B68DA600C37A9
S1139810BD465DF8047B7047E40B0010084000402F
S113982080B483B000AF786039607B689A697B68E4
S11398309A603B6842F2107202FB03F27B68DA60C2
S11398400C37BD465DF8047B704700BF80B485B01B
S113985000AF7860134B1B68C3F3130340F6354223
S113986002FB03F2104B1B681344FB607B689A688D
S1139870FB689A4205D9FB6803F1434303F5A0034F
S1139880FB607B689B68FA68D21A7B68DB689A4243
S11398902CBF01230023DBB218461437BD465DF804
S11398A0047B7047E40B00100840004080B483B090
S11398B000AF78600C37BD465DF8047B704700BF8D
S11398C080B483B000AF78607B6800225A607B6804
S11398D05B68064A32F81320054B1A807B68012224
S11398E01A700C37BD465DF8047B7047B008001051
S11398F09C04001080B582B000AF7860FFF7E8FEEA
S11399007B6802221A700837BD4680BD80B58CB0D2
S113991000AF786007F1080300221A6004330022C4
S11399201A60043300221A60043300221A600433DC
S113993000221A60043300221A60043300221A60E1
S1139940043300221A60043300221A600433002214
S11399501A600433234B1B68C3F3130340F63542E8
S113996002FB03F2204B1B681344FB627868FFF789
S11399706DFF0346002B06D078680421FFF72EFF05
S11399807B6803221A70FFF71FFF0346002B19D0D0
S1139990164B10221A6007F108031846FFF7EEFE73
S11399A0FB6A07F10802062011461A46FAF74AFE36
S11399B00F4B10221A6078680621FFF70FFF7B68AF
S11399C003221A707B681B78022B07D0642000F0F6
S11399D009FDFFF74FFE7B6801221A613037BD464F
S11399E080BD00BFE40B00100840004038C00920CF
S11399F03CC0092080B582B000AF78607868FFF77A
S1139A0025FF0346002B1ED07B685B685A1C0F4B56
S1139A101340002B03DA013B63F0030301331A46BE
S1139A207B685A607B685B68094A32F81320094BEB
S1139A301A8078680721FFF7D1FE7B6801221A613A
S1139A407B6801221A700837BD4680BD0300008080
S1139A50B00800109C04001080B483B000AF78609C
S1139A607B6801221A700C37BD465DF8047B704791
S1139A7080B58CB000AF786007F1080300221A604B
S1139A80043300221A60043300221A6004330022D3
S1139A901A60043300221A60043300221A6004336B
S1139AA000221A60043300221A60043300221A6070
S1139AB0043300221A6004331E4B1B68C3F31303E0
S1139AC040F6354202FB03F21B4B1B681344FB6256
S1139AD0FFF77AFE0346002B29D0184B10221A6098
S1139AE007F108031846FFF749FEFB6A07F108026D
S1139AF0062011461A46FAF7A5FD114B10221A60EA
S1139B00612000F06FFC00BF00F062FC034603F02C
S1139B100403002BF8D000BF0E2000F08BFB03469B
S1139B2003F01F030F2BF7D1622000F05BFC3037EA
S1139B30BD4680BDE40B00100840004038C0092039
S1139B403CC0092080B582B000AF7860FFF73CFECE
S1139B500346002B12D07B6804221A707B68012212
S1139B605A61164B1B68C3F3130340F6354202FBDC
S1139B7003F2134B1B681A447B689A617B681B6968
S1139B80002B0FD07868FFF761FE0346002B09D045
S1139B907B6804221A707B6800225A6178680B2162
S1139BA0FFF71CFE7B681B78022B04D0642000F0B6
S1139BB019FCFFF75FFD0837BD4680BDE40B0010BC
S1139BC00840004080B582B000AF78600D2047F6B1
S1139BD0FF7100F045FB122042F6223100F040FBF9
S1139BE0142043F24B3100F03BFB20204FF49861EA
S1139BF000F036FB214B1B889BB20220194600F073
S1139C002FFB0320262100F02BFB2120032100F051
S1139C1027FB05200F2100F023FB00BF00F0D8FB39
S1139C20034603F04003002BF8D0612000F0DAFB78
S1139C3000BF00F0CDFB034603F00403002BF8D073
S1139C4000BF0E2000F0F6FA034603F01F030F2BAB
S1139C50F7D10B4B80221A60632000F0C3FB094B41
S1139C604FF480721A607B6805221A7078680221AA
S1139C70FFF7D6FD0837BD4680BD00BF9C04001029
S1139C8058C0092038C0092080B582B000AF786080
S1139C907868FFF7DBFD0346002B25D0642000F035
S1139CA0A1FB134B80221A60124B4FF480721A608E
S1139CB07B685B685A1C104B1340002B03DA013B92
S1139CC063F0030301331A467B685A607B685B6860
S1139CD00A4A32F813200A4B1A807B6803221A704E
S1139CE078680621FFF79CFD0837BD4680BD00BF9C
